:10000000B8ED00200904000015040000A55400000C
:1000100000000000000000000000000000000000E0
:10002000000000000000000000000000DD020000F1
:10003000000000000000000071030000BD0300008C
:100040001F0400001F040000194800007148000050
:1000500089480000A1480000B9480000D1480000CC
:10006000E9480000715B0000255C0000A95C00000D
:100070002D5D0000B15D0000355E00001F04000032
:100080001F0400001F0400001F0400001F040000E4
:10009000815700001F0400001F0400001F0400001F
:1000A0001F040000D15800001F040000B95E0000CA
:1000B000014900001F0400001F0400001F0400008D
:1000C00000F002F800F0B1F80CA030C8083824188D
:1000D0002D18A246671EAB4654465D46AC4201D180
:1000E00000F0A3F87E460F3E0FCCB6460126334201
:1000F00000D0FB1AA246AB46334318476481030085
:10010000848103000023002400250026103A01D337
:1001100078C1FBD8520700D330C100D50B607047BF
:1001200010B56E2902D102F0B6F810BD702902D1C7
:1001300000F08FFB10BD662902D135F0A3FE10BD83
:10014000652902D135F09EFE10BD672902D135F038
:1001500099FE10BD612902D1C046C04610BD03689A
:100160001B0A01D380231943692902D100F0C4FA84
:1001700010BD642902D100F0BFFA10BD752902D16B
:1001800000F0BAFA10BD6F2902D102F05FFB10BD7A
:10019000782902D100F04AFB10BDE92902D100F014
:1001A000E1FA10BDE42902D100F0DCFA10BDF52916
:1001B00002D100F0D7FA10BDEF2902D102F052FBB4
:1001C00010BDF82902D100F03FFB10BD0368DB0928
:1001D00001D380231943632902D102F0ABFA10BD89
:1001E000732902D102F0AEFA10BDE32902D103F067
:1001F00006F910BDF32902D103F009F910BD002062
:1002000010BD1FB503F09EF804000020002133F05C
:1002100033FD401C60600020002133F017FDE060DA
:1002200001F05AF81FBD10B510BD03F05DFF114677
:10023000FFF7E7FF0FB400F00BF80FBC31F0B4FF8D
:1002400000F0F0FD03B4FFF7EEFF03BC03F046FF40
:1002500004B032F003F80448002132F049F832F0DB
:1002600011F800F0DFFD0000A87C030080F309888E
:100270007047EFF309807047684680F309880648A5
:100280000078C00703D1032080F314887047022050
:1002900080F3148870470000687C0300064B9C467E
:1002A000EFF305831B0605D1EFF31483DB0701D0C1
:1002B00000DF704760470000AD2D0300064B9C46F1
:1002C000EFF305831B0605D1EFF31483DB0701D0A1
:1002D00000DF704760470000592F0300EFF30980EB
:1002E0008169891E097800292BD1A6461FC8A4461A
:1002F0007446E047EFF3098307C31A4B06CB9142DC
:100300001CD0083B00290DD0EFF30980203888620B
:10031000F0C044464D4656465F46F0C00CB433F03C
:1003200037F90CBC1A60906A1030F0C8A046A94694
:10033000B246BB4680F309882038F0C80220C0438B
:10034000004710B5084A1268914209D8074C890045
:100350006458A6461FC8A446F047EFF309840FC4AB
:1003600010BD0000D80100204C4600004C460000A3
:1003700032F0EEFF104B06CB91421AD0083BEFF360
:10038000098020388862F0C044464D4656465F4694
:10039000F0C00CB433F0FCF80CBC1A60906A10305A
:1003A000F0C8A046A946B246BB4680F3098820386B
:1003B000F0C80220C0430047D801002033F09AF96A
:1003C000D8E7000031F0F2FF33F094F9D2E70000F3
:1003D00070B505460C46164602E00FCC0FC5103E20
:1003E000102EFAD2082E02D303CC03C5083E042EE9
:1003F00007D301CC01C5361F03E021782970641CA6
:100400006D1C761EF9D270BD0848804708488047A9
:1004100008480047FEE7FEE7FEE7FEE7FEE7FEE7E7
:1004200005480649064A074B7047000091580000EE
:10043000A5580000C1000000B8E50020B8ED00207C
:10044000B8E90020B8E9002000487047C4E4002063
:1004500010B5202A04DB0146203A9140002010BD4F
:10046000914020239C1A0346E3401943904010BD5D
:1004700010B5202A04DB0846203AD040002110BDE8
:100480000B462024D340D040A21A9140084319467D
:1004900010BD4343514330B55C18010C130C0D469D
:1004A00092B25D4380B251432C19054655430A0C64
:1004B00009044D1962415843010C0004401951418F
:1004C00030BDFEB5054610460C46184373D0AE4607
:1004D0008C460020AD1A01469C4167D36646002732
:1004E00001243D46B61A9D4102D313463A462124C3
:1004F000654676462F04360C3E432D0CB61A9D41B8
:1005000004D3150C1B042B431204103465467646A5
:100510002F06360A3E432D0AB61A9D4104D3150E06
:100520001B022B4312020834654676462F07360914
:100530003E432D09B61A9D4104D3150F1B012B43D1
:100540001201241D65467646AF07B6083E43AD0846
:10055000B61A9D4104D3950F9B002B439200A41C17
:1005600065467646EF0776083E436D08B61A9D410C
:100570001AD392185B41641C16E000187646654653
:100580004941B71A9D410191009009D36046B11AC3
:1005900098418E468446009801990025401C694187
:1005A000DD0752082A435B08641EE6D5724663469F
:1005B00003B0F0BDFFE700200146C046C0462A4612
:1005C0002346F5E70FB41CB5084B06AA7B446946E1
:1005D0000090059802F083F804460020694602F076
:1005E00091F820461CBC08BC04B018473521000017
:1005F0000FB41CB5084B06AA7B44694600900598C9
:1006000002F06DF804460020694602F07BF82046AF
:100610001CBC08BC04B01847092100000FB47CB50D
:100620000C0009AA009001D00019401E094B7B4420
:1006300069460190089802F052F8002C054603D054
:100640006946002002F05EF828467CBC08BC04B075
:1006500018470000DD20000070B504468569006879
:10066000C10601D5302600E02026C00707D070BDA6
:1006700062683046A1689047206A401C20626D1E67
:10068000F6D570BD70B5044685690078C00707D1FE
:1006900070BD6268A16820209047206A401C2062DB
:1006A0006D1EF6D570BD70B50C460546012A05D005
:1006B0002878800600D5EA69002302E0012305E0DE
:1006C0005B1C934202D2E05C0028F9D1A869E618CD
:1006D000C01AA861286AC01828622846FFF7BCFF24
:1006E00004E06A682078A968641C9047B442F8D393
:1006F0002846FFF7C7FF70BDF7B5002575291068BC
:10070000009914A611D001F05CFD002802DA4042E5
:1007100011A608E0009909688A0701D50FA602E032
:10072000490704D50EA6012501E001F053FD009F05
:100730000024243704E002F03FFD30313955641CB9
:100740000028F8D12B4632462146009801F04BFD97
:10075000FEBD0000000000002D0000002B00000086
:1007600020000000F7B5D21D0025D20815A6D20042
:10077000F52905CA11D0002A05DA0021404291412D
:1007800011A60A4608E0009909688B0701D50FA653
:1007900002E0490701D50EA601251146009F00245D
:1007A000243704E001F0C5FC30323A55641C02469F
:1007B0000A43F7D12B4632462146009801F013FD3B
:1007C000FEBD0000000000002D0000002B00000016
:1007D00020000000F8B50F460188090502D5224C1B
:1007E0007C4402E0204C7C440E3405460021243534
:1007F00008E016071209360FA65D6E541E07324335
:100800001B09491C16461E43F3D1224604780023D7
:10081000240705D5702F06D0002901D002231132FC
:1008200001F0E1FCF8BD01231032F9E770B5044690
:100830000D462146106801F0CDFC002302462946F2
:100840002046FFF7C7FF70BDD21DD308DB000CCBDD
:10085000C0E730B4036820241268234303600823F0
:10086000C36130BC0023B5E7D4740300F3B504467C
:10087000002081B020622046E1688847002872D0BD
:10088000252802D06268A168ABE0594F00267F445A
:100890002046E16888472028054608DB312D06D22E
:1008A000781920380078002801D00643F0E7B00717
:1008B00001D5042086430020E0610746A0612A2D6F
:1008C0000AD0284631F0C6FB002827D0B80000190E
:1008D000303D0090856119E00298BA00121902C8F3
:1008E000916102902046E1688847012F054617D1A3
:1008F000E06900281FDA202086431CE000980A21C6
:100900008069484300994019303888612046E16881
:100910008847054631F09EFB0028EFD1012F0AD011
:100920002E2D08D12046E168884705462020064341
:100930007F1C022FC3DBA069002803DA4042A061BC
:1009400001200643F00701D0102086436C2D0BD008
:10095000682D09D04C2D3CD06A2D38D0742D38D05C
:100960007A2D36D016E040E0E1682F4620468847D1
:10097000B842054609D16C2F29D001208002E168D8
:10098000064320468847054604E06C2F1DD0FF2013
:1009900001300643002D28D028464138192803D8B5
:1009A0000120C00206432035204626602946029ACF
:1009B0001646FFF7B5FB002810D001280BD0F61D16
:1009C000F008C0000830029055E74020E1E78020A1
:1009D000D5E70020D3E7361D02964CE7626828462B
:1009E000A1689047206A401C44E7206AFEBD0000D1
:1009F0004E7403000FB400B58DB010A909900B9090
:100A00000020C04300910A9000200C9007487844D1
:100A10000690074878446A4607900F9909A802F0A3
:100A2000D1F90DB008BC04B018470000D72300006E
:100A3000F12300000FB400B58DB010A909900B9000
:100A40000020C04300910A9000200C900748784491
:100A50000690074878446A4607900F9909A802F063
:100A6000B1F90DB008BC04B018470000972300008E
:100A7000B1230000FFB51C460025ED4385B00020E2
:100A8000009001909F685E68A16906986D1C884778
:100A90000290216A88470028F6D10298401C0CD0A9
:100AA000032040028643002F19DD700614D50298FA
:100AB0002B2809D02D280FD103E00020C04309B016
:100AC000F0BD012080020643A16906986D1C88478D
:100AD0007F1E002F029002DD0298302803D0079875
:100AE000002828D024E00120A169400206436D1CA3
:100AF00006987F1E8847002F029003DD782805D0D6
:100B0000582803D00798002810D011E00798002833
:100B100001D010280CD10120A169400286436D1C30
:100B200006987F1E88470290102000E0082007905A
:100B3000C017039016E00A20F9E70120039B40024A
:100B40000643079A019900987F1EFFF7A2FC029ABC
:100B5000D3178018594101910090A16906986D1C26
:100B600088470290002F06DD0799029801F084FE65
:100B700000280290E1DAE16906988847B00502D4BE
:100B80000120C0439BE7F00710D1700610D5700517
:100B900005D50098019B002241429A4101E0019A4B
:100BA00000992068031D2360006806C0284686E778
:100BB0002068011D21600068019A0099F5E7FFB5E2
:100BC0001D460027FF4383B05C68002001909E68AB
:100BD000A96904987F1C88470090296A88470028E3
:100BE000F6D10098401C0CD0032040028443002E14
:100BF00019DD600614D500982B2809D02D280FD1B7
:100C000003E00020C04307B0F0BD01208002044390
:100C1000A96904987F1C8847761E002E009002DD8B
:100C20000098302803D00598002825D035E0012011
:100C3000A96940020443761E04987F1C8847002E51
:100C4000009003DD782805D0582803D005980028A7
:100C500010D022E00598002801D010281DD10120D5
:100C6000A96940028443761E04987F1C884700903F
:100C7000102002E0082000E00A2005900DE001218C
:100C8000059A49020C430199761E514308180190B8
:100C9000A96904987F1C88470090002E05DD0599FE
:100CA000009801F0E9FD0028E9DAE969049888472D
:100CB000A00502D40120C043A5E7E00722D16006C9
:100CC00011D56005019800D5404229680A1D2A60A7
:100CD0000968220501D5087014E0220701D50880B3
:100CE00010E008600EE02868011D296000682105F9
:100CF00002D50199017005E02107019901D5018014
:100D000000E0016038467EE7FFB5144683B000205E
:100D10000026009050680190916997680498884770
:100D20000C9905460698084305D009E0A169049886
:100D3000761C88470546216A284688470028F5D151
:100D4000681C03D00198C00704D017E00020C043FE
:100D500007B0F0BD2068011D2160006800900DE023
:100D60000198C00704D1009805700098401C0090BD
:100D7000A169761C04987F1E88470546002F1CDD5C
:100D8000681C1AD0069800280FD0E817C00E40192A
:100D9000411140098A000699400151182A1A096830
:100DA000012090400142DBD107E00C980028D7D108
:100DB0002846216A88470028D2D0E16904988847EC
:100DC0000C98002807D1002E05DD0198C00702D13C
:100DD000009800210170A068B84204DD0C9800283A
:100DE00004D0002F02D00120C043B1E73046AFE766
:100DF00070B5064600F0DEF80468054630460A2263
:100E0000002102F013F82C6070BD70B5064600F0AA
:100E1000D1F80468054630460A22002102F006F89F
:100E20002C6070BD10B50446C046C0462046FFF792
:100E300009FA10BD10B5024A02F09AF910BD00007F
:100E4000EC010020401ECAB24178401C8A4202D008
:100E50000029F9D10020704730B505460B462A46D7
:100E60001C781078521C5B1C002801D0A042F7D0DF
:100E7000002C03D0002802D06D1CEFE7284630BDBF
:100E8000034610B50B439B070FD1042A0DD308C8A6
:100E900010C9121FA342F8D018BA21BA884201D94A
:100EA000012010BD0020C04310BD002A03D0D3078D
:100EB00003D0521C07E0002010BD03780C78401CC2
:100EC000491C1B1B07D103780C78401C491C1B1BB9
:100ED00001D1921EF1D1184610BD0000034670B535
:100EE00002460B439B070FD10E4CE60100E008C2FF
:100EF00008C91D1B9D433542F9D0D9B21170521C4F
:100F000000290DD01B0AF8E70B78491C1370521CFE
:100F1000002B05D00B78491C1370521C002BF3D109
:100F200070BD0000010101010022CBB20178401C1C
:100F3000994200D1421E0029F8D1104670470000A6
:100F400030B5441C03E00178401C00290DD0810716
:100F5000F9D10B4BDD0104C8D11A91432940FAD0D5
:100F6000001B0A0603D0C01E30BD001B30BD0A04A2
:100F700001D0801E30BD0902FCD0401E30BD0000F3
:100F800001010101421E5378521C002BFBD10B784A
:100F9000491C1370521C002BF9D17047D2B210B506
:100FA00013029A1813049A1800F05AF810BD7047EB
:100FB0007047704710B531F011F810BD7047704799
:100FC000A2FFFFE7F8B5042A2CD3830712D00B78D1
:100FD000491C0370401C521E83070BD00B78491C20
:100FE0000370401C521E830704D00B78491C037009
:100FF000401C521E8B079B0F05D0C91ADF0020230F
:10100000DE1B08C90AE0FFF7E3F9F8BD1D4608C971
:10101000FD401C46B4402C4310C0121F042AF5D2D8
:10102000F308C91A521EF0D40B78491C0370401CF7
:10103000521EEAD40B78491C0370401C012AE4D4E8
:1010400009780170F8BD01E004C0091F0429FBD232
:101050008B0701D50280801CC90700D00270704741
:1010600000290BD0C30702D00270401C491E022980
:1010700004D3830702D50280801C891EE3E7002287
:10108000EEE70022DFE70000F8B507460B463946D9
:101090001943890713D1164CE601042A0FD302CB5A
:1010A0000D1B8D43354202D102C0121FF5E7CBB2B2
:1010B0000370401C521E002B13D0090AF7E7002AC8
:1010C00014D01978521E5B1C0170401C002908D0F6
:1010D000002A0BD01978521E5B1C0170401C00299D
:1010E000EDD1002A02D01146FFF7C9FF3846F8BDFE
:1010F00001010101024670B50A4392072AD11E4D33
:10110000EE0104C808C9541B9443344017D0D0B230
:10111000D9B2401A2106014310D190B299B2401AB7
:10112000210401430AD110021902000A090A401AD7
:101130002102014302D1100E190E401A70BD9A42CD
:10114000DFD010BA19BA884201D9012070BD002041
:10115000C04370BD02780B78401C491C002A09D09E
:101160009A4207D102780B78401C491C002A01D012
:101170009A42EFD0D01A70BD01010101002203098B
:101180008B422CD3030A8B4211D300239C464EE0A2
:1011900003460B433CD4002243088B4231D303095E
:1011A0008B421CD3030A8B4201D394463FE0C30910
:1011B0008B4201D3CB01C01A524183098B4201D328
:1011C0008B01C01A524143098B4201D34B01C01A13
:1011D000524103098B4201D30B01C01A5241C3088B
:1011E0008B4201D3CB00C01A524183088B4201D3FA
:1011F0008B00C01A524143088B4201D34B00C01AE6
:101200005241411A00D201465241104670475DE0FA
:10121000CA0F00D04942031000D34042534000227D
:101220009C4603098B422DD3030A8B4212D3FC2226
:10123000890112BA030A8B420CD3890192118B42A5
:1012400008D3890192118B4204D389013AD09211BB
:1012500000E08909C3098B4201D3CB01C01A524176
:1012600083098B4201D38B01C01A524143098B423F
:1012700001D34B01C01A524103098B4201D30B0128
:10128000C01A5241C3088B4201D3CB00C01A52414D
:1012900083088B4201D38B00C01A5241D9D2430834
:1012A0008B4201D34B00C01A5241411A00D2014671
:1012B000634652415B10104601D34042002B00D5DB
:1012C0004942704763465B1000D3404201B500209D
:1012D000C046C04602BD000070B5064C7C44064DB9
:1012E0007D4403E0206800198047241DAC42F9D1F9
:1012F00070BD0000DC700300347103000246C80FAB
:10130000C00781434B0030B54B405B009B0D20D0A4
:101310001923DB06C91801231B05994220DB03248E
:10132000A40704251346AB400BD3002B04D1EB06D6
:1013300013409B00E34204D40124640700231219E4
:101340005941FF231B0599420BD2C9000143500F9D
:1013500009E0CB0204D501430803024305D0054848
:1013600030BDFF21C905084330BD084607210905E6
:10137000884330BD0000C07FF0B50C46871A9C4101
:101380000D46861A9D4103D2C01BA141D21963416B
:101390000D0D1F0DC94EEC1BAE435CD07F057F0DBC
:1013A0000026002F51D02D05AC46A943DD020123B4
:1013B000ED0A1B051D4320231B1B24D41746E740C1
:1013C000381871412F46E740CC199D402818314606
:1013D00061410C0D27D161449A4013D50023401C74
:1013E000594152000ED14008400001224B005205E5
:1013F000D34207D305204007C14201D5B04900E0E0
:10140000B0493046F0BD6B00002A00D001229A1886
:101410001F23203C1B1B01D5002302E0E5402818B8
:1014200071410C0DD7D0012424050919C407CD073B
:1014300040084908E40F28436144002CD5D000241B
:10144000401C61419A40D0D1CDE76A05520DD9D1F7
:10145000C90FC907D5E79C4D4E00002801D00124D3
:1014600000E0002434195F00002A01D0012600E0CA
:101470000026BE19954FAC420CD8AE420AD8B442F1
:1014800006D001256D05EC42BCD010461946F0BDD2
:101490009942FCD000203946F0BDF0B51FB40C468F
:1014A0000F46811A9F412546861A9D4106D2012585
:1014B000ED076F40401ABC4152187B41210D1E0DB3
:1014C0008D1BAC467D4D8D437ED075056D0D7CD05A
:1014D0000D05AE46AC431B031B0B794D52429D419B
:1014E000202366469B1B14D31746F7403818002666
:1014F0000090744160462F460741E41900989D40D2
:101500002818664116D4714671189A4025D50123D2
:1015100020E093182A466A415200002B00D0521C4A
:101520001E23203E9B1B002B61DD3541EE17281842
:101530006641E8D5001876415B1C9A4000D3401CF8
:101540004B05F3181524E34010D3002B52D07146FD
:101550007118D30FC01802D3491C05B0F0BD012388
:10156000DB079A42F9D140084000F6E70122520514
:10157000B21801D1002853D00123CC0ADB029943D1
:10158000891E002A08D1020C03D0020C0004103975
:1015900002E00246002020390023550B05D112023B
:1015A0000823550B01D152010D23550C01D1120115
:1015B0001B1DD50C01D192009B1C150D01D15200B1
:1015C0005B1C2025EE1A01E02CE022E00546F540E8
:1015D00015439840CA1AE10769181305C918002A6B
:1015E000BBDA032040070818C10FC9070FE0714696
:1015F0006118B2E7F10740080843711071444A00CE
:101600000CD001235B059A42A7D2C90FC90700205D
:10161000A3E74905490D26D1002001E00028F4D1B7
:1016200000219AE7284D6600002801D0012100E042
:10163000002171185F00002A01D0012600E0002679
:10164000BE19224FA94210D8AE420ED8B14208D0DE
:1016500001256D05E94206D01946A8024140104611
:101660007BE79C4201D0214677E70020394674E7AA
:1016700010B50C465C4005D50124E4076340FFF734
:101680000CFF10BDFFF778FE10BD30B40C465C4077
:1016900004D50124E407634030BC6DE630BCFCE6B1
:1016A00070B50124E40761400D465D4002D4FFF7A8
:1016B00063FE70BD6340FFF7F0FE70BDFF070000E2
:1016C0000000F0FF0000F07F0000E0FF0000F87F66
:1016D000F0B5F94D0C091E092C402E402F468BB059
:1016E000A7437DD0B543FCD0002E7AD0002CFCD08F
:1016F0000D465D40ED0F2543AC1BFF25AD0464197D
:101700000894C502440DC9022143500DDC02044374
:101710000120C00701430443D2020191200C110CA7
:1017200000958C46010423468B430A9161460904C7
:10173000E24D8A430991010A7D44491980390978AB
:1017400005464D4301266D18F605751B6943C90C06
:10175000640B891C4C436418B5012C1B250C2E040A
:10176000B4434C434D43210C691889090591009DF0
:10177000E90701D00121C90704912C4601996708A6
:10178000CD072F434C08059DE10B4D432D0C2946F9
:101790006646754302950D4645432E46029D7D1BC8
:1017A000B44100950D465D4301942C0C2F040D4669
:1017B0005543AE462D0C3D43029503947546049C5B
:1017C0002D04641B049406D2029C039D641C002615
:1017D00075410395029401AC70CC009F7D1B01E024
:1017E0003EE162E1B4410904009507910194059935
:1017F000A4086143090C0C464443650BE7040C46FE
:1018000066467443A646640B3C43039502947446B3
:10181000049DE4042C1B049406D2029C039D641CCA
:10182000002675410395029401AC70CC009F7D1B8E
:10183000B44101940C465C430095650FE7000C46EB
:101840005443A646640F3C43039502947446049D9A
:10185000E4002C1B049406D2029C039D641C002609
:1018600075410395029401AC70CC009F7D1BB4417F
:10187000AE09AF06049DC900AD092F43049DA4061F
:10188000AD060495079D344369180791059DE10B4A
:101890004D432D0C29466646754302950D4645433A
:1018A0002E46029D7D1BB44100950D465D4301947B
:1018B0002C0C2F040D465543AE462D0C3D4302958E
:1018C00003947546049C2D04641B049406D2029C68
:1018D000039D641C002675410395029401AC70CCF5
:1018E000009F7D1BB44101948C050694079C890AD6
:1018F000611800950791019C0599A4086143090CA2
:101900000D464543680BEF040D46644665436C0B7A
:101910003C43049FED047D1BAC4602D20025641CB1
:101920006841009E019D371B85410846584301953B
:101930000C46460FC5005443600F28436546E4003B
:101940002C1B02D20025401C6E41019D3F1AB5415F
:101950002846BD09800628438446A009BF064E02DA
:101960000699A40676180743079D002068410A9946
:10197000079019430020099B00906046FF1913430C
:101980004041E20F64003A43A4460446D71A8C4112
:10199000A04203D90120009020463A46C70F941870
:1019A00040416246D20F2243644664000494009C86
:1019B000BE466400D71AA446044602978C41774677
:1019C000002F01D1A04204D96046401C8446029AEF
:1019D0002046C40FA64694184041049A0546D20FEB
:1019E000224364466400D31A8D417146002901D117
:1019F000A84202D928461A46641C10430122002836
:101A000000D0164361020020079B891904465C41FF
:101A10000223002C02DB491813466441089DCE0ABC
:101A20002D145D194B056705E10A2C050D19089960
:101A30003E43C9076940002B08D0934006D30022DB
:101A4000761C5141002B01D1760876001C4A002DEE
:101A500043DB154241D0AA433FD030460BB0F0BD26
:101A600006180D464D41174C7642AC411AD39518D5
:101A70001C465C41134A6D42A24113D30122520518
:101A80004C00D4420AD15C00D4420BD04B4002D56A
:101A900092021143E2E749004908DFE75940C90FC4
:101AA000C90718E000200849D8E7054801420DD1D0
:101AB0000342F7D0F2E700000000FF07B56503001E
:101AC0000000F07F0000E0FF0000F87F114859405F
:101AD0000143C01241400020C0E70123089A9B0641
:101AE0009A4205DC032252078918C90FC907B5E7D6
:101AF000052252078918074A1143D2125140ADE717
:101B000070B515461C4602460B4628462146FFF78F
:101B1000DFFD70BDFFFFFF7F0346CA02400D10B519
:101B200010430A1504D00124E4072043002A05DBF2
:101B30000A4CA21A04D4D040FF2A00DD002010BDB8
:101B40004A00002B01D0012000E0002010180122E3
:101B50005205D042F2D8C817C04310BD1E04000081
:101B600030B5420DCB0205461343C402081504D01C
:101B70000122D207134300281FDB134A121A11D483
:101B8000502A00D350221946D1401546203D02D498
:101B90001846E84003E02020851A1846A840D440A3
:101BA000204330BD4A00002D01D0012000E000207C
:101BB000101801225205D04202D90020014630BD42
:101BC000C917C843C94330BD3E0400001F22030C9F
:101BD00002D10F22000402D0030E03D004E0002043
:101BE000014670470002083A030F01D10001121F9D
:101BF000830F01D18000921E002801DB4000521E9D
:101C0000120551184205C012411810467047C10F05
:101C1000C90700D04042012292071143D6E70121B3
:101C20008907D3E710B50B1E01D0202301E0011E68
:101C30002BD00C0C01D10904103B0C0E01D1090270
:101C4000083B0C0F01D109011B1F8C0F01D189002A
:101C50009B1E002901DB49005B1E0446DC4021433A
:101C60001C05A4182022D21A90404B05C20AC90AAA
:101C70001A430919830501D14308184016239840D7
:101C800002D30020521C4141104610BDCA0FD2079A
:101C900003D00B46002140429941024B1A43C1E751
:101CA000004ABFE70000D041F0B58B4C0F09254634
:101CB00089B0BD437BD01D092646AE43FAD00E46FF
:101CC0005E402740F60F3E43254071D0240121425B
:101CD000FBD0FF24AD19A4042D1B039501252D0570
:101CE000DB02DB0AC9022B43C90A29431E01090191
:101CF000040F130F050121431701880B8203914341
:101D00002D098C46A90B1E438A039543B30B9A03F6
:101D100096433F09BA0B9403A74302962E467E438F
:101D20000497B6464E19D7190C46019654430597A9
:101D30007E43371B7646BF1B3601B646BE0B3619AF
:101D400000967646BC043719009C01D3641C0094AD
:101D50006400002F01D001263443029E049F754386
:101D600066467E430496760034196E00341900945A
:101D7000029C019E1C196643751BAE46069465467F
:101D80004519059C05956C43594375460891691A98
:101D90000191049E01465143A41B0491611A009CC9
:101DA0000791E10605D061090122114302E072E0CA
:101DB0006EE06109089D00272C0A2D066918049D14
:101DC0007C412A0A2D066918019D6241AC0DAD02C5
:101DD0006D185441079A910D920255196141029A6A
:101DE000644658435443069B059A5A43121A131BE0
:101DF0009A0E9B015B187A41010B0005C3185141F3
:101E0000220A200644195A419A4200D2491C012054
:101E10004002814203D315230226F64302E0142335
:101E20000326F6432020C51AA9401746AF40DA40E2
:101E30000A4320460399D84009147318190551180C
:101E4000039A3843D2075140AC4009D00122944054
:101E500006D30022401C5141002C01D14008400013
:101E60001E4A934212D3012203989206904207DB46
:101E70000520400709181A480143C012414004E0F8
:101E8000032040070818C10FC907002009B0F0BDA2
:101E90000020F107FAE705180C464C4111486D4245
:101EA000A04115D394181A465A410E4864429041F5
:101EB0000ED301204A004005824209D35A008242D3
:101EC00006D35940C90F084AC90700201143DDE76E
:101ED00000200649DAE700000000FF07FE070000C7
:101EE000FFFFFF7F0000E0FF0000F07F0000F87FB1
:101EF0000121C9050123411842001B06D3185B0EBE
:101F00000AD0C1100722D206891840075242D14296
:101F100001D5520089187047090208D50146002AE8
:101F200003D0C10FC9070020704710467047420216
:101F300002D0002002497047072109050143F4E758
:101F40000000F87FF0B5FF252D04C609C209FF2760
:101F500004462E400137CB093E4348402A402B40DF
:101F60000746002A6BD0002B69D0AA4267D0AB424B
:101F700065D0002800DA32460125ED0529432C43BF
:101F800009022002090AD21A4B0C7F24E31A434C9F
:101F9000000A7C44E35C7D242404121914145B00C1
:101FA000A218884201D3521C00E0400049420C466E
:101FB0005C4324115C43DB016415E318040A5C43B1
:101FC000C502200D0C4644436419250A5D432303D2
:101FD000EC0C0D46654300030019EB184C42A3427C
:101FE00001D35B18401CD4052018002B07D05B00E0
:101FF000C91804D3401C002901D1400840003F21EA
:1020000089048A4209D3002A08DC1106090F04D08A
:10201000032149074018C00FC007F0BD012241004D
:10202000120689187F2252069142F6D205214907ED
:10203000C84201D59010F0BDFF20C005F0BD002FB3
:1020400000DA32461648AA4207D2AB4205D219023C
:10205000090E17D0F80FC007F0BDFF2563002D064D
:10206000AB42F9D84900A942F6D8AB4201D1A94206
:10207000F2D0A94201D1002101E061004908D00558
:102080000843F0BD1102090EFBD0FF200243D0052A
:10209000F0BD0A460146104654E70000DB5D030030
:1020A0000000C07F0102C21504D00123DB071943E1
:1020B000002A0ADB9E239A1A02D40846D0407047B1
:1020C000FF2241001206914201D900207047C0173B
:1020D000C04370471F22030C02D10F2200041CD002
:1020E000030E01D10002083A030F01D10001121FB3
:1020F000830F01D18000921E002801DB4000521E98
:10210000D2055118021251181922904004D3491CCB
:10211000002801D14908490008467047C10FC90786
:1021200000D04042012292071143D3E701218907E1
:10213000D0E70B4670B50246890780080843194668
:102140009D08141AA94125090807054308092C19F7
:102150004841250A01060D43010A2C194141200C72
:102160000D0428430D0C00194D41002140194D412B
:10217000C00869070843E908840F8D0025438400DF
:1021800024184D4124196D41121BAB4107E009256C
:10219000ED432C11521963410024401C61411C463F
:1021A0000A250026551BB441F1D270BD10B5FEF7CB
:1021B00001FF006810BD10B50446FEF7FBFE046089
:1021C00010BD09684A0501D540B27047C905FCD564
:1021D00000B2704709684A0501D5C0B27047C90509
:1021E000FCD580B27047FFB504460D4681B024305F
:1021F00000902168880604D51022E069914321608F
:1022000000E00120A84201DD471B00E00027049800
:10221000A1697A191018081AA0612078C00602D4A2
:102220002046FEF719FA002608E003986268A168C4
:10223000805D9047206A401C761C2062049886428C
:10224000F3DB2078C0060AD52046FEF705FA06E043
:102250006268A16830209047206A401C206238469E
:102260007F1E0028F4DC07E000986268A168405DEA
:102270009047206A401C206228466D1E0028F3DC2F
:102280002046FEF7FFF92078000602D5022005B0AF
:10229000F0BD0120FBE711680268006A530501D513
:1022A000087009E0D30501D5088005E0130602D5C2
:1022B000C21705C100E00860012070477047FFB5F4
:1022C0000C461E468FB003CA089009914F007D0D41
:1022D00000D16D1E002108460020C0460321099A46
:1022E00089050840002A03DA820080184008084067
:1022F000800D01280A9002DD0020C0430A90089852
:1023000007430DD0F048F14928184843071418989E
:1023100000281DD07542291E1DDD0A9842421BE08F
:102320001898012802D00020302104E00020F24358
:1023300005E02154401CB042FBDB30460022189BD4
:10234000002121540F998B600A60486013B0F0BDE2
:10235000BD1B6D1CDFE70A9A002900DA69420BA851
:1023600001F088FA0BAB07CB03AB07C308990998B8
:1023700001F0ECFA6B4607C30146D5480918002D59
:1023800000910BDDD24903980A9A49424018002374
:1023900003A90390684601F049FD08E003990A9AF1
:1023A0000023081803A90390684601F0E9FC6B4676
:1023B00007C30004000C03D00020C043410800E024
:1023C0001046189A002A03D00022009215461EE0FB
:1023D000751E05D4FFF7ADFE303262556D1EF9D57E
:1023E00001220843079602D000227F1C04E02078D7
:1023F000302801D100227F1E002A069787D01EE0D8
:10240000112D07DAFFF795FE303262556D1C02463A
:102410000A43F5D1084303D00098002819D00EE0F4
:102420000021681E05E0235C625C63542254401E58
:10243000491C8142F7DBA81B401E07950690079AAE
:1024400018990020A0540F98079B069A81600CC031
:102450007CE711260020189059E7D21DF0B50D46F3
:102460000446D10893B0C90003C90C900D912FF018
:10247000F5F802460D98C00F01D02D2007E0206826
:10248000810701D52B2002E04007C00F4001032A3D
:102490000F9001D0072A05DB03462946204600F0AD
:1024A0005FFF0EE12078800601D5E76900E006278E
:1024B0002846652D04D0662814D0672D69D12DE0FB
:1024C0000020112F009001DB112300E07B1C0CAADF
:1024D00003A910A8FFF7F3FE1199002610987D1CA0
:1024E0000E9142E001203B460CAAC0070B90012050
:1024F000009003A910A8FFF7E2FE119D1298109911
:10250000002600280E9501D1781C0D18781B02D4E6
:1025100046427D1C761EE81B00903AE0012F00DA4F
:1025200001270020112F009001DD112300E03B4620
:102530000CAA03A910A8FFF7C2FE11993D461098F6
:1025400000260E91217809070BD40E99A94200DAD2
:102550000D4603A9012D04DD4A19203AD27F302A05
:1025600006D0B84201DA011D04DA012100910FE022
:102570006D1EEFE7002802DC86192D1A03E0411CCE
:10258000A94200DD0D46801B401C00900120C007C1
:102590000B902078000705D40098A84202DB0020A9
:1025A000C043009069460020C8720B98012102AF19
:1025B0000337C907884225D0022010902B201190A4
:1025C0000B9800280BDA40420B902D20119006E06A
:1025D0000B9800F0F1FD30317F1E0B90397010998F
:1025E000481E00291090F3DC0B980028F0D11198B8
:1025F0007F1E38702088000501D5452000E0652049
:102600007F1E387001A8C01BC01D0B900F980028BA
:1026100000D0012041190098C01709180B9808181C
:10262000A169081A401EA0612078C00602D4204685
:10263000FEF712F80F98002805D06268A16890474D
:10264000206A401C20622078C00625D52046FEF76F
:1026500003F821E0002E07DB0E98B04204DD03A84A
:102660006268805DA16802E06268A16830209047DE
:10267000206A761C401C20620098401E00280090B2
:102680000AD100F05FFEC06862680168405CA16822
:102690009047206A401C206228466D1E0028D9DC25
:1026A00007E062683878A1687F1C9047206A401C68
:1026B00020620B99481E00290B90F2DC2046FDF7A2
:1026C000E1FF032042E6000001FCFFFF104D000087
:1026D000E1DFFFFF01694A1C02610878704700B51D
:1026E0008FB002910021059105490193794403912E
:1026F000114604906846FEF7B9F80FB000BD00001F
:10270000E5FFFFFF0A681070521C0A6070470CC991
:1027100008399A4202D2531C0B601070704710B5F2
:102720004369002B02D0C046C04601E0FDF7BBFF65
:10273000012010BD1278014624310A7000224A702F
:102740000122ECE711680022D243E8E7F7B504461E
:10275000154686B02B487844002703C83E460090B3
:10276000019111E007986A467100415A02A801F0F0
:10277000CBFB411C07D02178890603D5E2693918C3
:1027800091420ED83F18761C2078800602D5E06969
:10279000B84206DDAE42E5DB07987100405A0028DA
:1027A000E0D1A069C01BA0612046FDF755FF154888
:1027B00078445A3803C800900020019116E0410087
:1027C0006A460798415A02A801F09EFB0590401CFA
:1027D0000AD0002505E0626802A8A168405D904724
:1027E0006D1C05988542F6D30498401CB0420490B5
:1027F000E5DB206AC01920622046FDF743FF09B0DF
:10280000F0BD0000E656030070B5044600212434F4
:1028100008E05507D2086D0F303565545D072A432F
:10282000DB08491C15461D43F3D10468002310A2A0
:10283000250708D5A40601D4002904D0C4690123C2
:102840000CA2641EC461FFF7CEFC70BD10B5044637
:1028500021461068FFF7BEFC002302462046FFF722
:10286000D3FF10BDD21DD108C9000CC9CCE70000B0
:1028700000000000300000003A2800D23038202349
:1028800002469A43412A01D310463738884201D381
:102890000020C04370470000FFB58BB00878FF28C8
:1028A00006D0491C2D2805D000230020009009E007
:1028B00000200EE00123F8E7009A0A246243801802
:1028C000491C00900878FF28F6D1002B02D0009810
:1028D00040420090002503952C460D9800782D2845
:1028E00001D02B2815D10D99491C2D280D9102D00E
:1028F000002003900DE00120FBE7401C214600274B
:102900000A223B460D902846FDF7C3FD35183C468C
:102910004C410D980678FF2EEFD10021084600208B
:10292000C0460399002902D08100401840080002E7
:10293000860F012E01DD0026F6430E9900984718F8
:10294000284620430BD0FF20F530C7421ADA0398FF
:10295000C1070B98002E41600ADD012009E00398B1
:10296000C1070B9841600B99002008600FB0F0BDC3
:1029700000200B990860FEF71DFB02210160182161
:1029800008461AE0FF20F530874219DD002E02DAF2
:10299000FC48784401E0FC48784406C80B9806C01F
:1029A0000B9803994068C90708430B994860FEF7E4
:1029B00001FB02210160142108460020C046D5E732
:1029C000002108460020C04639000A9001D5724215
:1029D00000E03246002900DA794207A800F04AFFF9
:1029E00007AB07CB04AB07C3E848009000200146C3
:1029F000214304D12C460546E44920390091210C9D
:102A00000904014306D1290C24040C4300992D0428
:102A100010390091210E0906014306D1290E240226
:102A20000C4300992D0208390091210F0907014339
:102A300006D1290F24010C4300992D01091F009193
:102A4000A10F8907014306D1A90FA4000C430099E7
:102A5000AD00891E0091E10FC907084304D1009819
:102A60006D196441401E0090002F0295019406DD0F
:102A700032466846012304A901F090F905E00123DC
:102A80003246684604A901F0DEF9044603980D4673
:102A9000002802D00120C007444000210846002041
:102AA000C0460A99BA4E48400007800F07D160001F
:102AB0004008284303D06000400DB04214D1FEF717
:102AC00079FA022101606000400DB0420CD1B1489A
:102AD000784406C80B9806C00B98E10FC9074068F8
:102AE00008430B99486041E70B9844600B980560D8
:102AF0003CE7FFB51F4695B0002000250C909E686E
:102B00005C68ED43139000F01DFCC0680168405CF8
:102B10001490B96916986D1C88470A90396A8847DD
:102B20000028F6D10A98401C0AD00D20C001844329
:102B3000002E12DD0A982B2809D02D280DD103E094
:102B40000020C04319B0F0BD012080020443B969E0
:102B500016986D1C8847761E0A90600504A901D559
:102B60002D2000E02B206A46491C107410A8002E6E
:102B70000D910B903BDD0A98692805D0492803D0B8
:102B80006E2801D04E281DD13B46039002200296AC
:102B9000179A1699C0430095019433F08BF9C11C24
:102BA000D0D10FE0B96916986D1C88470A900120B2
:102BB000761E40020443179805601398401C002EAF
:102BC000139014DD0A983028ECD0782801D05828CA
:102BD0000DD1139801280AD13B460296179A1699EF
:102BE000001F0095019433F05DF9C11CAAD114991E
:102BF0000A98884246D18020044308E00C9817992F
:102C0000401E0C90012040020443681C0860B96912
:102C10006D1C1698761E884730280A90EED031E059
:102C20001499884205D1200603D480200443761EDF
:102C30001EE00A982FF00EFA002826D0012008A9DD
:102C4000400204430D980331761E88420BD20A9845
:102C50000D99303808700D98401C0D90200607D54E
:102C60000C98401E03E0200602D40C98401C0C90E7
:102C7000A00502D51799681C0860B96916986D1CE3
:102C800088470A90002ECBDC59E0002E57DD0A98C9
:102C9000652801D0452852D1A00550D50320B96937
:102CA000000284436D1C1698761E8847002E0A90F9
:102CB0000CDD2B2804D02D2808D1FF20013004433F
:102CC000B96916986D1C8847761E0A90E00501D5F3
:102CD0002D2100E02B210B9801700B98401C0B90CC
:102CE000009025E0012012A9400204430B98013115
:102CF000761E88420ED20A980B9930380006000ED4
:102D0000087003D100990B9888420AD90B98401C8F
:102D10000B9006E0E00501D51F4801E01E48404247
:102D20000C90B96916986D1C88470A901798056031
:102D3000002E04DD0A982FF08DF90028D2D1F96910
:102D4000169888470D99FF2004AA08700B990870FF
:102D500000200E900F900C9B10A90EA8FFF79CFD71
:102D6000A00502D40120C043ECE62420044215D083
:102D7000E0071FD138680F9A0E99031D3B60006869
:102D800006C017E0F2580300E45803003E4000007C
:102D9000FF070000AC570300F1D8FFFF0EA96846FB
:102DA0002EF004FEE00705D13868009A011D396055
:102DB000006802602846C5E6026851181378016071
:102DC0001846704710B5D1600549794451610549ED
:102DD0007944116200211161114600F01DFB10BD04
:102DE000EBFFFFFF7B0500004268002A08D0016866
:102DF0000B78491C002B03D0521E06C018467047A2
:102E00000121C160881E70474268002A0BD0C36848
:102E10000168002B07D183688B4204D0491E521CE5
:102E200006C0002070470020C0437047F7B50F462A
:102E30000026009C2578641C002D05D000F07AFA4D
:102E40000068405DC007F5D12B2D02D02D2D18D084
:102E5000641E3946029A204600F0A8FC002F04D0D8
:102E60003968A14201D10099396071050224002915
:102E70000BDA4042002803DDFEF79CF80460A0074F
:102E8000FEBD012080020643E3E70028F8DAFEF7E2
:102E900091F804600048FEBDFFFFFF7FFFB51446B8
:102EA00087B000200190506803909768002002903E
:102EB0000646049005909169089888471099054640
:102EC0000A98084305D009E0A1690898761C88474C
:102ED0000546216A284688470028F5D1681C03D09A
:102EE0000398C00704D02CE00020C0430BB0F0BD15
:102EF0002068011D21600068019022E004AA684654
:102F0000E9B200F0E3FF411C07D0801C09D000208B
:102F100002900398C00707D00DE0E1690898884740
:102F200046E00120029007E0684601880198018090
:102F30000198801C01907F1EA1690898761C884723
:102F40000546002F1CDD681C1AD00A9800280FD0F7
:102F5000E817C00E4019411140098A000A99400142
:102F600051182A1A0968012090400142C6D107E091
:102F700010980028C2D12846216A88470028BDD071
:102F8000E169089888470298002811D11098002814
:102F900006D1002E04DD0398C00701D101990880F5
:102FA000A068B84204DD1098002804D0002F02D099
:102FB0000120C0439AE7304698E7FFB5144685B034
:102FC000002000905068019096680020029005460D
:102FD0000390916906988847109907460898084316
:102FE00005D009E0A16906986D1C88470746216A4B
:102FF000384688470028F5D1781C03D00198C007CF
:1030000004D01CE00020C04309B0F0BD2068011DC1
:1030100021600068009012E00198C00709D1B9B2A0
:10302000009802AA00F070FF411C34D000990818E3
:103030000090A1696D1C0698761E88470746002EF1
:1030400014DD781C12D00898002807D03B460F9A50
:103050000E9900F0FEFB0028DED107E01098002852
:10306000DAD13846216A88470028D5D0E169069828
:1030700088471098002806D1002D04DD0198C0076C
:1030800001D100990870A068B04204DD10980028B2
:1030900004D0002E02D00120C043B5E72846B3E794
:1030A000FFB5144683B000273D46506801909169F2
:1030B00096680498884700900E990698084305D0B2
:1030C00009E0A16904986D1C88470090216A009866
:1030D00088470028F5D10098401C03D00198C0070C
:1030E00004D014E00020C04307B0F0BD2068011DEB
:1030F000216007680BE00198C00702D10098388072
:10310000BF1CA1696D1C0498761E88470090002E94
:1031100015DD0098401C12D00698002807D0009BAF
:103120000D9A0C9900F095FB0028E4D107E00E9869
:103130000028E0D1216A009888470028DBD0E169A7
:10314000049888470E98002805D1002D03DD0198CA
:10315000C00700D13880A068B04204DD0E98002876
:1031600004D0002E02D00120C043BDE72846BBE7B3
:10317000F8B515460E46040003D12C68002C00D18A
:103180000CA4204600F0F1FE0419207800280ED08F
:1031900027463146384600F0D7FE0419207800282B
:1031A00002D000202070641C38462C60F8BD002737
:1031B000FAE700000000000001468008081A020932
:1031C0001018020A1018020C1018C00882001218F9
:1031D0005200891A01E0401C0A390A29FBD27047C3
:1031E000F8B5224C4E00069DA6420AD8A64201D14F
:1031F000002806D15E00A64203D8A6420AD1002AC2
:1032000008D00D24240425422CD02946002000F0AB
:10321000BCFEF8BD0C461C430CD4994202D0EFF31F
:103220000080F8BD904202D0EFF30080F8BDEFF3CC
:103230000080F8BD09242407E5008B4206D0EFF397
:103240000080A043591A06D2284304E0101A05D37F
:10325000EFF30080A04380F30088F8BDEFF3008017
:10326000A043F1E7009500F0A7FEF8BD0000E0FFE5
:1032700070B505464800440D124B0020002C0AD0C2
:10328000634008D09A4206DA6642B24203DD120574
:103290004019514170BD002C08D0002B09D0C90F36
:1032A000C907002AF6DB084A114370BDC90FC907D8
:1032B00070BD28460A03104302D00020034970BDA8
:1032C000284670BDFF0700000000F07F0000F87F77
:1032D00010B5FF231B0644009C421DD84C009C42A5
:1032E0001AD80346124A0B4307D4401A02D3EFF30D
:1032F000008010BDEFF3008010BD081A06D2EFF376
:10330000008001219043C907084302E0EFF30080E9
:10331000904380F3008810BD0D231B041A4204D093
:103320001146002000F031FE10BD00F0CFFE10BDB0
:103330000000009010B500F005F8001D10BD00BFA2
:103340003909030010B5FDF77FF8203010BD10B526
:103350000446FFF7EFFF0068005DC007C00F10BD17
:10336000F8B51F46044601230068DB020326014628
:103370001840072A05DB002801D017A506E017A58D
:1033800004E0002801D016A500E016A51020814316
:103390002160A069C01E002FA06101D0401EA06165
:1033A0002046FDF759F9002F09D038466268A16818
:1033B0009047206A401C2062C01C206206E0206A00
:1033C000FAE762682878A1686D1C9047761EF8D2EB
:1033D0002046FDF757F9F8BD4E414E006E616E0074
:1033E000494E4600696E660010B54369002B02D055
:1033F000C046C04601E0FFF7A9F9012010BD1288C0
:103400000146243182840022C2840122ECE7116843
:103410000022D243E8E70000F3B50C468FB000204D
:103420000C90012000260E9008460C300390626933
:10343000039801219047051E2ED0252D2DD0216AFD
:103440008847002818D06269039801219047216AB3
:1034500088470028F7D16269411E0398904700E031
:10346000761CA1690F988847216A88470028F7D100
:10347000E1690F988847DAE7A1690F988847A84261
:10348000074601D1761CD2E7E1690F9888477F1C77
:1034900002D10C98002877D075E162690398002763
:1034A0003D46394690472A280CD16269039801218C
:1034B0009047012506E00A214F433F18303FEBD4E7
:1034C0001020054362690398012190470146303975
:1034D0000A2903D2B1498F42DEDCECE7E90600D4C9
:1034E000AF4F6C280AD04C2810D0682824D06A2806
:1034F0002ED074280CD07A280AD00DE06269039887
:10350000012190476C2823D004211CE02020054392
:103510006269039801219047A760652865604FD0D4
:1035200026DC582839D01ADC452849D012DC252859
:1035300034D04128B0D143E062690398012190471B
:10354000682802D008210D43E6E70120C002DEE72B
:103550000220DCE7462833D047289DD130E05B28A5
:1035600070D061282CD063286CD0642894D161E09D
:103570006F284FD009DC662822D0672820D0692820
:1035800026D06E2888D12EE0F9E070284DD073281F
:103590006FD075284ED078280DD154E0A1690F98CE
:1035A00088472528054600D16CE7E1690F988847D0
:1035B0006D1C00D16DE7E6E00A224CE00A2252E0E1
:1035C000012023466A460F99C04332F063FCCFE0E6
:1035D00040212846234608436060A80701D5002201
:1035E00039E000223FE0E80700D020E72068011D15
:1035F00021600068290501D5067018E7290701D563
:10360000068014E7A90703D5F117066041600EE7AD
:1036100006600CE740212846234608436060A8075F
:1036200001D5082217E008221DE05E49284608401F
:10363000606016E040212846234608436060A807E2
:10364000BCD5B9E715E04021284608436060A807CB
:1036500007D52346102201200F99C043FDF70AFA2F
:1036600086E01022234601200F99C043FDF7A7FAF8
:103670007EE0002163280B460191009102910D919B
:1036800002D05B2808D03CE02079C00601D401209C
:10369000A0600120009034E0E06801210D90626993
:1036A000039890475E2807D101200190E06801212E
:1036B0000D906269039890472169002906D10B4655
:1036C00004AA8F00491C0829D351FADB00285AD0DC
:1036D0002169002927D00298401C02906269039852
:1036E000012190475D28F1D10198002808D00020E1
:1036F00004AB8100401C5A58D24308285A50F8DBCA
:1037000004AB2069002820791DD0400726D5029AF5
:1037100000980D9B00922246029001200F99C04311
:10372000FFF7BEFC24E0C117C90E09184A11490968
:10373000930004AA9A184901411A1368012088408D
:1037400003431360CAE74007224617480F9902D582
:10375000FFF7A4FB0CE0FDF7D7FA09E00298224638
:1037600000990D9B009002910F480F99FFF725FCDF
:1037700000280ADA401C06D10E98002803D0002049
:10378000C04311B0F0BD0C98FBE7E90702D10C99DA
:10379000491C0C91361800200E9048E6CCCCCC0C7D
:1037A000FFFFFF7FF1F7FFFFFEFFFFFFF7B51546B5
:1037B00082B00027029C2078641C0197302802D038
:1037C000002D15D015E020780127641C782804D03E
:1037D000582802D0002D09D00BE0002D01D0102D6B
:1037E00007D1207800271025641C02E0082500E09E
:1037F0000A250026009610E0009901276943081861
:1038000029467143020C80B200908E18380486421B
:1038100001D3012001902078641C2946FFF72CF881
:103820000028E9DA0398002805D0002F01D0641E93
:1038300000E0029C04600198002806D0FDF7BAFB66
:1038400002210160C81E05B0F0BD00993004084394
:10385000F9E710B509E00488801C9C4205D1002AD4
:1038600001D0002010BD012010BD491EF3D210462A
:1038700010BD0000F7B516468AB0334878446C4650
:1038800003467C33C06F5A689B680DC42E48784449
:10389000763003AC0DC80DC43720C001081837219D
:1038A0001B30FDF775FC05460C46803D1B3C02D5E0
:1038B0006442012000E000200027099010E0E007AA
:1038C0000CD00C2020497843794432464C394118B9
:1038D0006846012300F054FA6B4607C364107F1C4E
:1038E000002CECD1184F7F442E3F16E0E80712D091
:1038F0002001C0190EC80691089307920068F04293
:1039000001D1981908903246012306A903A800F0B6
:1039100037FA03AB07C36D10641C002DE6D109987C
:10392000002806D032466946012303A800F07EFA3B
:1039300005E001233246694603A800F021FA0A9BFC
:1039400007C30DB0F0BD0000D045030003464000A2
:103950000A4610B5400D0BD00121C9070F24A4025F
:1039600000191C0364082143540D2143D20207E0CF
:1039700000210120F2E7D40F490021435200401EEC
:103980000029F8DADB0FDB07184310BDFFB50D4641
:10399000144685B0486851682DF03AFE00910190B8
:1039A000A868A1682DF034FE02910390A8686168B0
:1039B0002DF02EFE029A12188242029201D20120AC
:1039C00000E00020019A0B18D2180028019202D0C2
:1039D0008A4202D903E08A4201D2012000E000209D
:1039E0000099081800906868A1682DF011FE029AED
:1039F00012188242029201D2012000E00020019AB6
:103A00000B18D2180028019202D08A4202D903E092
:103A10008A4201D2012000E000200099081800909D
:103A20002868216840004900400849084018FA49C0
:103A3000471814E001994000C90F0843009001980D
:103A400002994000C90F0843019002980399400071
:103A5000C90F08430290039840007F1E039000980E
:103A60000028E7DA0898002801D0EC4E00E0002694
:103A7000B74201DA012000E00020002804902AD09B
:103A8000F71BF806C00E15D0029B2021091A039AD5
:103A90008B401A430392029A019BC2408B401A4307
:103AA0000292019A009BC2408B4000991A430192F6
:103AB000C14000917B110DD06F460320C11A03D580
:103AC00000218200B95003E08A008100BA587A5080
:103AD000401EF3D5374603980299002800D00120F4
:103AE000014308980291002808460CD0002800D015
:103AF00001200199019A490508430121D20AC9020E
:103B0000D202019200E001210E9B0122D207012B7B
:103B100002D0002B03D013E0002807D120E0904210
:103B200004D890420CD1019B0B4209D0019B59183B
:103B3000019105D10099491C009101D17F1C00928F
:103B400000280DD0102108460020C0460498002807
:103B500006D00F98002803D0082108460020C04650
:103B600028682168019B009A4840C10F0598C90741
:103B700039430EC009B0F0BDFFB587B0099A089867
:103B800008995368926840688968964600220393B2
:103B900017469446089A12685300099A5B081268FF
:103BA000520052089A1A9E4BD4180A9A002A01D041
:103BB000352200E04022069200220123154604929D
:103BC000DB07059324E0002D05D175460346039ECF
:103BD0004D1BB34109D375466646039B491B049DA3
:103BE0009841059B7519AC465F4163463B4308D03D
:103BF000059B049EDD0776082E435B08049605931B
:103C000001E0521E641EC50FED0749184041521CC9
:103C1000069B9A42D7DB002D04D17546039A6B1A96
:103C2000824101D203200CE0039A0B466B404240D4
:103C3000134303D0014303D0012002E0022000E03F
:103C40000020614601910021009702910A99002904
:103C500005D0614640020143704B019102E08007AC
:103C6000002302909C4201DA012000E000200700BE
:103C70003AD01A1BD006C00E15D0029D2021019CFF
:103C8000091AC5408C402543029C8C4000D0012479
:103C90002543019C0295009DC4408D4000992C4312
:103CA0000194C140009154111DD06D4602210022A3
:103CB00002290CD10320001B07E0002804DB86004A
:103CC000AE59002E00D00122401C0328F5DB081B52
:103CD00002D588002A5004E08000285810438A004A
:103CE000A850491EE3D51C460A98002802980CD01B
:103CF000002800D001200199019A490508430121BB
:103D0000D20AC902D202019200E00121109B0122D5
:103D1000D207012B02D0002B03D013E0002807D1DB
:103D20001FE0904204D890420CD1019B0B4209D075
:103D3000019B5918019105D10099491C009101D1AD
:103D4000641C009200280CD0102108460020C046B8
:103D5000002F06D01198002803D008210846002023
:103D6000C04608980999019A009B00680968484074
:103D7000C10F0798C907214382600AC00BB0F0BD8C
:103D800000B585B0019300920A460146002302A8BF
:103D9000FFF7FCFD02A807C805B000BDFFB50A4645
:103DA0001F4685B00799019301230091014602A89F
:103DB000FFF7ECFD02990398049ECA0F4900D20751
:103DC00000920F22490892028C1A0021002800DB81
:103DD0000C46450013486D08844214D3079A002A04
:103DE00004DA441E0026104DF64302E004460D4658
:103DF0000E46102108460020C046002F03D00421A3
:103E000008460020C0462005E90A084300990843F7
:103E10006905F20A1143ADE602C0FFFF013C000054
:103E2000FF3F0000FF070000FFFFFF7F00B585B0E8
:103E3000019300920A460146002302A8FFF79CFE68
:103E400002A807C8A8E7FFB50A461F4685B007992C
:103E5000019301230091014602A8FFF78DFE02990C
:103E60000398049ECA0F4900D20700920F22490806
:103E700092028C1A0021002800DB0C4645001148F4
:103E80006D08844214D3079A002A04DA441E0026DF
:103E90000D4DF64302E004460D460E46102108463D
:103EA0000020C046002F03D0042108460020C04651
:103EB0002005E90A0843009908436905F20A1143FD
:103EC00058E60000FF070000FFFFFF7F70B51646B1
:103ED0000C460546FFF72EFA0368FF200230C05C4F
:103EE000012805D0185D00280BD001202C8070BD62
:103EF000FF333246214604331868C31828469847D2
:103F000070BD0020C04370BD70B516460C46054616
:103F1000FFF710FA0368FF200230C05C012807D0C9
:103F2000FF2C0ED8185D00280BD001202C7070BD1E
:103F3000FF333246214608331868C318284698478D
:103F400070BD0020C04370BD30B503461D78002D04
:103F500003D00A4603E0AC4201D1181A30BD1478F0
:103F6000521C002CF7D15B1CF0E730B503461D78DE
:103F7000002D08D00A461478521C002C03D0AC4205
:103F8000F9D15B1CF3E7181A30BDC80212D54803FB
:103F9000400F002804D0C803C04301218840704767
:103FA000EFF300800001000903210907084380F3B3
:103FB000008870470020704710B500200249029A1F
:103FC00000F0EAFA10BD00000000F87FF0B53D4BAC
:103FD00002460C461C400020002C63D03A4D8B4317
:103FE00066D000296BDB0B0D1D05A94301252D05AE
:103FF00029430124FD33E34001D392184941FF33A3
:1040000081339C468B02940D0121234389074C4246
:10401000920200271B198C105D1A04D42D1B02D4A8
:104020002B466500491992185B416408F4D15C1A6B
:1040300008D40125ED07EE175519744102D42A461C
:104040002346491C94185B41012292071D46E61B3A
:104050008D4106D4B61A854103D42B46550034460B
:104060007F1924195B415208802AEFD1234300D0E5
:10407000022338460A22D04001D3012213438A0585
:1040800010436246890A12058918002B09D00122C3
:10409000D34002D30022401C5141002B01D14008E3
:1040A0004000F0BD0B03134307D0C90FC907F0BD93
:1040B0000803104303D1002901DB1046F0BD0020A6
:1040C0002946F0BD0000F07F0000F87F10B50248DF
:1040D00000F062FA10BD00000000C07F0149182006
:1040E000ABBEFEE7260002007546FCF7ADF9AE4612
:1040F000050069465346C008C000854618B020B583
:10410000FCF78EF960BC00274908B6460026C0C5FA
:10411000C0C5C0C5C0C5C0C5C0C5C0C5C0C5403D7F
:1041200049008D4670470000FFB51F4689B01398BF
:1041300012994005C00FC007059000200790054662
:104140000446461E049002903C20491C12910690A1
:10415000B9690A98884703901498401E14901498DF
:10416000002841DD03982E2816D01021FEF784FB8D
:10417000002834DB01210491079901431AD00699E4
:1041800000290CDB069AC117FCF762F90543069873
:104190000C43001F069006E0012002900EE000286C
:1041A00001D001200543012007900298002805D185
:1041B000361D03E00298002800D0361F1298401CDC
:1041C0001290B9690A98884703901498401E149079
:1041D00004980028C3D00B9912980860BFE7039891
:1041E000702808D0502806D0F9690A9888470498A2
:1041F000002815D051E0002003900120029004987F
:1042000000280AD01298401C1290B9690A98884771
:104210001499491E0029149106DCF9690A98884707
:104220000120C0430DB0F0BD2B2804D02D280DD1A6
:104230000020C04302901298401C1290B9690A985D
:1042400088471499491E00291491E6DD411CE4D0E9
:104250000A21FEF711FB0028DFDB03990A225143F4
:10426000081803901298401C1290B9690A98884760
:104270000A21FEF701FB14990B9A491E1491129919
:1042800011601499002901DD0028E6DAF9690A981D
:1042900088470299039848438619139824210840B7
:1042A00004902846204304D0A10F8907090002D0BA
:1042B00006E005989BE0A90FA4000C43AD00B61ED4
:1042C000E10FC907080002D16D196441761E0498F8
:1042D000002803D00B2002905D4803E028200290C4
:1042E0007D20C0438642039007DA811B029808189C
:1042F0004128029001DD41200290029A0120002114
:10430000521EFCF7A5F8024628400B462140084300
:1043100001D0012000E0002007900020521EC04381
:1043200043412A4023401A4301D0012000E00020ED
:1043300007990690014352D0002108460020C0464C
:104340000321059A89050840002A05D082008018BB
:10435000C20F1018401008408015012802DD00200F
:10436000C04301E0012815D0401C38D00798002830
:1043700035D0069800280DD1029A01200021FCF7C3
:1043800067F828402140084301D0012000E00020C8
:10439000002824D0029A01200021FCF759F8034696
:1043A00040198C4661412A1A8C410FD3029840284B
:1043B00007DD0498039E002801D0343E02E0173E3A
:1043C00000E0761C01240025E40708E05B1E62463D
:1043D0000024E4436241DD43D44305400C4003988C
:1043E0000121081AB04206DA1A49059808430190DB
:1043F000002000900EE060006205010BE80A104307
:10440000059A009068460A4313490A4331460192CF
:104410002DF0D2FD049800280AD01398C00714D1BB
:104420003868019A0099031D3B60006806C00CE0E3
:1044300002A869462DF0BAFA1398C00705D138686A
:10444000029A011D3960006802601298EAE60000D5
:1044500002FCFFFF0000F07F0000F03FFFB51D46AB
:1044600087B01198484A109C129E40051399C00FBE
:10447000761EC0070243019200220092FF22D2055D
:104480001043202291434929059003D017464E2915
:1044900028D04FE03DA002AA0BC801270BC2A96992
:1044A0000898641C8847761E014607D402A8C05DA0
:1044B000002803D02022914381420AD0E96908985C
:1044C0008847032F36D0082F34D00120C0430BB0CB
:1044D000F0BD7F1C032F01D0082FE0D10999601C8B
:1044E0000860DCE7A9690898641C8847761E2DD40B
:1044F000B84341282AD1A9690898641C8847761EC8
:1045000024D4B8434E2821D1A9690898641C88474F
:1045100001990122D204114301910599D20011435E
:1045200005910999761E0C6001D4282806D0E96906
:10453000089888471198C00712D023E0A969089805
:10454000641C8847761E01D4002803DAE9690898BC
:104550008847BAE72928F1D10998641C0460E9E783
:1045600011982421084207D02868019A0099031D58
:104570002B60006806C005E028680599021D2A60C6
:10458000006801602046A2E70000F07F494E4649DE
:104590004E4954590000000010B50C461107090F90
:1045A000092904D00A290AD008290CD104E01146AF
:1045B0000820FFF7EAFC06E0510606D501E05106A7
:1045C00001D50120C007214610BDD10607D5010144
:1045D0000909CC084907000E0006044309E0410F11
:1045E00020024907000A0143200E00061D22D14186
:1045F00001430846E7E770B58C180578401C6B0747
:104600005B0F01D10378401C2A1106D10278401CAF
:1046100003E00678401C0E70491C5B1EF9D12B0785
:1046200005D40023521E0DD40B70491CFAE7037801
:10463000401CCB1A921C03E01D780D70491C5B1CBA
:10464000521EF9D5A142D8D3002070BD0000000051
:104650000146002004E0002000E0401C0628FCD3B6
:104660000A46491E002AF6D1704770B50446002C50
:104670000AD000F08FF9054628466043C50A00BFFE
:1046800028466D1E0028FBD170BDF7B582B00546E7
:104690001646A0200190002700210120019A01F078
:1046A0000FF807436D046D0CFF2000022840000A3C
:1046B000019000210846019A01F002F80743E8B290
:1046C000019000210846019A00F0FAFF0743A1205B
:1046D000019000210120019A00F0F2FF074300241D
:1046E00015E0721EA24201D1012200E00022114613
:1046F000721EA24201D1012200E00022104600F009
:10470000FCFE0190039901980855601C84B2B442E4
:10471000E7DB05B0F0BD70B586B004460E46154621
:1047200075E0A02105910021049102910191A0065C
:10473000800E4021091A01916846027D0021012066
:1047400000F0BEFF6946097C084304906404640CD1
:10475000FF2000022040000A059069460A7D0021E2
:10476000084600F0ADFF6946097C08430490E0B2BA
:10477000059069460A7D0021084600F0A1FF6946C0
:10478000097C08430490402D01DA294600E04021CD
:104790000291684681880089814202DA68468188F0
:1047A00001E0684601890291002103911CE06846FE
:1047B0008089315C059168460089401E6A4692896D
:1047C000904201D1012000E0002001466846027DB0
:1047D000002000F075FF6946097C08430490694693
:1047E0008889401C80B20390684681890089814293
:1047F000DDDB68460089281A85B2684600893618CC
:104800006846008924180520FFF72FFF00BF002D00
:1048100087D106B070BD00001FB51348007801F0C5
:104820002DF90191009011487D22D200016891423A
:1048300001D8016800E000210020019B009A511A74
:10484000834102D3052004F0DBFF00221346064813
:10485000007801F053F9012000F03CFAFF2001300C
:1048600000F082FA1FBD000034010020F0FB0020A0
:1048700010B5062004F0C4FF022000F02BFA01203E
:10488000400200F071FA10BD10B5072004F0B8FF27
:10489000042000F01FFA0120800200F065FA10BD2C
:1048A00010B5082004F0ACFF082000F013FA012036
:1048B000C00200F059FA10BD10B5092004F0A0FFA5
:1048C000102000F007FA0120000300F04DFA10BD9F
:1048D00010B50A2004F094FF202000F0FBF901201D
:1048E000400300F041FA10BD10B50B2004F088FF22
:1048F000402000F0EFF90120800300F035FA10BDF0
:1049000010B50120000600F063FA002805D101204F
:10491000000600F011FA00280BD0022004F070FF0E
:104920000120000400F0D6F90120000600F01CFA76
:104930002EE00120400600F04BFA002805D10120AE
:10494000400600F0F9F900280BD0022004F058FFCF
:104950000120400400F0BEF90120400600F004FAF6
:1049600016E00120800600F033FA002805D101206E
:10497000800600F0E1F900280AD0032004F040FF8F
:104980000120800400F0A6F90120800600F0ECF977
:1049900010BD000010B52A4B5B685907490F284B22
:1049A000DB695A07520F002906D0012905D00229D8
:1049B00006D003293DD10BE000BF0120C0033AE03F
:1049C0001F4B5B699C07A40F1520C004204132E0F7
:1049D0001B4BDB6908242340002B27D0194B1B6A93
:1049E0005C07640F23002CF02BFE0805080B0E114A
:1049F00014171A1D1320400517E02720000514E0A6
:104A00000520C00511E0292000050EE01520400515
:104A10000BE02B20000508E00B20800505E02D2091
:104A2000000502E01520400500BF01E0152000054B
:104A300001E0002000BF00BF0346D340184610BD70
:104A400000F0004000FF0040A52109024118024A81
:104A50001140024A1162704707FF000000FF00404A
:104A600010B5204B1B68DB075B0F1F4CE2581F4B38
:104A70001C4C23601E4B184000290BD0231403400C
:104A8000002B01D020231843164BDB6A0343154C3F
:104A9000E36223E00924A4020346A343184610233B
:104AA0000340002B05D0134B1B682024A343114C5B
:104AB000236020230340002B02D001239B031843D3
:104AC000084BDB6A8343074CE36210230340002B4F
:104AD00004D02346DB6B5B085B00E363014B1A6089
:104AE00010BD000000F00040407C03005AA500000B
:104AF000FEF7010000E0004010B50D4B1B68DB071E
:104B00005B0F0C4CE2580C4B094C23600003000B6C
:104B1000002904D023461B6B0343236304E0044BAA
:104B20001B6B8343024C2363014B1A6010BD0000D2
:104B300000F00040407C03005AA5000070B5044618
:104B400036480068C007400F35490D58354833498D
:104B50000860332034490861207808210840002883
:104B600003D160788843607003E0607808210843CF
:104B7000607060782949C86120784007400F032899
:104B800025D1207808210840002805D02348C06B93
:104B9000012108432149C86301F050FC1F48C06A45
:104BA000402188431D49C8620846C06A1021084355
:104BB0001A49C86201F042FC00BF184880692021F0
:104BC00008400028F9D083201449486018E0207874
:104BD0004007400F02280ED11048C06A2021084328
:104BE0000E49C86220780011486101F027FC82203C
:104BF0000A49486004E0207880210843074948605A
:104C0000207808210840002805D10448C06B4008DE
:104C100040000249C8630148056070BD00F00040D3
:104C2000407C03005AA5000000FF004000B5274A61
:104C300052685107490F002906D0012905D00229E1
:104C400006D003293DD10BE000BF0120C0033AE0AC
:104C50001E4A526993079B0F1520C004184132E089
:104C60001A4AD26908231A40002A27D0184A126A21
:104C70005207520F13002CF0E3FC0805080B0E112D
:104C800014171A1D1320400517E02720000514E013
:104C90000520C00511E0292000050EE01520400583
:104CA0000BE02B20000508E00B20800505E02D20FF
:104CB000000502E01520400500BF01E015200005B9
:104CC00001E0002000BF00BF00BD000000F0004078
:104CD00000FF0040072212040240110C4006400E63
:104CE000044A52688243034B5A601A4652698A4307
:104CF0005A6170470018014010B507231B04034098
:104D00001A0C4006400E002909D00A4B1B680343C9
:104D1000084C236023461B691343236108E0054BBD
:104D20001B688343034C236023461B699343236121
:104D300010BD000000180140014607200004084093
:104D4000020C084840680840002801D00120704744
:104D5000044840691040002801D00120F7E70020F6
:104D6000F5E7000000180140072212060240110C6E
:104D70007F2212021040054A52688243034B5A6058
:104D80001A4652698A435A61704700000018014070
:104D900010B507231B0603401A0C7F231B02184083
:104DA000002909D0094B1B680343084C23602346A4
:104DB0001B691343236108E0044B1B688343034CC6
:104DC000236023461B699343236110BD00180140F3
:104DD0000146072000060840020C084840680840C9
:104DE000002801D001207047044840691040002885
:104DF00001D00120F7E70020F5E70000001801408E
:104E000000200249086130BF7047000000ED00E05B
:104E100010B503680C882343036043680C88A343E0
:104E20001A464B88134343600B79002B04D1C368A7
:104E30000C88A343C36003E0C3680C882343C360AA
:104E40004B79002B04D1036A0C88A343036203E06F
:104E5000036A0C88234303628B79002B04D1436AD5
:104E60000C88A343436203E0436A0C8823434362F4
:104E700010BD02461069084070478161704741616A
:104E800070478A7810231A40002A10D002680B88D5
:104E90001A4302608A78102A04D142680B889A4328
:104EA000426014E042680B881A4342600FE00268D7
:104EB0000B889A4302608A78002A04D182680B88A2
:104EC0009A43826003E082680B881A438260CA7842
:104ED000002A04D1C2680B889A43C26003E0C2680A
:104EE0000B881A43C2600A79002A04D1026A0B882F
:104EF0009A43026203E0026A0B881A4302624A790B
:104F0000002A04D1426A0B889A43426203E0426A53
:104F10000B881A43426270470178427811438278C5
:104F20001143054A1160818882791207120F1143DB
:104F3000014A51607047000000D00040014602481D
:104F40008A008058C0B2704710D00040372800DD7A
:104F50007047024A8300D15000BFF9E710D00040EB
:104F600010B50021284B1B68DB075B0F274CE2586C
:104F7000274B254C2360274B1B68274C23401946A1
:104F800003781B071B0F194343781B07DB0E1943DC
:104F900083781B071B0E1943C3781943037A1943FF
:104FA0001C4B196000210378F02423401B11194386
:104FB00043782340DB101943837823409B10194327
:104FC000144B1962104B1A60124B5B689B099B01D2
:104FD000104C6360437A847A23430E4C6468234305
:104FE0000C4C636023469B685B095B01A360C37A3A
:104FF000047B2343074CA4682343064CA360037936
:105000001B071B0FE36110BD00F00040387C03005C
:105010005AA5000000F40040108000000249896891
:105020008143014A9160704700C00040002905D0CB
:10503000054A52680243044B5A6004E0024A52682F
:105040008243014B5A60704700C00040014604484B
:1050500080680840002801D0012070470020FCE74C
:1050600000C000400178002909D04188194A116127
:105070001146096820221143164A116005E01549BE
:10508000096820229143134A11600179002909D04F
:10509000C188104A516111460968402211430D4AE6
:1050A000116005E00B49096840229143094A1160EB
:1050B0000189094A1140074AD160114609681E2238
:1050C0009143044A116011460968827A1143014AEA
:1050D0001160704700C000403F1F000001460846B5
:1050E0000122164BDA6300BF144AD26BD207D20FEB
:1050F000002AF9D1114A126B5207520F02700F4A5F
:10510000D26A5206520E42700C4A926A1207120F6D
:1051100082700A4A526AD206D20EC270074A126AD6
:10512000D206D20E0271054AD2699206920E4271DF
:10513000024A92699206920E8271704700C0004046
:1051400010B50146174B1B68DB075B0F164CE25886
:10515000164B144C23600023154C23600B785B071F
:105160005B0F134C403C23634B785B065B0EE362A2
:105170008B781B071B0FA362CB78DB06DB0E636209
:105180000B79DB06DB0E23624B799B069B0EE361FA
:105190008B799B069B0EA3610123054C2360014B79
:1051A0001A6010BD00F00040487C03005AA50000C2
:1051B00040C0004001460448006B0840002801D070
:1051C000012070470020FCE700F400404268D1B2A3
:1051D0008268D1B27047024650680840002801D06A
:1051E000012070470020FCE710B581220B78002BCE
:1051F00003D080241346A3431A464B78012B0FDBC0
:105200004B78092B0CDC03691B091B010361036943
:105210004C7823430361036980242343036105E041
:1052200003698024A34303614B781A438B781A43A4
:10523000CB781A430B791A43074B98420AD10023C3
:10524000C414041923604B79302423408033C414E0
:1052500004192360026010BD0060014010B50346D0
:105260000C4603E008211846FFF7B0FF0821184656
:10527000FFF7B1FF0128F5D09C6000BF0821184658
:10528000FFF7A9FF0028F9D09868C0B210BD000050
:1052900010B502460E4B1B680E4C234018460E4BB1
:1052A0009B690023002B02D00C4B184301E00C4BF0
:1052B0001843084B1A40002903D0034613431846ED
:1052C00002E0034693431846014B186010BD0000EE
:1052D00000E000401F80830000F00040606D00008F
:1052E000406500000146002906D0012908D00229A6
:1052F0000AD0032910D10BE00948C06800B27047FA
:105300000748006900B2FAE70548406900B2F6E7CD
:105310000348806900B2F2E70148806A00B2EEE714
:1053200000E0004010B50C4B984202D00B4B984265
:1053300011D103685B085B0003608B884360CB88F6
:1053400083600B8943610023036101228B780C8801
:1053500023431A43026010BD0090014000A00140A9
:10536000C2698A43C261704741617047014608695A
:1053700080B27047002A03D083690B43836102E047
:1053800083698B43836170470246D06908400028D7
:1053900001D0012070470020FCE70000114B98422B
:1053A00008D0114B984205D0104B984202D0104BB8
:1053B000984216D103685B085B0003608B884360EA
:1053C000CB8883600B89436100230361C3604B7802
:1053D0009B079B0F03624B88436201220B781A43A1
:1053E0000260704700100040002000400030004084
:1053F00000400040CA434261704710B50C240C4085
:105400002346002A03D044681C43446002E04468F9
:105410009C43446010BD024650690840002801D0FA
:10542000012070470020FCE7F8B506460C46002036
:10543000306070680C21084005466079FF2803D071
:1054400010200543607905432088054360880543A3
:1054500020790543207B002801D002200543607B92
:10546000002801D0012005437560FFF7DFFB4708E6
:105470003846A168FBF782FE401EF060306B4008A2
:1054800040003063F8BD01460869C0B27047016151
:1054900070470000024989698143014A9161704760
:1054A00000F400400F4C04250126002E07D00121F6
:1054B000204613F039FAA0882843A08009E0A0888C
:1054C000A843A080A088002803D10021204613F023
:1054D0002BFA00BF2CF032FF0249886000BF00BFEA
:1054E000FEE7000000F8002000BF0146421ED0B2D7
:1054F0000029FAD1704700BFFEE7F8B507460C4611
:105500000025002606E000F0FCF869000843C5B25B
:10551000701CC6B2082EF6DB384600F00CF9002CE1
:1055200001D000F0A9F80A20FFF7DEFF2846F8BDF9
:1055300010B5012149030548FFF79BFC0446002CE8
:1055400001D0012010BD0020FCE700000012014046
:105550001CB50446012C11D10021684681706103FD
:1055600001800021C1700121017169460D48FFF7DA
:1055700088FC61030B48FFF782FC11E001216846BB
:105580008170490301800021C170012101716946C8
:105590000448FFF776FC012149030248FFF76DFC40
:1055A0001CBD00000012014010B50121890305480F
:1055B000FFF75FFC0446002C01D0012010BD002045
:1055C000FCE70000001201401CB50446012C11D17B
:1055D000002168468170A10301800021C170012172
:1055E000017169460D48FFF74CFCA1030B48FFF71A
:1055F00046FC11E001216846817089030180002189
:10560000C1700121017169460448FFF73AFC01218C
:1056100089030248FFF731FC1CBD00000012014065
:1056200010B514480078002810D00120FFF7CCFFF7
:105630000A20FFF759FF0120FFF78AFF00BFFFF79D
:1056400077FF0028FBD00A20FFF74EFFFFF7ACFFE3
:10565000002801D1FFF74FFF0020FFF7B5FF012021
:10566000FFF742FF0020FFF773FF01200149087098
:1056700010BD0000A201002010B50020FFF7A4FF1C
:105680000120FFF731FF0120FFF762FF00BFFFF7A6
:105690004FFF0028FBD00A20FFF726FF0120FFF76D
:1056A00093FF0A20FFF720FFFFF77EFF002801D1BC
:1056B000FFF721FF00200149087010BDA201002062
:1056C000F8B506460F461446002E01D0FFF7A8FF96
:1056D000002508E080212140C80900F02CF8600670
:1056E000040E681CC5B2082DF4DB0A20FFF7FCFE8F
:1056F00000F007F80090002F01D0FFF7BDFF0098E1
:10570000F8BD10B50120FFF75FFF0A20FFF7ECFEA0
:105710000120FFF71DFF00BFFFF70AFF0028FBD0A5
:105720000A20FFF7E1FEFFF73FFF04460020FFF7E6
:105730000FFF204610BD10B50446002C03D00120F9
:10574000FFF742FF02E00020FFF73EFF0A20FFF7CD
:10575000CBFE0120FFF7FCFE0A20FFF7C5FE00BFCD
:10576000FFF7E6FE0028FBD0002C05D0FFF71CFF5A
:10577000002801D1FFF7BFFE0020FFF7E9FE10BDB2
:1057800010B50120FFF762FC002816D00B48C06856
:105790003B2805DA0948C068401C0849C86009E090
:1057A000064802F073FC06480068002802D004484E
:1057B000006880470120FFF731FC10BD34710020E4
:1057C000980100201FB50446002C22D170216846A4
:1057D00001800021418001710121417169460E481B
:1057E000FFF716FB01210420FFF73AF90021684674
:1057F00001724172082181720421C1720221017378
:105800003021417302A90548FFF7EEFC012004B0E6
:1058100010BD0020FBE700000012014000B0004076
:10582000F8B507460D461646002405E0FF21384628
:1058300000F014F82855641CB442F7D3F8BDF8B54D
:1058400007460D461646002405E0295D384600F05F
:1058500005F80090641CB442F7D3F8BD70B5044657
:105860000D4600200749087007490870002C05D133
:1058700029460648FFF7F2FC034908700248007801
:1058800070BD0000A1010020A001002000B0004078
:10589000002000E0401C02498842FBDB704700000A
:1058A000FFFF0F0008B50B21684601700021417011
:1058B0000020FFF7C9F86846FFF740F908BD08B5B2
:1058C00032216846017000214170FFF737F908BDA9
:1058D00010B500240120354908704006FFF7DAFDB5
:1058E00001213348FFF750FD00285BD000BF50E096
:1058F000282060432F49085C002848D028206043B6
:1059000040188168C0680023DB4359405840014378
:1059100010D028206043274940188168C0687D2343
:105920001B010022C918504128226243214BD21882
:105930009160D060282060431E4940188169C06989
:10594000002359405840014321D028206043194981
:105950004018006A00281AD0282060434018826846
:10596000C16828206043134BC3189869DB69101A7B
:1059700099410CD30020282262430E4BD21890602C
:10598000D060282161431A468918086A8047601C44
:10599000C4B2084808380078A042A9DC01210448B4
:1059A000FFF7DEFC00200149087010BD3701002020
:1059B00000900140986F0020F8B504460D46164649
:1059C0002B4800780A284BDA002201212948FFF7EA
:1059D000D1FC00212648007828225043244A08326E
:1059E00080188160C1602348FFF7C0FC7D21090158
:1059F00048430746C017000CC0190014C1171C4AC1
:105A0000127828235A431A4B0833D2181061516177
:105A100019480078002804D1012211461548FFF7E3
:105A2000A9FC13480078282148431149083140183F
:105A30008461C5610E480078282148430C4908312B
:105A40004018066201220A48007828214843084984
:105A500008310A5406480078401C0839087001E0F3
:105A6000FF20F8BD02480078401EC0B2F9E70000F0
:105A7000906F002000900140370100207CB5044663
:105A80000020009001901B480078A0422FDD2820C4
:105A9000604318490831085C002828D0282060435A
:105AA00041188868C968019100901348FFF75EFCAF
:105AB0007D21090148430546C017000C4019001418
:105AC000C117019B009A801859410191009028202C
:105AD000604308490831401803694169009A0198F8
