:10000000185E0020E5D2010047DB0000FDB10100D1
:1000100000000000000000000000000000000000E0
:100020000000000000000000000000006BDC000089
:100030000000000000000000F3DF0000D3E6000035
:1000400033E700001F07010001B201004711010062
:10005000F7240100E7250100CB67010017680100C4
:10006000AB700100A9A6010039A70100C5A70100D6
:10007000C77A01003F7B010083980100E7A00100DF
:10008000FB990100A39E01006FA30100C3A801001A
:10009000DBA90100A3AA010027AC01007FB5010084
:1000A000BBC501000BC8010053CA0100CBCA010047
:1000B00057CB0100CFCF0100CDCE0100A7CF01006B
:1000C000704759480088704710B504005748210010
:1000D00089B204224A438158002906D0210089B2FE
:1000E00004224A43805800F001F810BDF1B5002702
:1000F0003C00009800283FD0380004004A4D200002
:10010000298880B2884237D2484E200080B204212C
:1001100041437058009988422CD100980EF001FBA1
:10012000434844490B689C4623009BB202225A4331
:10013000825A63469A1A0A602988491E29802988AA
:1001400004224A43B158220092B204235343F1508F
:10015000298802224A43815A220092B20223534341
:10016000C152298804224A43B750298802224A43AF
:10017000875201E0641CC1E7F1BDF8B5040020001E
:1001800080B20EF0CFFD002815D02749274A0B88F2
:1001900004255D435051264A0B8802255D43545384
:1001A000244B1D680E8802277743D25BAA181A6079
:1001B0000A88521C0A80F2BDF8B507000E00002420
:1001C0002500310089B238000EF0AFFA002829D09E
:1001D000002F27D025002900134A128889B29142A6
:1001E00020D212492A0092B204235343CA58BA4279
:1001F00016D12A0092B204235343C8500C492A0056
:1002000092B202235343CA5A92192B009BB2022482
:100210005C430A5307490A6833009BB2D2180A604C
:100220006D1CD8E7F2BD00000A4E0020F833002014
:10023000F83B0020F04D00200268531C0360117051
:10024000704703000020704700B50100802901D2EB
:1002500001200AE0FF2901D8022006E080204002A8
:10026000814201D2032000E0052000BD7FB50600D9
:100270000C006946300007F065FC0500002D01D038
:1002800028003AE068460078812832DB684600782A
:10029000812808D16946300007F054FC0500684603
:1002A0000078208028E068460078822805D1210067
:1002B000300007F078FC05001EE0684600788328CF
:1002C00007D102A9300007F0C5FC05000298208084
:1002D00012E068460078842807D101A9300007F0B1
:1002E0007BFC05000198208006E08120400005008D
:1002F00002E0684600782080280004B070BD70B528
:1003000006000C00802E06D23100C9B2200007F092
:10031000ECF905002DE0FF2E0DD88121200007F01B
:10032000E4F90500002824D13100C9B2200007F00B
:10033000DCF905001DE08020400286420DD28221BA
:10034000200007F0D2F90500002812D1310089B24F
:10035000200007F03DFA05000BE08421200007F0A3
:10036000C4F90500002804D13100200007F049FA43
:100370000500280070BD00B501000800C0B23A2891
:1003800009DB0800C0B25B2802DB0800573804E034
:100390000800373801E008003038C0B200BDF3B5BE
:1003A00083B004001700002630003880049800282D
:1003B00007D004980068002803D004980068FFF76D
:1003C00095FE002C01D100205DE020000DF0BCFB6B
:1003D00002900298002801D1002054E002980221E6
:1003E00010F05DFA80B2FFF7C8FE01900198002876
:1003F00002D18220400046E001980499086000255F
:10040000ED430095029886422ED0207830281BDBE1
:100410002078672818DA0098A84204D12078FFF7DE
:10042000AAFF00901DE00098A8421AD02078FFF79C
:10043000A2FF00990901084301993A888854009560
:100440003888401C38800CE00098A84209D02078F9
:10045000FFF791FF01993A88885400953888401C2D
:100460003880641C761CCDE70298022110F017FA40
:100470003988884206D0398804980068FFF79CFEC6
:1004800004990860002005B0F0BD020000208849F2
:100490007047FEB504000D00089E002701980090EB
:1004A0006846007A00280FD0019800280CD5012D4D
:1004B00002DA0020C04347E02D202070641C6D1E2E
:1004C0000198414200917F1C3000C0B2002800D04A
:1004D000761E00980A2110F0E2F900900098012899
:1004E00006DB641C3000C0B20028F2D0761EF0E7B4
:1004F00000203100C9B2611848703000C0B2002835
:100500000BD0012D02DA0020C0431DE03020207006
:10051000761E6D1E641C7F1CEFE7012D02DA0020A1
:10052000C04311E001980A2110F0B9F9303121706F
:10053000641E01980A2110F0B2F901906D1E7F1C13
:1005400001980028E9D13800FEBD00B50300002B5A
:1005500002D10020C04321E00022110018782D288C
:1005600002D1012002005B1C187800280FD01878F7
:10057000302802DB18783A2802DB0020C0430DE067
:100580000A2041431878303809185B1CECE710004A
:10059000C0B2002801D0484200E0080000BDF8B514
:1005A00084B006000F0014001D000020009002A877
:1005B00030C008380AA80078002816D0002D14DCB6
:1005C00001DB002C11D2012F02DA0020C0433FE0F2
:1005D0002D203070761C7F1E00200021001BA941B9
:1005E00004000D000098401C009002A803C80A22D5
:1005F000002310F0AEF902AA03C2083A02A803C809
:10060000002904DB01DC012801D3761CEDE7002082
:100610007070012F02DA0020C04319E02000290089
:100620000A22002310F095F930323270761E200035
:1006300029000A22002310F08CF904000D007F1E0F
:100640000098401C0090002DE3D1002CE1D10098CF
:1006500005B0F0BD10B50300002B02D115A003C8F2
:1006600023E00024220018782D2802D10120040064
:100670005B1C187800280FD01878302802DB187817
:100680003A2802DB0BA003C80FE00A204243187887
:10069000303812185B1CECE72000C0B2002802D0F2
:1006A0005042C11701E01000D11710BD000000003A
:1006B0000000F03FFFFFFFFFFFFFFFFF00210A00E8
:1006C000828001600A00C28081607047808880B2A9
:1006D000C00BC0B2704780884004400C704738B5EA
:1006E00004000D002000FFF7F1FF00282AD1002DA3
:1006F00008D12068002823D02068FFF7F7FC0020ED
:1007000020601DE0206800280CD128000421484307
:1007100080B2FFF732FD20602068002810D18220CF
:10072000400018E029000420414389B22068FFF707
:1007300043FD0100002902D1822040000BE021602E
:100740002800A0802000FFF7C6FFA84202DA82201E
:10075000400000E0002032BD38B504000D00E08804
:10076000A188884206D3A1880A312000FFF7B7FF8D
:10077000002808D12068E18804224A438550E08897
:10078000401CE080002032BD70B50400E0880028E5
:100790000CD000200500E088854207D020680421A5
:1007A00069434058FFF7A2FC6D1CF4E7A0880028BD
:1007B00004D02068FFF79AFC00202060002630005B
:1007C000A0802000FFF782FF002801D13000E080E8
:1007D000A66070BD38B50400E088002804D0206809
:1007E000FFF784FC0020206000252800A080200066
:1007F000FFF76CFF002801D12800E080A56031BD23
:1008000030B503000800DC8880B2A04202D3822009
:10081000400007E018680C00A4B204256543405965
:100820001060002030BDF8B50400A08800281DD05D
:1008300000263500E08885420FD0206804216943F6
:10084000405807003868FFF751FC7868FFF74EFC06
:100850003800FFF74BFC6D1CECE72068FFF746FC07
:1008600026603000A0803000E080A660F1BDF8B5C1
:100870000400A08800281AD000263500E0888542B0
:100880000CD0206804216943405807003868FFF7FE
:100890002DFC3800FFF72AFC6D1CEFE72068FFF7FE
:1008A00025FC26603000A0803000E080A660F1BD0D
:100FC000A2FFFFE710B504000920207001203321A3
:100FD0006054A06800280CD10C20FFF7CEF8A06068
:100FE000A068002802D18220400003E0A06806F03B
:100FF0002FFB002010BD38B504000025207E0228FC
:1010000006D1606901001031200008F088FA01E083
:101010008120400032BD70B50400207E022807D137
:10102000606901001031200008F079FA05003AE00B
:10103000207E032835D12000FFF7C4FF05000028DB
:1010400031D1A6680221300006F04FFB05000028D0
:1010500029D10221300006F048FB0500002822D1EA
:101060000F21300006F041FB050000281BD160690C
:101070002021405C0100C9B2300006F0AEFC050042
:10108000002810D11621300006F02FFB05000028A3
:1010900009D160692121415C300006F026FB050082
:1010A00001E081256D00280070BD70B50400207E30
:1010B000022801D100253AE0207E042835D1200005
:1010C000FFF780FF0500002831D1A668022130001B
:1010D00006F00BFB0500002829D10221300006F0A4
:1010E00004FB0500002822D10F21300006F0FDFA94
:1010F000050000281BD160692421405C0100C9B2B1
:10110000300006F06AFC0500002810D116213000DE
:1011100006F0EBFA0500002809D160692521415C41
:10112000300006F0E2FA050001E081256D0028009C
:1011300070BD10B50400207E022806D16069010050
:101140008431200008F01AFB46E0207E032806D1F7
:1011500060698021415E200006F09DFF3CE0207E1A
:10116000042806D160694821415C200006F067FF31
:1011700032E0207E052806D1606901004C31200054
:1011800008F0FCFA28E0207E062806D160690100FC
:101190001431200008F0F2FA1EE0207E072807D163
:1011A0006069407C0100C9B2200006F069FF13E0CD
:1011B000207E082805D16069817C200008F01CFB96
:1011C0000AE0207E092805D16069017C200006F034
:1011D0002BFF01E08120400010BDF8B588B007006A
:1011E0000024250078690190387E022842D1380019
:1011F000FFF7E8FE0400002800D0B2E0BD6802213D
:10120000280006F072FA0400002800D0A9E00221AC
:10121000280006F06AFA0400002800D0A1E00921A5
:10122000280006F062FA0400002800D099E02900A6
:101230000620FFF764F80400002800D091E0019830
:10124000006908F051FB01000622280006F0E1FBCE
:101250000400002800D084E01221280006F045FA9E
:10126000040000287DD10198818A280006F0B0FA98
:10127000040076E0387E032806D10198817D38008D
:1012800006F0D2FE04006CE0387E042867D13800F6
:10129000FFF798FE0390002801D0039862E0B86839
:1012A00000900121009806F020FA050000280DD1D9
:1012B00000990198C08BFFF722F80500002805D19E
:1012C00004A806F04BFF0500002801D0280049E0E3
:1012D00026000198C08B86423CD00221009806F07F
:1012E00004FA0500002806D10221009806F0FDF955
:1012F0000500002800D02DE002AA3000010089B2CC
:1013000001981830FFF77CFA0500002822D10299D5
:1013100004A808F0F4F9050000281BD11B20694639
:101320000874009A092104A807F0E7F90500002DC8
:1013300010D11A2069460874009A092104A807F000
:10134000DCF90500002D05D104A806F00EFF05000C
:10135000761CBEE704A806F008FF040001E0812423
:101360006400200009B0F0BDF1B586B00D00012188
:10137000280006F0BAF9040000280DD129000698CB
:10138000C088FEF7BCFF0400002805D102A806F0C3
:10139000E5FE0400002801D02000A0E00027069808
:1013A000C088874200D196E00221280006F09DF90E
:1013B000040000282ED10221280006F096F904002E
:1013C000002827D16A463800010089B20698FFF745
:1013D00017FA040000281DD11121280006F085F914
:1013E0000400002816D100980178280006F07DF945
:1013F000040000280ED10121280006F076F904002F
:10140000002807D1290000984089FEF778FF0400E2
:10141000002800D05FE00020060000984089864246
:1014200057D001AA3000010089B20098001DFFF7D3
:10143000E7F90400002849D1019902A808F0BDF994
:101440000400002842D10221280006F04EF90400D1
:1014500000283BD10321280006F047F904000028AA
:1014600034D12A00092102A807F047F90400002816
:101470002CD102A806F079FE0400002826D109210B
:10148000280006F032F9040000281FD106212800A8
:1014900006F02BF90400002818D106220198406BB1
:1014A000811D280006F0B5FA040000280ED1122193
:1014B000280006F01AF90400002807D10198018FCE
:1014C000280006F085F90400002800D001E0761C11
:1014D000A3E77F1C63E702A806F047FE200007B0E1
:1014E000F0BDFEB507000C0000260196012120008A
:1014F00006F0FBF80500002806D12100F888FEF769
:10150000FEFE0500002801D02800ABE0F8888642E6
:1015100000D1A6E00221200006F0E7F8050000282F
:1015200000D09BE00821200006F0DFF8050000282D
:1015300000D093E06A463000010089B23800FFF71E
:101540005FF90500002800D088E00921200006F09E
:10155000CCF80500002800D080E0009806F070F874
:101560000100C9B2200006F0C0F80500002875D1BE
:10157000009806F065F803009BB200220099200055
:1015800006F066FA0500002868D11121200006F057
:10159000ACF80500002861D10098017B200006F01E
:1015A000A4F80500002859D11121200006F09DF86B
:1015B0000500002852D10098417B200006F095F8E4
:1015C000050000284AD11121200006F08EF8050000
:1015D000002843D10098817B200006F086F80500A2
:1015E00000283BD11121200006F07FF805000028DB
:1015F00034D10098C17B200006F077F80500002860
:101600002CD11121200006F070F80500002825D10A
:101610000098017C200006F068F8050000281DD124
:101620001121200006F061F80500002816D100986D
:10163000417C200006F059F8050000280ED1112148
:10164000200006F052F80500002807D10098817CA0
:10165000200006F04AF80500002800D001E0761CC2
:1016600054E72800FEBDF8B586B007000E0000253F
:1016700001950121300006F038F8040000280CD153
:101680003100F888FEF73BFE0400002805D102A8CF
:1016900006F064FD0400002801D020007AE0F888FC
:1016A000854273D00221300006F01FF804000028A4
:1016B00069D10321300006F018F80400002862D137
:1016C0006A462800010089B23800FFF799F8040043
:1016D000002858D10921300006F007F8040000283E
:1016E00051D1009805F0ACFF0100C9B2300005F0FF
:1016F000FCFF0400002846D1009805F0A1FF03007C
:101700009BB200220099300006F0A2F904000028E4
:1017100039D1009801000C3102A807F0F0FF040055
:10172000002830D13200092102A806F0E6FF0400AB
:10173000002828D102A806F018FD0400002822D1B4
:101740000921300005F0D1FF040000281BD10098CA
:10175000403005F075FF0100C9B2300005F0C5FF4B
:10176000040000280FD10098403005F069FF030005
:101770009BB20022009801004031300006F068F969
:101780000400002800D001E06D1C88E702A806F0E4
:10179000ECFC200007B0F0BD70B505000C0009217D
:1017A000200005F0A2FF060000280ED12100E888E5
:1017B000FEF7A5FD0600002807D1EA882968200069
:1017C00006F027F90600002801D0300000E03000C4
:1017D00070BDF8B504002000FFF7F4FB07000028F7
:1017E00001D0380054E0A6686569207E022805D142
:1017F000310028001030FFF7CFFF49E0207E03289A
:1018000005D1310028002830FFF72DFF40E0207E71
:10181000042805D1310028003430FFF762FE37E09C
:10182000207E052805D1310028004030FFF79CFDBF
:101830002EE0207E062805D1310028001C30FFF75D
:10184000ABFF25E0207E072805D1310028004C3071
:10185000FFF709FF1CE0207E082805D13100280091
:101860006430FFF73EFE13E0207E092805D13100E9
:1018700028005830FFF778FD0AE0207E0A2805D1BD
:1018800029007031300008F0B5FE01E081204000F1
:10189000F2BDF3B583B014000221200005F025FF4E
:1018A000050000280DD10221200005F01EFF0500D3
:1018B000002806D10121200005F017FF05000028AF
:1018C00001D02800A9E0049808F0A3FC694608703C
:1018D000210068460078FEF712FD01263000C0B2F4
:1018E00069460978491C88423ED03200D2B2049938
:1018F000039809F009F8694648700221200005F0B4
:10190000F4FE050000282BD10321200005F0EDFE98
:101910000500002824D10F21200005F0E6FE050077
:1019200000281DD13100C9B2200005F0DEFE0500FF
:10193000002815D11621200005F0D7FE050000284B
:101940000ED168464178200005F0CFFE0500002842
:1019500006D10021200005F0C8FE0500002801D0B6
:1019600028005AE0761CB9E70121200005F0BDFEF1
:101970000190002801D001984FE0049808F04EFD36
:1019800069460870210068460078FEF7B8FC070039
:10199000002801D0380040E001252800C0B2694687
:1019A0000978491C884237D02A00D2B2049903989A
:1019B00009F024FD694648700221200005F095FEDB
:1019C0000700002824D10221200005F08EFE070028
:1019D00000281DD10F21200005F087FE07000028F8
:1019E00016D12900C9B2200005F07FFE07000028AB
:1019F0000ED11621200005F078FE0700002807D13F
:101A000068464178200005F070FE0700002801D0EC
:101A1000380002E06D1CC0E7002005B0F0BDF1B554
:101A200088B00F001500786903900020694608709F
:101A300005A8A6490CC90CC00839083808985221D5
:101A4000415A280005F00EFE0400002801D02000B5
:101A50003AE14820385A002800D09BE00398468B92
:101A60000398408B78640020694648806846408827
:101A70000399498B884226D001AA68464188039879
:101A8000143009F0AAFD0400002C01D020001BE155
:101A9000019800880F2810D106220198811D05A801
:101AA00009F0AEFD002803D101206946087004E06A
:101AB00001987969884200D0761E68464088401CAB
:101AC00069464880D2E768460078002800D1761C35
:101AD0000121280005F009FE0400002807D1290093
:101AE000300080B2FEF70BFC0400002801D020007B
:101AF000EAE06846007800284CD10221280005F071
:101B0000F4FD0290002839D10421280005F0EDFDF4
:101B10000290002832D11221280005F0E6FD029043
:101B200000282BD10F21280005F052FE029000283A
:101B300024D11121280005F0D8FD029000281DD1E4
:101B400003988178280005F0D0FD0290002815D177
:101B50000921280005F0C9FD029000280ED10621B8
:101B6000280005F0C2FD0290002807D1062205A931
:101B7000280005F04EFF0290002801D00298A3E053
:101B80002A0003990898FFF784FE0400002C01D076
:101B9000200099E03E6C30000399498B80B2884266
:101BA00000D187E001AA310089B20398143009F00E
:101BB00014FD0400002C01D0200085E0019800886D
:101BC0000F280FD10198796988420BD0062201981D
:101BD000811D05A809F014FD002803D0386C401CB5
:101BE000386465E0E888694608820221280005F02B
:101BF0007CFD040000283BD10421280005F075FD80
:101C00000400002834D11221280005F06EFD0400E4
:101C100000282DD101980188280005F0D9FD040085
:101C2000002825D11121280005F05FFD04000028BF
:101C30001ED101988178280005F057FD0400002886
:101C400016D10921280005F050FD040000280FD10D
:101C50000621280005F049FD0400002808D10622CD
:101C60000198811D280005F0D4FE0400002800D052
:101C700020E02A0001990898FFF70BFE0400002CD1
:101C800018D108985821405C00280ED03C20385CC0
:101C900000280AD10022290008980BF02AFF00280A
:101CA00003D082204000040004E0386C401C3864FB
:101CB000761C70E782204000844204D16846008A86
:101CC000E88000200400200009B0F0BDCCD3010062
:101CD000F1B586B00F00140000206946488078698D
:101CE0000190386C002815D101986621405A78641B
:101CF0000121200005F0F9FC0500002808D1210091
:101D000001986622805AFEF7FAFA0500002801D0F1
:101D100028005AE03E6C300001996622895A80B250
:101D2000884251D203AA310089B201986030FEF78F
:101D300067FD0500002847D10398007804900398B8
:101D40004068029002980BF0FFFE6946087002217D
:101D5000200005F0CAFC050000282ED10221200039
:101D600005F0C3FC0500002827D11121200005F053
:101D7000BCFC0500002820D10499C9B2200005F060
:101D8000B4FC0500002818D10A21200005F0ADFCA4
:101D90000500002811D1210068460078FEF7AFFA4F
:101DA0000500002809D16846027892B20299200005
:101DB00005F02FFE0500002801D0280005E0386C52
:101DC000401C3864761CA6E7002007B0F0BDF1B5D2
:101DD00088B00D0000276E69287E02280FD12800E8
:101DE000FFF7F0F80190002801D001983AE2AF68BF
:101DF0003A0029000898FFF712FE040031E2287E1D
:101E0000032837D12800FFF7DDF80190002801D022
:101E1000019827E2AF680221380005F066FC040053
:101E2000002825D10221380005F05FFC04000028BD
:101E30001ED10F21380005F058FC0400002817D1EE
:101E4000307F0100C9B2380005F04FFC04000028C3
:101E50000ED11221380005F048FC0400002807D1FB
:101E6000F18B380005F0B4FC0400002800D1F8E143
:101E70002000F7E1287E042851D12800FFF7A2F8BE
:101E80000190002801D00198ECE1AF6809213800E9
:101E900005F02BFC040000283FD10721380005F095
:101EA00024FC0400002838D12620315C380005F0DD
:101EB0001CFC0400002830D12720315C380005F0DC
:101EC00014FC0400002828D1318DC9B2380005F077
:101ED0000CFC0400002820D12A20315C380005F0D9
:101EE00004FC0400002818D12B20315C380005F0D8
:101EF000FCFB0400002810D12C20315C380005F0D8
:101F0000F4FB0400002808D12D20315C380005F0D6
:101F1000ECFB0400002800D1A3E12000A2E1287E10
:101F2000052800D09AE02800FFF74CF8019000281F
:101F300001D0019896E1AF680423002203A904A808
:101F400005F0CCFD0221380005F0CFFB040000288D
:101F500000D081E00621380005F0C7FB040000280E
:101F60007AD1316B04A805F04CFC0400002873D131
:101F70000421380005F0B9FB040000286CD13900B9
:101F80001820FEF7BCF90400002865D1032204984C
:101F9000411C380005F03DFD040000285CD104A878
:101FA00005F0B9FD0400002856D11221380005F0D3
:101FB0009CFB040000284FD1B18E380005F008FCCE
:101FC0000400002848D11221380005F08EFB0400DF
:101FD000002841D1F18E380005F0FAFB04000028FA
:101FE0003AD11121380005F080FB0400002833D1DC
:101FF0003820315C380005F078FB040000282BD134
:102000000F21380005F071FB0400002824D139208D
:10201000305C0100C9B2380005F067FB04000028FD
:102020001AD10921380005F060FB0400002813D103
:1020300039004220305AFEF762F9040000280BD123
:102040004220335A002231003C31380005F000FDB7
:102050000400002800D104E1200003E1287E0628C6
:1020600051D12800FEF7AEFF0400002800D0F8E0B0
:10207000AF680921380005F038FB0400002840D182
:102080000721380005F031FB0400002839D1482031
:10209000315C380005F029FB0400002831D14920CB
:1020A000315C380005F021FB0400002829D14A20CA
:1020B000315AC9B2380005F018FB0400002820D1BD
:1020C0004C20315C380005F010FB0400002818D1CA
:1020D0004D20315C380005F008FB0400002810D1C9
:1020E0004E20315C380005F000FB0400002808D1C8
:1020F0004F20315C380005F0F8FA0400002800D1C8
:10210000AFE02000AEE0287E07280DD12800FEF7C2
:1021100059FF0400002800D0A3E031005031A86826
:1021200008F098FA04009CE0287E082805D1317C4C
:10213000280005F079FF040093E0287E092810D1DB
:102140002800FEF73FFF0400002800D089E0F06D72
:1021500007F0CAFB06220100A86808F0A4FA0400F0
:102160007FE0287E0A280CD12800FEF72BFF040010
:10217000002876D1AA6829000898FFF7A9FD040075
:102180006FE0287E0B286AD12800FEF71BFF0400B1
:10219000002801D0200065E0AF680221380005F07A
:1021A000A4FA0190002806D10221380005F09DFA1A
:1021B0000190002801D0019854E0306F00281DD113
:1021C0001121380005F091FA0400002814D10021F3
:1021D000380005F08AFA040000280DD10A213800E1
:1021E00005F083FA0400002806D10021380005F02C
:1021F0007CFA0400002834D0200033E0306F0290D5
:1022000002980BF0A1FC694608701121380005F016
:102210006CFA0400002820D16C20315C380005F0F5
:1022200064FA0400002818D10A21380005F05DFA8C
:102230000400002811D1390068460078FEF75FF8E5
:102240000400002809D16846027892B20299380049
:1022500005F0DFFB0400002803D0200002E0812409
:102260006400200009B0F0BDF3B583B014000498F9
:1022700040691030029000273E0003985221415AD5
:10228000200005F0EFF90500002801D028009FE0AC
:1022900004984821405A002811D10298C088049916
:1022A00048640121200005F020FA21000298C0882E
:1022B000FEF725F80500002801D0280088E00498E2
:1022C000066C30000299C98880B2884277D0E088D5
:1022D000694688806A46310089B2029809F07DF922
:1022E0000500002853D10221200005F0FEF9050069
:1022F00000284CD10421200005F0F7F90500002842
:1023000045D11021200005F0F0F9050000283ED14C
:1023100000988088010009B2200005F067FB0500E5
:10232000002834D11221200005F0DFF90500002833
:102330002DD100980188200005F04AFA05000028F8
:1023400025D11121200005F0D0F9050000281ED16B
:1023500000988178200005F0C8F90500002816D102
:102360000921200005F0C1F9050000280FD1062140
:10237000200005F0BAF90500002808D106220098CF
:10238000811D200005F045FB0500002800D016E067
:1023900003985821405C00280AD0002221000398AD
:1023A0000BF0A7FB002803D082204000050006E0C8
:1023B0000498006C401C04990864761C81E7822014
:1023C0004000854203D168468088E0803D002800B7
:1023D00005B0F0BDF3B581B014000221200005F076
:1023E00084F9050000281CD10321200005F07DF9A7
:1023F0000500002815D11221200005F076F905000E
:1024000000280ED102988188200005F0E1F905002E
:10241000002806D10121200005F067F905000028F9
:1024200001D028009FE0029807F0F3FE694608708B
:10243000210068460078FDF762FF0126370038006A
:10244000C0B269460978491C88423ED03A00D2B2EF
:102450000299019808F058FA694648700221200054
:1024600005F043F9050000282BD10321200005F0D9
:102470003CF90500002824D10F21200005F035F992
:10248000050000281DD13900C9B2200005F0A5FAC9
:102490000500002815D11621200005F026F90500B9
:1024A00000280ED168464178200005F096FA050014
:1024B000002806D10021200005F017F905000028AA
:1024C00001D028004FE07F1CB9E7029807F0A6FF73
:1024D000694608700121200005F007F921006846CF
:1024E0000078FDF70CFF3000C0B269460978491C3E
:1024F000884237D03200D2B20299019808F07EFFAC
:10250000694648700221200005F0EFF80500002818
:1025100024D10321200005F0E8F8050000281DD192
:102520000F21200005F0E1F80500002816D1310048
:10253000C9B2200005F051FA050000280ED116217D
:10254000200005F0D2F80500002807D16846417840
:10255000200005F042FA0500002801D0280002E022
:10256000761CC0E70020FEBDF1B584B00F00002648
:1025700034003800FEF726FD0390002801D00398B0
:102580004CE078690190B8680090387E022806D146
:10259000009A39000498FFF767FE04003DE0387E9A
:1025A00003282AD10121009805F09FF80400002893
:1025B00033D100990198C08AFDF7A1FE04000028DC
:1025C0002BD1350028000199C98A80B2884224D0D5
:1025D00002AA290089B20198103008F0FEFF040019
:1025E000002807D1009A02990498FFF7F3FE04002F
:1025F000002800D011E06D1CE4E7387E04280AD1E1
:102600000198806907F070F906220100B86808F0A7
:102610004AF8040001E081246400200005B0F0BD08
:10262000F8B58EB007000026019678690090387ED4
:10263000022805D10098817C380005F0F5FC24E1E2
:10264000387E032800D082E03800FEF7BBFC019002
:10265000002801D0019818E1B86802900121029881
:1026600005F043F80400002813D102990098408B2C
:10267000FDF745FE040000280BD10AA805F06EFD09
:102680000400002805D106A805F068FD0400002814
:1026900001D02000F9E035000098408B854200D140
:1026A000F2E00221029805F020F80400002806D18B
:1026B0000221029805F019F80400002806D00AA8A3
:1026C00005F053FD06A805F050FDDDE004AA280042
:1026D000010089B200981430FEF792F80400002837
:1026E0000FD1049801680AA807F009F8040000282F
:1026F00007D10498416806A807F001F804000028F3
:1027000006D00AA805F031FD06A805F02EFDBBE0B5
:10271000029A09210AA805F0F0FF0400002807D159
:10272000029A092106A805F0E8FF0400002806D057
:102730000AA805F01AFD06A805F017FDA4E00AA8EE
:1027400005F013FD06A805F010FD6D1CA4E7387E0A
:10275000042807D100982021415C380005F064FC72
:10276000040091E0387E052807D100982121415CC2
:10277000380005F064FC040086E0387E062836D177
:102780003800FEF71FFC0190002801D001987CE082
:10279000BE680221300004F0A8FF0400002824D104
:1027A0000221300004F0A1FF040000281DD11121F6
:1027B000300004F09AFF0400002816D10098017C34
:1027C000300004F092FF040000280ED111213000E7
:1027D00004F08BFF0400002807D10098417C3000F2
:1027E00004F083FF040000284ED020004DE0387E26
:1027F000072846D13800FEF7E5FB0190002801D0FC
:10280000019842E0B86802900121029804F06DFF3F
:102810000400002807D102990098408DFDF76FFD54
:102820000400002801D020002FE035000098408DE2
:10283000854229D00921029804F057FF040000289E
:102840001CD103AA2800010089B200982430FDF7AA
:10285000D7FF0400002811D102990398C088FDF722
:102860004EFD0400002809D10398C288039801682E
:10287000029805F0CEF80400002800D004E06D1C9A
:10288000D4E78120400000E020000FB0F0BDF8B593
:102890008EB007000026029678690090387E0228E4
:1028A00006D10098017C380005F0BEFB0400D9E099
:1028B000387E032807D100982E21415C380005F0AE
:1028C000BEFB0400CEE0387E042806D10098818D3E
:1028D000380005F0BFFB0400C4E0387E052875D140
:1028E0003800FEF76FFB0290002801D00298BAE092
:1028F000B86801900121019804F0F7FE0400002857
:1029000013D101990098408BFDF7F9FC04000028D1
:102910000BD10AA805F022FC0400002805D106A866
:1029200005F01CFC0400002801D020009BE03500CD
:102930000098408B854200D194E00221019804F078
:10294000D4FE0400002806D10221019804F0CDFE37
:102950000400002800D085E004AA2800010089B204
:1029600000981430FDF74CFF040000281FD1049894
:1029700001680AA806F0C3FE0400002817D10498D5
:10298000416806A806F0BBFE040000280FD1019A9A
:1029900009210AA805F0B1FE0400002807D1019A18
:1029A000092106A805F0A9FE0400002806D00AA8FF
:1029B00005F0DBFB06A805F0D8FB53E00AA805F0FC
:1029C000D4FB06A805F0D1FB6D1CB1E7387E0628C4
:1029D00046D13800FEF7F6FA0290002801D002989E
:1029E00041E0B86801900121019804F07EFE0400E6
:1029F000002807D101990098C08CFDF780FC0400E5
:102A0000002801D020002EE035000098C08C8542BF
:102A100028D00921019804F068FE040000281CD188
:102A200003AA2800010089B200982030FDF7E8FED3
:102A30000400002811D101990398C088FDF75FFCBC
:102A40000400002809D10398C288039801680198FE
:102A500004F0DFFF0400002800D003E06D1CD4E781
:102A60008124640020000FB0F0BDFEB504000020FA
:102A7000019060690090207E022818D100981030E3
:102A800006F0C8FE06000F00009830214056FDF702
:102A9000FCFC02000B00300039000BF05CF80BF07E
:102AA000BBF80100200005F0E0FA050092E0207E6E
:102AB000032818D10098203006F0ACFE06000F0065
:102AC000009830214056FDF7E0FC02000B0030007A
:102AD00039000BF040F80BF09FF80100200005F0E2
:102AE000C4FA050076E0207E04283AD12000FEF7E3
:102AF00069FA0700002801D038006CE0A6680221BE
:102B0000300004F0F2FD0500002828D10221300039
:102B100004F0EBFD0500002821D10F21300004F066
:102B2000E4FD050000281AD100983021405C010026
:102B3000C9B2300004F051FF050000280FD1162162
:102B4000300004F0D2FD0500002808D100983121A2
:102B5000415C300004F0C9FD050000283AD028008F
:102B600039E0207E052807D1009801003831200087
:102B700006F0D5FC05002DE0207E062807D1009840
:102B800001004831200006F0F9FD050022E0207E1A
:102B9000072807D1009801007C31200006F0EEFDE7
:102BA000050017E0207E082807D10098B42141587D
:102BB000200005F05AFA05000CE0207E092807D114
:102BC0000098B021415A200005F044FA050001E0C8
:102BD00081256D002800FEBDF8B504000026676958
:102BE000207E02280CD12000FEF7ECF90500002819
:102BF00008D139001031A06807F02CFD050001E074
:102C000081256D002800F2BDF8B586B005000026CC
:102C10006F69287E022806D139001031280006F09D
:102C20007EFC040068E0287E032838D12800FEF7E7
:102C3000C9F90090002801D000985EE0AE6802213A
:102C4000300004F052FD0400002826D1022130009B
:102C500004F04BFD040000281FD10F21300004F0C8
:102C600044FD0400002818D12020385C0100C9B2BE
:102C7000300004F0B2FE040000280ED1162130000E
:102C800004F033FD0400002807D12120395C300016
:102C900004F02BFD040000282ED020002DE0287E1B
:102CA000042806D139005831280006F038FC040009
:102CB00022E0287E05281DD12800FEF783F9009028
:102CC000002801D0009818E0AE6802A805F046FA86
:102CD0003900243102A806F012FD0400002C05D1B1
:102CE0003200092102A805F008FD040002A805F041
:102CF0003CFA01E081246400200007B0F0BD70B50B
:102D000006000C000521200004F0EFFC050000285F
:102D100045D11121200004F0E8FC050000283ED137
:102D20003178200004F0E1FC0500002837D11121A2
:102D3000200004F0DAFC0500002830D17178200072
:102D400004F0D3FC0500002829D11121200004F053
:102D5000CCFC0500002822D1B178200004F0C5FC8D
:102D6000050000281BD11121200004F0BEFC050045
:102D7000002814D1F178200004F0B7FC05000028E9
:102D80000DD11121200004F0B0FC0500002806D16F
:102D90003179200004F0A9FC0500002801D02800AA
:102DA00000E0002070BDF8B504006769207E0228AD
:102DB0000CD12000FEF706F9050000284BD13900A0
:102DC0001031A06807F046FC050044E0207E03288F
:102DD00005D1B98B200005F03DF905003BE0207ED0
:102DE000042836D12000FEF7EDF80090002801D02D
:102DF000009831E0A6680221300004F076FC05005E
:102E0000002824D10221300004F06FFC05000028C6
:102E10001DD10221300004F068FC0500002816D105
:102E2000310038001E30FFF76AFF050000280ED180
:102E30000221300004F059FC0500002807D13100C0
:102E400038002330FFF75BFF0500002803D028007F
:102E500002E081256D002800F2BDF1B584B0049830
:102E6000406901900498007E022806D10198017CF7
:102E7000049805F0D9F8040008E10498007E0328BE
:102E800006D10198417C049805F0CEF80400FDE0DD
:102E90000498007E042807D101980100203104988D
:102EA00005F04BF90400F1E00498007E052807D1F5
:102EB000019801001431049805F03FF90400E5E0A1
:102EC0000498007E062800D0DEE00498FEF77AF829
:102ED0000600002801D03000D9E00498856801215F
:102EE000280004F002FC0400002807D12900019802
:102EF000408EFDF704FA0400002801D02000C6E04F
:102F000000260198408E864200D1BFE06A4630001C
:102F1000010089B201982C30FDF772FC04000028F2
:102F20002BD10221280004F0E0FB0400002824D16A
:102F300029000620FDF7E3F9040000281DD1162121
:102F4000280004F0D2FB0400002816D10098017874
:102F5000280004F0CAFB040000280ED11621280026
:102F600004F0C3FB0400002807D100984178280032
:102F700004F0BBFB0400002800D087E00098406804
:102F80000AF0E2FD07000921280004F0AEFB04006E
:102F9000002813D138000100C9B2280004F0A5FBB5
:102FA000040000280AD13800020092B2009841685B
:102FB000280004F02EFD0400002800D066E00098F0
:102FC00080680AF0C1FD02900921280004F08DFB01
:102FD0000400002813D102980100C9B2280004F0AF
:102FE00084FB040000280AD10298020092B20098E3
:102FF0008168280004F00DFD0400002800D045E0A1
:103000000098C0680AF0A0FD07000921280004F01C
:103010006CFB0400002813D138000100C9B228005D
:1030200004F063FB040000280AD13800020092B2C9
:103030000098C168280004F0ECFC0400002800D0CF
:1030400024E0009800690AF07FFD02900921280021
:1030500004F04BFB0400002813D102980100C9B210
:10306000280004F042FB040000280AD10298020064
:1030700092B200980169280004F0CBFC04000028FB
:1030800000D003E0761C3CE781246400200005B0FA
:10309000F0BD38B504006569207E02280CD033D31A
:1030A000042813D00DD306281AD014D3082821D011
:1030B0001BD3092823D027E0A97D200004F0B4FF0A
:1030C00024E0E97D200004F0BAFF1FE0297E200003
:1030D00004F0B5FF1AE0A98A200004F0BBFF15E058
:1030E000A98B200004F0B6FF10E0698B200004F0EB
:1030F000B1FF0BE0298A200004F0ACFF06E0698AEA
:10310000200004F0A7FF01E08120400032BD38B567
:1031100004006569207E022805D13420295C200046
:1031200004F082FF41E0207E032805D13520295C90
:10313000200004F079FF38E0207E042805D13620F5
:10314000295C200004F070FF2FE0207E052805D1C7
:103150003720295C200004F067FF26E0207E062847
:1031600005D129003831200004F0E7FF1DE0207E62
:10317000072805D129001031200004F0DEFF14E0FB
:10318000207E082805D129001C31200004F0D5FF3D
:103190000BE0207E092805D129002831200004F009
:1031A000CCFF02E081204000FFE732BDF0B585B0E2
:1031B00006000027039770690090307E02281AD11C
:1031C0003000FDF7FFFE0400002800D009E1009860
:1031D0000069002806D106228349B06807F063FA27
:1031E0000400FEE0062200980069811DB06807F027
:1031F0005AFA0400F5E0307E032806D100984169B0
:10320000300004F032FF0400EBE0307E042833D1BC
:103210003000FDF7D7FE0390002801D00398E1E0CD
:10322000B06801900121019804F05FFA04000028C1
:1032300007D101990098C08BFDF761F804000028C0
:1032400001D02000CEE03D000098C08B854200D127
:10325000C7E004AA29000098183005F02FFD0400EB
:10326000002806D10199049805F0FEF90400002811
:1032700000D0B6E06D1CE7E7307E05287CD1300039
:10328000FDF7A0FE0390002801D00398AAE0B068E3
:1032900001900121019804F028FA0400002807D1C8
:1032A00001990098C08CFDF72AF80400002801D08D
:1032B000200097E03D000098C08C854200D190E04E
:1032C00002AA2800010089B200982030FDF798FA80
:1032D000040000284DD10221019804F006FA0400F0
:1032E000002846D10321019804F0FFF904000028CA
:1032F0003FD11121019804F0F8F90400002838D1D9
:1033000002980178019804F0F0F90400002830D107
:103310001121019804F0E9F90400002829D102984C
:103320004178019804F0E1F90400002821D1092135
:10333000019804F0DAF9040000281AD10298001D5F
:1033400004F07EF90100C9B2019804F0CEF904003E
:1033500000280ED10298001D04F072F903009BB200
:1033600000220298011D019804F072FB040000285D
:1033700000D036E06D1C9EE7307E062806D100980E
:10338000C16A300004F071FE04002AE0307E072894
:1033900006D10098016B300004F067FE040020E0C5
:1033A000307E082807D100983421415C300006F0B7
:1033B00023FA040015E0307E092806D10098816BBD
:1033C000300004F052FE04000BE0307E0A2806D1E3
:1033D0000098C16B300004F048FE040001E0812435
:1033E0006400200005B0F0BDF4D3010038B504003E
:1033F0006569207E022804D1297C200004F014FE97
:103400001AE0207E032804D1697C200004F00CFE21
:1034100012E0207E042804D1A97C200004F004FEE0
:103420000AE0207E052804D1E97C200004F007FE94
:1034300002E081204000FFE732BDFEB5060000201B
:10344000029070690090307E022806D100980169D0
:10345000300004F00AFE0400E5E0307E03282AD1A3
:103460003000FDF7AFFD0500002801D02800DBE0AB
:103470000421B06804F039F90400002807D1B168CC
:103480000098408BFCF73BFF0400002801D020008F
:10349000CAE00098408B002800D1C4E00098408B1F
:1034A0000AF0E4FB020092B200984169B06804F0AF
:1034B000B0FA0400B7E0307E042806D10098C16954
:1034C000300004F0D2FD0400ADE0307E052807D1C5
:1034D00000982021415C300006F08EF90400A2E043
:1034E000307E062807D100982121415C300004F08D
:1034F0009BFD040097E0307E072800D091E030006B
:10350000FDF760FD0290002801D002988CE0B568BC
:1035100000982121405C03280FD00121280004F0ED
:10352000E4F80400002806D10021280004F0DDF8AA
:103530000400002877D0200076E00121280004F064
:10354000D4F80400002807D129000098408DFCF72A
:10355000D6FE0400002801D0200065E0002007000E
:103560000098408D87425ED001AA3800010089B2E0
:1035700000982430FDF744F9040000284ED10221C0
:10358000280004F0B2F80400002847D103212800E5
:1035900004F0ABF80400002840D10621280004F014
:1035A000A4F80400002839D101980168280004F02B
:1035B00028F90400002831D10921280004F095F8E9
:1035C000040000282AD1290001984089FCF797FEC1
:1035D0000400002822D101984289019841682800FE
:1035E00004F017FA0400002818D10921280004F07B
:1035F0007CF80400002811D129000198C08AFCF74A
:103600007EFE0400002809D10198C28A0198016950
:10361000280004F0FEF90400002800D003E07F1C1D
:103620009EE7812464002000FEBDF9B583B00F0041
:103630001400F88813214143891C89B2200004F04A
:1036400011F80500002801D02800A3E004984821C3
:10365000405A002812D1F8880499486401212000BA
:1036600004F043F80500002806D12100F888FCF793
:1036700046FE0500002801D028008BE00498066C67
:10368000F88886427CD06846E18881806A463000AE
:10369000010089B23800FDF7B3F80500002857D1C2
:1036A0000221200004F021F80500002850D1042157
:1036B000200004F01AF80500002849D1122120004A
:1036C00004F013F80500002842D100980068018832
:1036D000200004F07DF80500002839D109212000E0
:1036E00004F003F80500002832D10621200003F081
:1036F000FCFF050000282BD1062200980068811DE0
:10370000200004F086F90500002821D10F212000B7
:1037100003F0EBFF050000281AD1009840680078FC
:103720000100C9B2200004F058F9050000280FD1AB
:103730001221200003F0D9FF0500002808D10098CD
:1037400040684188200004F043F80500002800D0BC
:1037500016E003985821405C00280AD0002221007E
:1037600003980AF0C6F9002803D082204000050023
:1037700006E00498006C401C04990864761C7FE7FE
:1037800082204000854204D168468088E080002085
:103790000500280005B0F0BDF7B586B0070000258C
:1037A0000798C08885427DD003AA2900079805F0B4
:1037B00085FA0600002808D101AA00210398806834
:1037C00005F07CFA0600002800D06BE0019805F0B7
:1037D00060F96946488001AA01210398806805F0D4
:1037E0006DFA060000285DD1019880680068059098
:1037F00001AA02210398806805F060FA06000028FB
:1038000050D1019805F045F96946087001AA0321D5
:103810000398806805F052FA0600002842D101980A
:1038200005F037F9049000200400F888844237D06E
:1038300002AA2000010089B23800FCF7E1FF06006F
:10384000002801D030002EE002980068008800991E
:103850000914884222D102984068002140566946E6
:10386000097800B209B2884218D1029840684088AD
:103870000499884212D10622059902980068801D99
:1038800007F0BEFE002809D102990898FCF764FFF2
:103890000600002801D0300005E001E0641CC4E708
:1038A0006D1C7DE7002009B0F0BDFEB584B00700B7
:1038B000002630006946488030006946088035009F
:1038C0000698FCF787FF01206946888005980078F4
:1038D000022800D0A2E06846007C012818D1059893
:1038E0008068C08804287CDB02AA032105988068D0
:1038F00005F0E4F90500002806D1069A02988168CF
:103900003800FFF749FF050030006946888068E00D
:103910006846007C022864D105988068C088032826
:103920000FDB02AA02210598806805F0C7F905009F
:10393000002801D0280072E0029805F0AAF8694634
:10394000488005988068C088042810DB02AA0321FB
:103950000598806805F0B2F90500002801D028001C
:103960005DE0029805F095F86946088006E0684633
:103970004088012802D0F888694608806846408857
:10398000012803D16846008800282AD03000694603
:10399000888068460088002805D1F88869464988EB
:1039A000401A6946088068464088401E040020008E
:1039B0006946098880B2884213D003AA210089B2DF
:1039C0003800FCF71DFF0500002806D10399069872
:1039D000FCF7C2FE0500002801D028001FE0641C8F
:1039E000E5E768468088002818D034002000F98870
:1039F00080B2884212D003AA210089B23800FCF7B5
:103A0000FFFE0500002806D103990698FCF7A4FEE6
:103A10000500002800D001E0641CE7E7280007B09B
:103A2000F0BDFFB583B00C9F01AA0498010089B2D4
:103A30000398FCF7E5FE0400002801D020005DE0BB
:103A40000221380003F051FE0500002801D02800B3
:103A500054E00698C088002809D039000698C0882C
:103A6000FCF74DFC060000280BD0300046E0390082
:103A70000598C088FCF743FC0600002801D0300000
:103A80003CE0002425000598C088844235D0069883
:103A9000C08800280CD00598006804216143405874
:103AA0000699096804226A438958884223D16D1C0B
:103AB0006A462100019805F001F90290002801D022
:103AC00002981BE000980078192809D13A000921D2
:103AD000009804F012FE060000280CD030000DE023
:103AE000009A00980178380007F08EFE0600002842
:103AF00001D0300002E0641CC5E7002007B0F0BD33
:103B0000FDB586B00E000E9F00254820305A0028D3
:103B100022D10121380003F0E8FD0400002801D083
:103B200020005BE0706C00280AD03900706C326CA9
:103B3000801AFCF7E4FB050000280DD028004DE0BA
:103B40000798C08870643900706CFCF7D8FB0500DA
:103B5000002801D0280041E002A8FCF7AFFDB07EAC
:103B600002280BD102AB32002032B17E0898FFF759
:103B70009CFE0500002801D028002FE000240798B3
:103B8000C08884421DD0F88869468880009702ABBF
:103B9000089A21000798FFF744FF0500002810D17C
:103BA00006985221405A4638F98880B2884203D29A
:103BB00082204000050004E0306C401C3064641C2E
:103BC000DDE702A8FCF706FE82204000854204D112
:103BD00068468088F88000200500280009B0F0BD04
:103BE000F9B5ABB00F001400A07E002806D020204D
:103BF000205C002802D0606C00280AD02C9800902D
:103C00003B001C333A00103221002B98FFF778FF5D
:103C100080E10AA8FCF752FD0AAB22002032A17E07
:103C200038001C30FFF741FE0500002800D06AE193
:103C30000DA8FCF743FDA07E012800D0FDE0002088
:103C40006946088106A804F089FA01AA0121A06A40
:103C500005F034F80500002800D054E10198007800
:103C6000062805D1019881681DA80AF0B1FA18E06C
:103C700006AA19210198806809F0D9F905000028E1
:103C800007D00DA8FCF7A6FD06A804F06EFA2800E0
:103C900040E11DA8089934220AF0F4FC06A804F0BB
:103CA00064FA01AA0221A06A05F008F805000028BC
:103CB00001D028002EE101980078062805D101984E
:103CC000816810A80AF084FA18E006AA1921019860
:103CD000806809F0ACF90500002807D00DA8FCF7B2
:103CE00079FD06A804F041FA280013E110A808990C
:103CF00034220AF0C7FC06A804F037FA0026300088
:103D0000F98A80B288424CD004AA310089B23800C6
:103D10001030FCF775FD0500002807D101AA00212D
:103D2000049804F0CBFF0500002800D039E001988A
:103D30008068039003991DA80AF066FB0021C9431F
:103D400088422CD010A903980AF05EFB0021C943D9
:103D5000884224D068460089401C694608812C9816
:103D6000C0882B995222895A884211D2606C401C1B
:103D700060642C9800903B001C330AAA310089B281
:103D800038001030FFF74DFE0500002807D008E08E
:103D9000606C002803D0206C401C206401E0761C7D
:103DA000ADE7F88A002811D101212C9803F09DFC81
:103DB0000090002801D00098ACE02C990020FCF77E
:103DC0009EFA0500002801D02800A3E0002D00D0B5
:103DD00099E0A06803F034FC002800D093E00121B2
:103DE000A06803F082FC0090002811D1A168684609
:103DF0000089FCF784FA0090002809D12C98C28829
:103E00002C980168A06803F004FE0090002801D0FF
:103E100000987FE000202C99C8802C98C0882C99AD
:103E20000881A068C288A06801682C9803F0F1FDA1
:103E30000500002867D028006CE0A07E02285FD132
:103E400001AA0021A06A04F039FF050000285AD118
:103E5000019804F01EFE2064206C002801D101208E
:103E6000206401AA0121A06A04F028FF05000028AF
:103E700049D1019804F00DFE6064606C002801D106
:103E8000F88A6064F88A401C216C626C8918884248
:103E900001D2F88A6064206C002811D1F88A60642D
:103EA00001212C9803F021FC0500002806D12C9953
:103EB000606CFCF724FA0500002801D0280029E0F6
:103EC000206C616C88421ED204AA216C89B2380031
:103ED0001030FCF795FC050000280CD12C980090C0
:103EE0003B001C330AAA216C38001030FFF799FD03
:103EF0000500002800D006E0206C401C2064DFE7AD
:103F00008120400005000AA8FCF764FC0DA8FCF71E
:103F100061FC28002DB0F0BDF1B584B00D00062184
:103F20000026320001AC20000AF0D4FB6F69287E25
:103F300002280ED12800FDF745F80400002800D023
:103F4000EAE0AB682A0039000498FFF749FE040054
:103F5000E2E0287E03280FD12800FDF733F80400A3
:103F6000002800D0D8E02B00AA6839001C31049842
:103F7000FFF75BFB0400CFE0287E042805D1B96A77
:103F8000280004F072F80400C6E0287E052806D157
:103F90002C20395C280004F047F80400BCE0287E9F
:103FA000062800D0A4E02800FDF70CF80400002843
:103FB00001D02000B1E0AE680221300003F095FB93
:103FC0000090002806D10421300003F08EFB009001
:103FD000002801D00098A0E0386B002841D11221C0
:103FE000300003F082FB0400002838D100213000AB
:103FF00003F0EEFB0400002831D10921300003F06A
:1040000074FB040000282AD10621300003F06DFB68
:104010000400002823D1062201A9300003F0F9FC96
:10402000040000281BD10F21300003F05EFB0400C8
:10403000002814D10021300003F057FB04000028B1
:104040000DD11221300003F050FB0400002806D1EE
:104050000021300003F0BCFB040000285CD02000ED
:104060005BE01221300003F040FB040000283DD14A
:10407000386B0188300003F0ABFB0400002835D119
:104080000921300003F031FB040000282ED1062165
:10409000300003F02AFB0400002827D10622386BE9
:1040A000811D300003F0B5FC040000281ED10F2153
:1040B000300003F01AFB0400002817D13C20385CC4
:1040C0000100C9B2300003F010FB040000280DD13C
:1040D0001221300003F009FB0400002806D1F98FFB
:1040E000300003F075FB0400002815D0200014E018
:1040F000287E072805D1B96B280003F0B6FF04001D
:104100000AE0287E082805D1796B280003F0ADFF6E
:10411000040001E081246400200005B0F0BD70B50A
:10412000040000256669207E022804D1317C20002D
:1041300005F062FB12E0207E032804D1717C200090
:1041400003F072FF0AE0207E042804D1B17C200035
:1041500003F06AFF02E081204000FFE770BD00002D
:10416000F8B588B00500002700976E69287E022800
:1041700000D085E02800FCF725FF0400002801D0CE
:104180002000DEE1AF680221380003F0AEFA0090B3
:1041900000280DD10321380003F0A7FA0090002871
:1041A00006D11221380003F0A0FA0090002801D0B7
:1041B0000098C6E13069002830D10021380003F0B2
:1041C00007FB0400002824D10921380003F08DFAF0
:1041D000040000281DD10621380003F086FA0400EF
:1041E000002816D106220C49380003F012FC040006
:1041F00000280ED10F21380003F077FA04000028C0
:1042000007D10021380003F070FA0400002800D123
:1042100096E1200095E100BFF4D3010030690188E8
:10422000380003F0D5FA0400002827D1092138000E
:1042300003F05BFA0400002820D10621380003F0C7
:1042400054FA0400002819D106223069811D380073
:1042500003F0DFFB0400002810D10F21380003F029
:1042600044FA0400002809D1307D0100C9B23800A9
:1042700003F03BFA0400002800D161E1200060E176
:10428000287E032806D131001831280005F047F9AF
:10429000040055E1287E042806D131002831280089
:1042A00005F03DF904004BE1287E052806D13100D8
:1042B0003831280005F033F9040041E1287E062852
:1042C00005D1B16C280003F0D0FE040038E1287E4F
:1042D000072805D1F16C280003F0C7FE04002FE188
:1042E000287E082858D12800FCF76CFE0090002892
:1042F00001D0009825E1AF680221380003F0F5F9FC
:104300000400002800D01BE10321380003F0EDF980
:104310000400002800D013E11221380003F0E5F971
:104320000400002800D00BE15020315A380003F07F
:104330004FFA0400002800D002E104A803F00EFFA9
:104340000400002800D0FBE03100543104A805F03F
:10435000D6F90400002800D0F2E03A00092104A8B0
:1043600004F0CBF90400002800D0E9E004A803F031
:10437000FCFE0400002800D0E2E00621380003F033
:10438000B4F90400002800D0DAE088203158380061
:1043900003F037FA0400D3E0287E09283CD1280036
:1043A000FCF710FE0090002801D00098C9E0A86832
:1043B0000290029803F0AFFB040000280ED1012107
:1043C000029803F092F90400002807D10299922084
:1043D000305AFBF794FF0400002801D02000B0E021
:1043E000019701989221715A884200D1A8E003AA4E
:1043F000019930008C3004F061FC0400002806D1E3
:104400000299039804F030F90400002800D097E0E6
:104410000198401C0190E4E7287E0A2806D19420E8
:10442000315C280005F0E8F9040089E0287E0B28BB
:1044300000D083E02800FCF7C5FD0090002801D0E3
:1044400000987EE0AF680221380003F04EF90400C6
:10445000002875D10221380003F047F90400002834
:104460006ED10221380003F040F90400002867D122
:104470000221380003F039F90400002860D1092135
:10448000380003F032F90400002859D10621380021
:1044900003F02BF90400002852D19820305805F081
:1044A00023FA01000622380003F0B3FA04000028C2
:1044B00046D11221380003F018F9040000283FD13A
:1044C0009C20315A380003F083F90400002837D1CA
:1044D0000221380003F009F90400002830D102213C
:1044E000380003F002F90400002829D1092138001E
:1044F00003F0FBF80400002822D10621380003F065
:10450000F4F8040000281BD1A020305805F0ECF985
:1045100006220100380003F07CFA040000280FD1C5
:104520001221380003F0E1F80400002808D1A4208B
:10453000315A380003F04CF9040001E08124640092
:10454000200009B0F0BDFEB50500002768690090A5
:10455000287E02281AD12800FCF734FD0400002828
:1045600000D0F3E000988069002806D1062278493F
:10457000A86806F098F80400E8E006220098806930
:10458000811DA86806F08FF80400DFE0287E03286C
:104590007AD12800FCF716FD0290002801D002987D
:1045A000D5E0AF680121380003F09FF8040000282F
:1045B00007D139000098408CFBF7A1FE04000028C9
:1045C00001D02000C3E0002006000098408C864205
:1045D00000D1BBE001AA3000010089B200981C3074
:1045E000FCF70EF9040000284BD10221380003F03B
:1045F0007CF80400002844D10221380003F075F84B
:10460000040000283DD10921380003F06EF80400B1
:10461000002836D1390001980068C088FBF76FFE8A
:10462000040000282DD10198006803F009F8030068
:104630009BB2002201980168380003F009FA0400D7
:1046400000281ED10921380003F04FF8040000288B
:1046500017D1390001984068C088FBF750FE04006C
:1046600000280ED10198406802F0EAFF03009BB2D7
:10467000002201984168380003F0EAF9040000289C
:1046800000D063E0761CA0E7287E042806D10098BD
:104690000169280003F0E9FC040057E0287E0528A2
:1046A00006D10098017D280003F0C9FC04004DE00C
:1046B000287E062806D10098816A280003F0D5FCE0
:1046C000040043E0287E072806D10098818D280049
:1046D00003F0C0FC040039E0287E082807D10098C8
:1046E0002E21415C280003F0AAFC04002EE0287E65
:1046F000092807D100982F21415C280003F09FFC76
:10470000040023E0287E0A2807D100983021415C6C
:10471000280003F094FC040018E0287E0B2807D141
:1047200000983121415C280003F089FC04000DE071
:10473000287E0C2807D100983221415C280003F024
:104740007EFC040002E08120400000E02000FEBD6D
:10475000F4D30100F8B504000E0015000921200073
:1047600002F0C3FF0700002811D121002800C0B2C9
:10477000FBF7C5FD0700002809D12A00D2B292B28A
:104780003100200003F045F90700002801D038006F
:1047900000E00020F2BDF3B585B000263700069892
:1047A000406900900698007E022807D100982821D1
:1047B000415C069803F038FC0400BEE10698007ED8
:1047C00003287DD10698FCF7FDFB0390002801D05B
:1047D0000398B3E1069887680121380002F085FF4D
:1047E0000400002807D139000098C08AFBF787FD34
:1047F0000400002801D02000A0E135000098C08A04
:10480000854200D199E101AA2800010089B20098EF
:104810001030FBF7F5FF040000284ED102213800CC
:1048200002F063FF0400002847D10321380002F0A2
:104830005CFF0400002840D10921380002F055FF38
:104840000400002839D139000198C088FBF757FDD2
:104850000400002831D10198C2880198016838000D
:1048600003F0D7F80400002827D10921380002F00E
:104870003CFF0400002820D139000198408AFBF752
:104880003EFD0400002818D10198428A0198C168B1
:10489000380003F0BEF8040000280ED112213800C1
:1048A00002F023FF0400002807D10198018B380093
:1048B00002F08EFF0400002800D03EE16D1C9DE751
:1048C0000698007E042800D035E10698FCF77AFBB4
:1048D0000390002801D0039830E106988768059876
:1048E0005821405C002800D1E8E00098408C002866
:1048F00000D0E3E00121380002F0F7FE04000028B8
:1049000000D0D9E039001120FBF7F9FC04000028A1
:1049100000D0D1E002228AA13800FFF71BFF002857
:1049200001D0012400E03400002C00D0C4E00722B4
:1049300084493800FFF70EFF002801D0012400E071
:104940003400002C00D0B7E004227F493800FFF784
:1049500001FF002801D0012400E03400002C00D029
:10496000AAE00A2279493800FFF7F4FE002801D0B6
:10497000012400E03400002C00D09DE005227449A1
:104980003800FFF7E7FE002801D0012400E03400E2
:10499000002C00D090E00C226E493800FFF7DAFEC0
:1049A000002801D0012400E03400002C00D083E076
:1049B0000C2269493800FFF7CDFE002801D0012400
:1049C00000E03400002C77D1042264493800FFF75E
:1049D000C1FE002801D0012400E03400002C6BD17E
:1049E00009225F493800FFF7B5FE002801D00124F5
:1049F00000E03400002C5FD10B225A493800FFF749
:104A0000A9FE002801D0012400E03400002C53D17D
:104A10000B2255493800FFF79DFE002801D00124E4
:104A200000E03400002C47D10B2250493800FFF73A
:104A300091FE002801D0012400E03400002C3BD17D
:104A40000B224B493800FFF785FE002801D00124D6
:104A500000E03400002C2FD10E2246493800FFF729
:104A600079FE002801D0012400E03400002C23D17D
:104A70000E2241493800FFF76DFE002801D00124C5
:104A800000E03400002C17D10E223C493800FFF71B
:104A900061FE002801D0012400E03400002C0BD17D
:104AA0000E2237493800FFF755FE002801D00124B7
:104AB00000E03400002C40D020003FE0012138000D
:104AC00002F013FE0400002807D139000098408C42
:104AD000FBF715FC0400002801D020002EE0350073
:104AE0000098408C854228D002AA2800010089B293
:104AF00000981C30FBF784FE0400002818D109211F
:104B0000380002F0F2FD0400002811D139000298AB
:104B1000C088FBF7F4FB0400002809D10298C28882
:104B200002980168380002F074FF0400002800D0E9
:104B300003E06D1CD4E781246400200007B0F0BDC1
:104B40004F4B0000D4D30100DCD3010000D301009F
:104B5000E4D30100A4D10100B4D10100ECD30100E1
:104B60000CD3010018D30100C4D10100D4D101003D
:104B7000E4D10100F4D1010004D2010014D20100FB
:104B800024D20100F1B584B0002601960498406952
:104B900000900498007E02281CD10498FCF712FAB9
:104BA0000400002800D04BE10098C069002807D11C
:104BB0000622A5490498806805F075FD04003FE1D0
:104BC00006220098C069811D0498806805F06BFD7D
:104BD000040035E10498007E032862D10498FCF7B4
:104BE000F1F90190002801D001982AE10498876822
:104BF0000121380002F079FD0400002807D13900B6
:104C00000098C08CFBF77BFB0400002801D020003B
:104C100017E135000098C08C854200D110E103AA4D
:104C20002800010089B200982030FBF7E9FD04005C
:104C3000002833D10221380002F057FD040000287B
:104C40002CD10321380002F050FD0400002825D1AA
:104C50001121380002F049FD040000281ED10398FC
:104C60000178380002F041FD0400002816D111211E
:104C7000380002F03AFD040000280FD10398417873
:104C8000380002F032FD0400002807D139000398F3
:104C9000083003F0E9FC0400002800D0D0E06D1CCF
:104CA000B8E70498007E042862D10498FCF78AF9DA
:104CB0000190002801D00198C3E004988768012181
:104CC000380002F012FD0400002807D139000098D6
:104CD000C08AFBF714FB0400002801D02000B0E0DC
:104CE00035000098C08A854200D1A9E002AA2800B8
:104CF000010089B200981030FBF782FD0400002803
:104D000033D10221380002F0F0FC040000282CD13D
:104D10000321380002F0E9FC0400002825D111210C
:104D2000380002F0E2FC040000281ED1029801784D
:104D3000380002F0DAFC0400002816D111213800F6
:104D400002F0D3FC040000280FD10298417838000B
:104D500002F0CBFC0400002807D13900029808308B
:104D600003F082FC0400002800D069E06D1CB8E765
:104D70000498007E052861D10498FCF723F9070008
:104D8000002801D038005CE000982C3002F058FC7C
:104D9000002803D104980670002052E00498866829
:104DA0000221300002F0A1FC0400002844D10221BD
:104DB000300002F09AFC040000283DD109213000A7
:104DC00002F093FC0400002836D131000098408E98
:104DD000FBF795FA040000282ED100982C3002F041
:104DE0002FFC03009BB20022009801002C31300000
:104DF00002F02EFE040000281ED10921300002F02E
:104E000074FC0400002817D131000098C08FFBF714
:104E100076FA040000280FD10098383002F010FC18
:104E200003009BB20022009801003831300002F0EC
:104E30000FFE0400002803D0200002E0812464005B
:104E4000200005B0F0BD0000F4D30100F1B584B03E
:104E500000250498406900900498007E022863D1E0
:104E60000498FCF7AFF80700002801D0380020E1D3
:104E7000049885680121280002F037FC040000280E
:104E800007D129000098C08AFBF739FA04000028EE
:104E900001D020000DE1002006000098C08A864263
:104EA00000D105E102AA3000010089B2009810305B
:104EB00006F093FB0400002833D10221280002F001
:104EC00014FC040000282CD10221280002F00DFC63
:104ED0000400002825D11221280002F006FC04005D
:104EE00000281ED102980188280002F071FC0400FD
:104EF000002816D10921280002F0F7FB0400002841
:104F00000FD10621280002F0F0FB0400002808D190
:104F100006220298811D280002F07BFD0400002873
:104F200000D0C5E0761CB8E70498007E032800D0C6
:104F30008AE00498FCF746F80390002801D0039813
:104F4000B7E0049887680121380002F0CEFB040026
:104F5000002807D139000098C08BFBF7D0F9040076
:104F6000002801D02000A4E0002006000098C08B9B
:104F7000864200D19CE001AA3000010089B200986D
:104F80001830FBF73DFC040000283ED10221380018
:104F900002F0ABFB0400002837D10221380002F0F8
:104FA000A4FB0400002830D10921380002F09DFB49
:104FB0000400002829D101980068C188C9B23800CE
:104FC00002F093FB040000281FD10198006802F052
:104FD00037FB03009BB2002201980168380002F001
:104FE00037FD0400002810D10121380002F07DFBBC
:104FF0000400002809D101984068C188C9B238006E
:1050000002F073FB0400002800D051E000200500EE
:1050100001984068C088854214D01121380002F000
:1050200064FB0400002809D1019840680068415DD4
:10503000380002F05AFB0400002801D0200038E0BC
:105040006D1CE5E7761C91E70498007E04282DD1BD
:105050000498FBF7B7FF0700002801D0380028E0CC
:10506000049885680920049908700921280002F035
:105070003CFB0400002817D129000098408DFBF765
:105080003EF9040000280FD10098243002F0D8FA2D
:1050900003009BB20022009801002431280002F096
:1050A000D7FC0400002803D0200002E08124640023
:1050B000200005B0F0BDF1B584B000273C00049895
:1050C000406900900498FBF77DFF0390002801D011
:1050D000039835E1049885680498007E022829D158
:1050E0000121280002F001FB0400002800D026E185
:1050F00029000098408DFBF702F90400002800D039
:105100001DE13E000098408D864200D117E102AAC1
:1051100031000098243003F0D1FD0400002806D1AE
:105120002900029803F0A0FA0400002800D006E14C
:10513000761CE7E70498007E032857D10221280057
:1051400002F0D3FA0400002800D0F8E00321280080
:1051500002F0CBFA0400002800D0F0E01221280071
:1051600002F0C3FA0400002800D0E8E00098C0690B
:10517000002803D00098C069018800E0390089B296
:10518000280002F025FB0400002800D0D7E0092108
:10519000280002F0AAFA0400002800D0CFE029007D
:1051A0000620FBF7ACF80400002800D0C7E0009808
:1051B000C06904F099FB06220100280002F029FCD6
:1051C0000400002800D0BAE00F21280002F08DFA78
:1051D0000400002800D0B2E000982021405C0100CB
:1051E000C9B2280002F081FA0400A8E00498007E09
:1051F000042800D0A1E00121280002F076FA040082
:10520000002800D09BE029000098C08AFBF777F8BF
:105210000400002800D092E03E000098C08A864238
:1052200000D18CE00221280002F05FFA040000287F
:1052300000D07FE00221280002F057FA0400002885
:1052400078D101AA3000010089B200981030FBF734
:10525000D7FA040000286DD10221280002F045FA97
:105260000400002866D10221280002F03EFA040062
:1052700000285FD10921280002F037FA0400002835
:1052800058D10621280002F030FA0400002851D13C
:105290000198006804F028FB06220100280002F0B3
:1052A000B8FB0400002845D11221280002F01DFAA5
:1052B000040000283ED101988188280002F088FA75
:1052C0000400002836D10221280002F00EFA040062
:1052D00000282FD10221280002F007FA040000283C
:1052E00028D10921280002F000FA0400002821D169
:1052F0000621280002F0F9F9040000281AD10198CB
:10530000806804F0F1FA01000622280002F081FB17
:10531000040000280ED11221280002F0E6F9040052
:10532000002807D101988189280002F051FA040071
:10533000002800D003E0761C6FE781246400200081
:1053400005B0F0BDFEB5070078690190387E0228EF
:105350006AD13800FBF736FE0290002801D002988F
:1053600065E0BE68092038700121300002F0BDF907
:105370000400002807D131000198C08AFAF7BFFF66
:105380000400002801D0200051E000200500019811
:10539000C08A85424AD00221300002F0A6F90400FA
:1053A00000283ED10221300002F09FF904000028BD
:1053B00037D16A462800010089B201981030FBF706
:1053C0001FFA040000282CD11221300002F08DF9C0
:1053D0000400002825D100980188300002F0F8F977
:1053E000040000281DD10921300002F07EF90400DC
:1053F000002816D1310000984089FAF780FF040098
:1054000000280ED10098001D02F01AF903009BB28B
:1054100000220098011D300002F01AFB0400002851
:1054200000D003E06D1CB2E7812464002000FEBDC3
:10543000F1B588B000273D000898406901900898B0
:10544000007E022800D0FAE00898FBF7BBFD02902E
:10545000002801D00298F5E008988568012128000D
:1054600002F043F9040000280DD129000198C08AF8
:10547000FAF745FF0400002805D104A802F06EFEEB
:105480000400002801D02000DCE03E000198C08A22
:10549000864200D1D5E00221280002F026F904005E
:1054A000002800D0C5E00A21280002F01EF90400FF
:1054B000002800D0BDE06A463000010089B20198A2
:1054C0001030FBF79DF90400002800D0B1E0122154
:1054D000280002F00AF90400002800D0A9E0009892
:1054E0000188280002F074F90400002800D0A0E030
:1054F0000321280002F0F9F80400002800D098E009
:1055000000988178280002F0F0F80400002800D00C
:105510008FE00921280002F0E8F80400002800D0FC
:1055200087E00621280002F0E0F80400002800D0FF
:105530007FE00098406804F0D7F9010006222800B7
:1055400002F067FA0400002873D11221280002F04B
:10555000CCF8040000286CD100980089010089B2C1
:10556000280002F035F90400002862D100980100FB
:105570000C31280005F03EF80400002859D1122112
:10558000280002F0B2F80400002852D1009840210F
:10559000405A010089B2280002F01AF904000028DC
:1055A00047D10421280002F0A0F80400002840D1CF
:1055B00029000720FAF7A3FE0400002839D100983B
:1055C0004221415C280002F090F80400002830D10C
:1055D0000421280002F089F80400002829D12900BC
:1055E00000984A22805AFAF78AFE0400002820D147
:1055F00000984A21405A08F039FB020092B2009804
:10560000416C280002F005FA0400002811D100982E
:1056100001004C31280004F0EDFF0400002808D1FF
:10562000009801008031280004F0E4FF0400002805
:1056300003D004A802F099FD03E0761C26E781243C
:105640006400200009B0F0BDF1B584B00498406951
:1056500002900498007E022800D0DAE00498FBF75C
:10566000B1FC0390002801D00398D5E00498856828
:105670000920049908700121280002F036F804007E
:10568000002807D129000298C08AFAF738FE0400E2
:10569000002801D02000BFE0002007000298C08A47
:1056A000874200D1B7E001AA3800010089B2029810
:1056B0001030FBF7A5F8040000282CD102212800A7
:1056C00002F013F80400002825D10221280002F07E
:1056D0000CF8040000281ED11221280002F005F861
:1056E0000400002817D101980188280002F070F802
:1056F000040000280FD10121280001F0F6FF04006A
:10570000002808D101984189C9B2280001F0EDFFB5
:105710000400002800D07EE00020060001984089A7
:10572000864274D06A463000010089B20198001D9B
:10573000FBF766F80400002866D10221280001F07A
:10574000D4FF040000285FD10521280001F0CDFF1F
:105750000400002858D11621280001F0C6FF0400DB
:10576000002851D100980179280001F0BEFF040003
:10577000002849D11221280001F0B7FF04000028B9
:1057800042D100980068002801D1002102E0009871
:105790000068018889B2280002F01AF80400002885
:1057A00032D10921280001F0A0FF040000282BD1EC
:1057B0000621280001F099FF0400002824D1009858
:1057C000006804F091F801000622280002F021F997
:1057D0000400002818D10F21280001F086FF0400E2
:1057E000002811D10098007E0100C9B2280002F003
:1057F000F4F80400002807D129000098083002F0CE
:1058000033FF0400002800D001E0761C86E77F1CEF
:1058100044E781246400200005B0F0BDF8B588B0ED
:105820000700786901903800FBF7CCFB0290002854
:1058300001D0029866E0BE68387E02285FD104A8D5
:1058400002F08CFC040000280ED10121300001F090
:105850004CFF0400002807D131000198C08AFAF7F4
:105860004EFD0400002801D020004BE00020050080
:105870000198C08A854244D06A462800010089B256
:1058800001981030FAF7BCFF0400002834D102213F
:10589000300001F02AFF040000282DD10321300040
:1058A00001F023FF0400002826D11221300001F06E
:1058B0001CFF040000281FD100980188300001F06F
:1058C00087FF0400002817D10098011D300004F064
:1058D000A9FE040000280FD11121300001F005FFBE
:1058E0000400002808D100983821415C300001F004
:1058F000FCFE0400002800D003E06D1CB8E7812402
:105900006400200009B0F0BD38B504006569207E50
:10591000022804D1298A200002F09CFB25E0207E89
:10592000032808D1686903F0DFFF01000622A068A0
:1059300004F0B9FE19E0207E042804D1A98B2000D0
:1059400002F088FB11E0207E052804D1297E20008A
:1059500002F075FB09E0207E062804D1698B200047
:1059600002F078FB01E08120400032BD70B50400F8
:1059700000256669207E022805D1318A200002F0C8
:1059800069FB050013E0207E032810D0207E042848
:105990000AD13000143002F0BEF8728B7169200019
:1059A00002F08FFB050002E0812040000500280086
:1059B00070BD38B504006569207E022804D1297CB9
:1059C000200002F031FB01E08120400032BDF1B542
:1059D00088B0089847690898FBF7F4FA0690002801
:1059E00001D00698C7E0089886680898007E0228CB
:1059F00061D102A802F0B2FB050000280DD10121FF
:105A0000300001F072FE0500002806D13100F88A4E
:105A1000FAF775FC0500002801D02800ABE0002053
:105A20000400F88A844200D1A4E001AA2000010009
:105A300089B238001030FAF7E3FE0500002837D1AC
:105A40000221300001F051FE0500002830D1022172
:105A5000300001F04AFE0500002829D101980168B4
:105A600002A803F04CFE0500002821D1310002A855
:105A700002F0FAFD050000281AD102A802F075FB19
:105A80000500002814D10198416802A803F037FEF0
:105A9000050000280CD1310002A802F0E5FD050048
:105AA000002805D102A802F060FB0500002800D004
:105AB00060E0641CB5E70898007E032825D1012129
:105AC000300001F012FE0500002853D13100788C1F
:105AD000FAF715FC050000284CD100200400788C52
:105AE000844247D06A46210038001C3003F0E6F8B3
:105AF0000500002806D13100009802F0B5FD050030
:105B0000002800D036E0641CE9E70898007E0428ED
:105B10002ED10121300001F0E8FD0500002829D137
:105B20000021300001F0E1FD0500002822D1310004
:105B3000788DFAF7E4FB050000281BD10020040053
:105B4000788D844216D06A462000010089B2380060
:105B50002430FAF755FE0500002806D131000098E0
:105B600002F082FD0500002800D003E0641CE7E796
:105B700081256D00280009B0F0BDF1B588B000277F
:105B80003E000898406900900898007E022800D0E6
:105B900086E00898FBF716FA0190002801D00198DA
:105BA00084E1089886680121300001F09EFD040020
:105BB000002807D131000098C08AFAF7A0FB040042
:105BC000002801D0200071E13D000098C08A854284
:105BD00000D16AE102AA2800010089B200981030C1
:105BE000FAF70EFE0400002857D10221300001F020
:105BF0007CFD0400002850D10421300001F075FD27
:105C00000400002849D11221300001F06EFD04008B
:105C1000002842D1029800680188300001F0D8FDC8
:105C20000400002839D10921300001F05EFD040094
:105C3000002832D10621300001F057FD0400002871
:105C40002BD1062202980068811D300001F0E1FE90
:105C50000400002821D10F21300001F046FD04008E
:105C600000281AD10298406800780100C9B23000BB
:105C700001F03BFD040000280FD11221300001F09B
:105C800034FD0400002808D10298406841883000A3
:105C900001F09EFD0400002800D006E16D1C94E791
:105CA0000898007E032869D10898FBF78BF9040057
:105CB000002801D02000F9E0089886680221300011
:105CC00001F013FD070000281CD10321300001F072
:105CD0000CFD0700002815D11621300001F005FD4C
:105CE000070000280ED10098017F300001F0FDFC74
:105CF0000700002806D10921300001F0F6FC07005A
:105D0000002801D03800D1E00098006A002819D09E
:105D10000098006A07F018FF04002100C9B23000A3
:105D200001F0E3FC019000280AD12200D2B292B225
:105D30000098016A300001F06CFE019000280AD042
:105D40000198B3E00021300001F0CFFC0190002861
:105D500001D00198AAE01621300001F0C6FC040031
:105D6000002809D100982421415C300001F0BDFCDD
:105D70000400002800D198E0200097E00898007EF9
:105D800004286ED10898FBF71DF90190002801D076
:105D900001988BE0089886680121300001F0A5FC8D
:105DA000040000280DD131000098C08DFAF7A7FA41
:105DB0000400002805D104A802F0D0F9040000284E
:105DC00001D0200072E03D000098C08D85426CD06B
:105DD00002AA2800010089B200982830FAF710FDC5
:105DE0000400002837D10221300001F07EFC0400BD
:105DF000002830D10221300001F077FC0400002897
:105E000029D10298016804A803F0B8FC0400002816
:105E100021D1310004A802F027FC040000281AD187
:105E200004A802F0A2F90400002814D102984168E5
:105E300004A803F0A3FC040000280CD1310004A83E
:105E400002F012FC0400002805D104A802F08DF92C
:105E50000400002803D004A802F087F925E06D1C97
:105E6000B2E70898007E052806D10098818E089830
:105E700002F0F0F8040018E00898007E062807D128
:105E800000983621415C089802F0D9F804000CE033
:105E90000898007E072806D10098018F089802F024
:105EA000D9F8040001E081246400200009B0F0BDAD
:105EB000F1B588B008984069019000273D00089826
:105EC000007E022806D10198017C089802F0B7F8FC
:105ED000040058E10898007E032806D10198418A01
:105EE000089802F0B7F804004DE10898007E0428F5
:105EF00000D046E10898FBF765F80290002801D031
:105F0000029841E1089885680920089908700121E4
:105F1000280001F0EAFB040000280DD129000198B7
:105F2000408BFAF7ECF90400002805D104A802F030
:105F300015F90400002801D0200025E13E00019859
:105F4000408B864200D11EE16A463000010089B2D2
:105F500001981430FAF754FC0400002800D00AE13C
:105F60000221280001F0C1FB0400002800D002E15A
:105F70000E21280001F0B9FB0400002800D0FAE04F
:105F80000921280001F0B1FB0400002800D0F2E054
:105F90000098C188C9B2280001F0A7FB04000028BE
:105FA00000D0E8E0009801F04BFB03009BB2002218
:105FB0000099280001F04CFD0400002800D0DAE030
:105FC0000421280001F091FB0400002800D0D2E059
:105FD0000098418AC9B2280001F087FB040000281C
:105FE00000D0C8E00098408A07F040FE020092B25C
:105FF0000098C168280001F00CFD0400002800D0C2
:10600000B9E00F21280001F070FB0400002800D047
:10601000B1E00098017D280001F067FB0400002832
:1060200000D0A8E00F21280001F05FFB0400002849
:1060300000D0A0E00098417D280001F056FB04004C
:10604000002800D097E00F21280001F04EFB04004B
:10605000002800D08FE00098817D280001F045FBEA
:106060000400002800D086E01121280001F03DFB4B
:106070000400002800D07EE00098C17D280001F0D7
:1060800034FB0400002876D11121280001F02DFBFB
:10609000040000286FD10098017E280001F025FB44
:1060A0000400002867D11121280001F01EFB040024
:1060B000002860D10098417E280001F016FB040002
:1060C000002858D1009801001C31280004F092FAF1
:1060D000040000284FD11121280001F006FB040024
:1060E000002848D100985021415C280001F0FDFAB9
:1060F000040000283FD11121280001F0F6FA040025
:10610000002838D100985121415C280001F0EDFAB7
:10611000040000282FD11121280001F0E6FA040024
:10612000002828D100985221415C280001F0DDFAB6
:10613000040000281FD11121280001F0D6FA040024
:10614000002818D100985321415C280001F0CDFAB5
:10615000040000280FD11121280001F0C6FA040024
:10616000002808D100985421415C280001F0BDFAB4
:106170000400002803D004A801F0F7FF03E0761C18
:10618000DDE681246400200009B0F0BDF2B582B0E4
:106190000700002634000298FAF714FF0190002847
:1061A00001D00198E9E002988568092002990870F9
:1061B0000221280001F099FA0400002800D090E0A4
:1061C0000321280001F091FA0400002800D088E0A3
:1061D0000221280001F089FA0400002800D080E0A4
:1061E0000221280001F081FA0400002879D10F2152
