:10000000584E002005A400005B020000A77200000B
:1000100000000000000000000000000000000000E0
:10002000000000000000000000000000D3070000F6
:100030000000000000000000D7070000DB07000000
:1000400073080000F3090000AB720000734E00005B
:10005000D7540000AF590000CF590000275B0000C3
:10006000CF5F000079680000096900009569000011
:100070003F6500003F800000378500009778000052
:1000800077890000E78B0000FF8C0000C78D00001F
:100090005F8F0000EB910000BF9300005B980000B1
:1000A000139C0000279E000031A00000F1A1000079
:1000B0006BA20000C1A4000093A200009FA2000058
:1000C000C9B202788A4203D0401C002AF9D100202C
:1000D00070470268531C03601170704780B5002898
:1000E00001D100BF07A006490B68002B03D02222D4
:1000F0000021984701E000F067FB222002BD0000CC
:10010000483E0020636F6E73747261696E7420687C
:10011000616E646C65723A20626164206D65737310
:1001200061676500431C0178401C0942FBD1C01A7D
:100130007047030000207047C9B2521E05D30378F0
:10014000401C8B42F9D1401E7047002070470300CD
:100150000020704770B4103A03D378C9103A78C0C1
:10016000FBD2530701D318C918C001D508C908C06C
:10017000D20704D30B880380891C801C002A01D578
:100180000B78037070BC70478B0701D18307E1D0F7
:10019000124205D00B78491C0370401C521EF9D145
:1001A000704730B4012464054D00EC420BD85D006B
:1001B000EC4208D80C001C4364000443144304D2EE
:1001C000994200D1904230BC7047FCD08B42FAD1AA
:1001D0008242F8E730B4012464054D00EC420BD8AC
:1001E0005D00EC4208D80C001C4364000443144337
:1001F00004D28B4200D1824230BC7047FCD099427D
:10020000FAD19042F8E73000F4464A1805D200F0DF
:100210000FF801D580174008604700F009F8012168
:10022000C907884200D90800404260474A1812D2E4
:10023000400DC90208430121C9070843520D40215E
:100240000901521A521C06D452421F3201D4D04026
:100250007047C017704700207047FEE70100422238
:100260001201D21E004207D002D4521E0018FCD543
:10027000C10A400512058918704700000100EED53B
:100280004042F446FFF7EBFF0122D20711436047DB
:100290008B4200D1824205D98446100062468C46CA
:1002A00019006346DF184C18640D7F0D3AD0661CA8
:1002B000760537D0E61B352E34DCDB022B43DB0A18
:1002C0000C0DC9022943C912202E0DDB1700203E58
:1002D00006D01F00F741F3405F400026012A774116
:1002E000C01871410DD217E01700F741F240574096
:1002F000F3415A40B340F3405A4000268018594118
:100300000AD3A21C52050FD0C207012F7241170059
:100310004008CB0718434908641C24054208AF4134
:1003200070416141F0BC7047641C21050020F9E771
:100330006B4010E06B40ABE7F742F3D1E943F1E7E4
:100340002442EFD100200021ECE7F0B40125ED07B5
:100350000F005F40EED40C00871A9C4105D2C01BF1
:10036000A141D219634169406B40AE0ADF184C18B5
:10037000F442E1D2640D7F0DE2D0E61B362ED1DCD3
:10038000DB022B43DB0AA4460C0DC9022943C90A30
:10039000012E28DC04D1D6075208DF073A435B0858
:1003A000EF0A76429041994114D039423BD1B619B7
:1003B00040414941761C394204D1761C001849411C
:1003C0003942FAD0B9436746B74208D9A41B24057D
:1003D0002143A7E70042EAD13642E8D1A2E7E40A86
:1003E000E10700209EE7202E0BDD203E1F00F3409A
:1003F000F7415F40012A002257417E4298419141D6
:100400000BE01700F741F2405740F3415A40B34028
:10041000F3405A407E42904199410A0303D2641E40
:10042000B619404149410027641E24054208AE41E7
:1004300078416141F0BC7047F446002804D4494239
:1004400000F013F8404260474042002905D45FD0D5
:1004500000F00BF8404249426047494200F005F87D
:100460004942604703460B43E6D40022030A8B420D
:100470000BD203098B4219D243088B422ED2411A68
:1004800000D20146524110467047FF2209023FD078
:1004900012068B4205D3121209028B4201D31212AB
:1004A000090203098B4219D300E0090AC3098B42F0
:1004B00001D3CB01C01A524183098B4201D38B0176
:1004C000C01A524143098B4201D34B01C01A524119
:1004D00003098B4201D30B01C01A5241C3088B425E
:1004E00001D3CB00C01A524183088B4201D38B0049
:1004F000C01A524143088B4201D34B00C01A5241EB
:10050000884200D3401A5241CFD20146104670476C
:1005100008B500F05FF908BDF0B40E005E4001259B
:10052000ED072E40B446AE0ADF184C18F4423BD219
:10053000F74241D2640D43D07F0D38D0E41BC9028D
:10054000DB0229432B43CF0ADB0A0600B61A9F4180
:1005500004D2641EB6197F41B6185F416812800D3F
:1005600024180018844222DAE80C0021B6197F41D1
:10057000B61A9F4102D2B6185F413F1C4041494123
:10058000F4D3241C21DD2405B6197F41B61A9F41FE
:1005900005D33743C60737430026012F7041614119
:1005A00066463143F0BC7047FCD1F74205D20020CB
:1005B000C14349054908F3E704D00020C143F1E7EE
:1005C0007F0DFAD000206146ECE72442FAD1401CAE
:1005D00061410F03F6D30020E2E7F0B50E005E4064
:1005E0000125ED072E40B446AE0ADF184C18F44240
:1005F00008D2F7420ED2640D01D07F0D12D1002037
:100600006146F0BD05D1F74201D87F0D05D100202C
:10061000C143F0BDFBD1640DF9D00020C1434905B1
:1006200049088FE0E419C902DB0229432B43DB0AA6
:10063000460DC00231438E4630B487B295B27D4339
:100640002E0CADB2140C7C43A419260C24042543B3
:100650009CB27C43A419190C7943270CC919A4B284
:100660000F043C43090C000C97B247432E0CBE19F3
:100670003543ADB2170C4743360CBF19A6B2BF19AC
:100680003E043543240C3E0C36199FB24743BF1934
:10069000BCB23E0C89191F0C47437F183E043443FB
:1006A000390C704680B297B247432E0CBE193543C1
:1006B000ADB2170C4743360CBF19A6B2BF193E04A2
:1006C0003543240C3E0C36199FB24743BF19BCB2C8
:1006D0003E0C89191F0C47437F183E043443390CE4
:1006E00077463F0C90B278432E0C80190604ADB2C9
:1006F0002E43050CA0B22D18120C7A435019020C8F
:1007000080B2240CA4189AB27A431219140420431C
:10071000120C89181B0C7B43C91830BCEF0A3942F4
:1007200003D1B61940414941641E6F12BF0DE41B4D
:100730000BDBFF19BC4211DA240500274208AE4149
:100740007841614166463143F0BD641C05D1401CCF
:100750006141CF0201D34908F4E750E75DE7124257
:1007600024D0994228D970B500251B4202D00C0034
:10077000002109E00024012649186441944200D375
:10078000A41A7641F8D33100012601E0764109D25E
:10079000001864416D41A41A9D41F7D2A4185D412F
:1007A000B619F5D3300022002B0070BD1B42D8D102
:1007B00008B500F011F808BD01D19042D3D2020073
:1007C0000B0000210020704780B5012000F006F8E2
:1007D00001BDFEE77047FEE77047FEE780B500F019
:1007E00007F8024A11001820ABBEFBE72600020002
:1007F00010B500F013F802000023DB43002410685A
:10080000984203D011000220ABBE14605068984299
:1008100003D0111D0220ABBE546010BD00487047CC
:100820002400002010B50400200005F07AFE0448E2
:1008300020600449200005F07AFE200010BD00BFB2
:10084000B8A000008CA40000002101807047016066
:10085000704738B505000C002100280004F03CFE6C
:1008600031BD38B505000C002100280004F034FE2D
:1008700031BDFEE700B58A78D20610D502680B8834
:100880001A4302608A78102A04D142680B889A437E
:10089000426014E042680B881A4342600FE002682D
:1008A0000B889A4302608A78002A04D182680B88F8
:1008B0009A43826003E082680B881A438260CA7898
:1008C000002A04D1C2680B889A43C26003E0C26860
:1008D0000B881A43C2600A79002A04D1026A0B8885
:1008E0009A43026203E0026A0B881A4302624A7961
:1008F000002A04D1426A0B889A43426203E0426AAA
:100900000B881A43426200BD10B502680B881A4377
:10091000026042680B889A434B88134343600B790B
:10092000002B04D1C3680C88A343C36003E0C368F1
:100930000C882343C3604B79002B04D1036A0C88D5
:10094000A343036203E0036A0C88234303628B79A9
:10095000002B04D1436A0C88A343436203E0436A3B
:100960000C882343436210BD0A0092B24261704773
:100970000A0092B28261704700690140080080B2AB
:10098000704710B504009621890120002268526941
:10099000904710BD10B50400002005F0DEFE10BD2C
:1009A0007CB504000E00684606F054F8002005F0FF
:1009B000F2FE050007482958684606F055F8064833
:1009C00029586846001D06F04FF8684603C803C45E
:1009D000083C73BD0C0800000408000000B5006866
:1009E000002801D0012000E00020C0B200BD006856
:1009F0007047FEE738B50400002C08D006F0E4F894
:100A00006043C00A05002800451E0028FBD131BD07
:100A100000B50100481E002904D000210629F8D2A3
:100A2000491CFBE700BDF8B504008025AD00002699
:100A3000270032002900380004F092FFF1BDF7B51D
:100A400005000C0002A9002005F052FE06000298E5
:100A5000019000962700019A00993800FFF794FB57
:100A60000298FEBD02780B78002A2FD0401C491C4A
:100A70009A422BD18207F5D170B41F4CE5018A0749
:100A800026D104C808C9161B96432E4208D19A42A3
:100A9000F7D070BC12BA1BBA9A42804140417047ED
:100AA00070BC12BA1BBA100E0BD0FF21100C0842FA
:100AB00008D0100A084206D0D01A01D08041404127
:100AC00070471B0A1B0A1B0AC01A7047D01A7047CE
:100AD0000B784A78120213438A7812041343CA78B7
:100AE00012061343091D04C8161B96432E42D7D184
:0C0AF0009A42EDD0CDE7000001010101A9
:100FC000A2FFFFE741542B514953544154450D0AA8
:100FD0000000000000000000000000000000000011
:100FE0000000000000000000000000000000000001
:100FF00000000000000000000000000000000000F1
:101000002B514953544154453A20312C22544350DA
:1010100022000000000000000000000000000000AE
:1010200000000000000000000000000000000000C0
:101030000000000000000000000000005354415474
:10104000453A20495020434C4F53450000000000D2
:101050000000000000000000000000000000000090
:101060000000000000000000000000000000000080
:10107000000000000000000053544154453A205441
:10108000435020434F4E4E454354494E47000000C5
:101090000000000000000000000000000000000050
:1010A0000000000000000000000000000000000040
:1010B000000000002B514953544154453A20312C33
:1010C00022544350222C22302E302E302E30222C0F
:1010D0000000000000000000000000000000000010
:1010E0000000000000000000000000000000000000
:1010F00041542B51494F50454E3D322C312C2254F6
:101100004350204C495354454E45522200000000A4
:1011100000000000000000000000000000000000CF
:1011200000000000000000000000000054435020B8
:10113000494E434F4D494E4700000000000000005B
:10114000000000000000000000000000000000009F
:10115000000000000000000000000000000000008F
:1011600000000000000000000D0A4F4B0D0A0000B7
:10117000000000000000000000000000000000006F
:10118000000000000000000000000000000000005F
:10119000000000000000000000000000000000004F
:1011A000000000000000000000000000000000003F
:1011B000000000000000000000000000000000002F
:1011C000000000000000000000000000000000001F
:1011D000000000000000000000000000000000000F
:1011E00000000000000000000000000000000000FF
:1011F00000000000000000000000000000000000EF
:1012000000000000000000000000000000000000DE
:1012100000000000000000000000000041542B51BD
:10122000494F50454E3D25642C312C222573222CEC
:10123000222573222C25642C25642C310D0A0000F4
:10124000000000000000000000000000000000009E
:1012500000000000000000002B51494F50454E3A5D
:1012600020312C30000000000000000000000000D1
:10127000000000000000000000000000000000006E
:10128000000000000000000000000000000000005E
:10129000000000000000000000000000000000004E
:1012A000000000000000000000000000000000003E
:1012B000000000000000000000000000000000002E
:1012C000000000000000000000000000000000001E
:1012D000000000000000000000000000000000000E
:1012E00000000000000000000000000000000000FE
:1012F00000000000000000000000000000000000EE
:1013000000000000000000000000000000000000DD
:1013100000000000000000000000000000000000CD
:1013200000000000000000000000000000000000BD
:1013300000000000000000000000000000000000AD
:10134000000000000000000000000000000000009D
:10135000000000000000000000000000000000008D
:10136000000000000000000000000000000000007D
:10137000000000000000000000000000000000006D
:10138000000000000000000000000000000000005D
:10139000000000000000000000000000000000004D
:1013A000000000000000000000000000000000003D
:1013B000000000000000000000000000000000002D
:1013C000000000000000000000000000000000001D
:1013D000000000000000000000000000000000000D
:1013E00000000000000000000000000000000000FD
:1013F00000000000000000000000000000000000ED
:1014000000000000000000000000000000000000DC
:1014100000000000000000000000000000000000CC
:1014200000000000000000000000000000000000BC
:1014300000000000000000000000000000000000AC
:10144000000000000000000000000000000000009C
:10145000000000000000000000000000000000008C
:10146000000000000000000000000000000000007C
:101470000000000041542B5149434C4F53453D253A
:10148000640D0A00000000000000000000000000E1
:10149000000000000000000000000000000000004C
:1014A000000000000000000000000000000000003C
:1014B000434C4F5345204F4B0000000000000000FC
:1014C000000000000000000000000000000000001C
:1014D000000000000000000000000000000000000C
:1014E00000000000000000000000000000000000FC
:1014F00000000000000000000000000000000000EC
:1015000000000000000000000000000000000000DB
:1015100000000000000000000000000000000000CB
:1015200000000000000000000000000000000000BB
:1015300000000000000000000000000000000000AB
:10154000000000000000000000000000000000009B
:10155000000000000000000000000000000000008B
:10156000000000000000000000000000000000007B
:10157000000000000000000000000000000000006B
:10158000000000000000000000000000000000005B
:10159000000000000000000000000000000000004B
:1015A000000000000000000000000000000000003B
:1015B000000000000000000000000000000000002B
:1015C000000000000000000000000000000000001B
:1015D000000000000000000000000000000000000B
:1015E00000000000000000000000000000000000FB
:1015F00000000000000000000000000000000000EB
:1016000000000000000000000000000000000000DA
:1016100000000000000000000000000000000000CA
:1016200000000000000000000000000000000000BA
:1016300000000000000000000000000000000000AA
:10164000000000000000000000000000000000009A
:10165000000000000000000000000000000000008A
:10166000000000000000000000000000000000007A
:10167000000000000000000000000000000000006A
:10168000000000000000000000000000000000005A
:10169000000000000000000000000000000000004A
:1016A000000000000000000000000000000000003A
:1016B000000000000000000000000000000000002A
:1016C00000000000000000000000000041542B5109
:1016D0004953454E443D25642C25640D0A00000005
:1016E00000000000000000000000000000000000FA
:1016F00000000000000000000000000000000000EA
:1017000000000000000000003E000000000000009B
:1017100000000000000000000000000000000000C9
:1017200000000000000000000000000000000000B9
:1017300000000000000000000000000000000000A9
:101740000000000053454E44204F4B0000000000B5
:101750000000000000000000000000000000000089
:101760000000000000000000000000000000000079
:101770000000000000000000000000000000000069
:101780000000000000000000000000000000000059
:101790000000000000000000000000000000000049
:1017A0000000000000000000000000000000000039
:1017B0000000000000000000000000000000000029
:1017C0000000000000000000000000000000000019
:1017D0000000000000000000000000000000000009
:1017E00000000000000000000000000000000000F9
:1017F00000000000000000000000000000000000E9
:1018000000000000000000000000000000000000D8
:1018100000000000000000000000000000000000C8
:1018200000000000000000000000000000000000B8
:1018300000000000000000000000000000000000A8
:101840000000000000000000000000000000000098
:101850000000000000000000000000000000000088
:101860000000000000000000000000000000000078
:101870000000000000000000000000000000000068
:101880000000000000000000000000000000000058
:101890000000000000000000000000000000000048
:1018A0000000000000000000000000000000000038
:1018B0000000000000000000000000000000000028
:1018C0000000000000000000000000000000000018
:1018D0000000000000000000000000000000000008
:1018E00000000000000000000000000000000000F8
:1018F00000000000000000000000000000000000E8
:1019000000000000000000000000000000000000D7
:1019100000000000000000000000000000000000C7
:101920000000000041542B514952443D25642C25B0
:10193000640D0A000000000000000000000000002C
:101940000000000000000000000000000000000097
:101950000000000000000000000000000000000087
:101960002B514952443A00000000000000000000E2
:101970000000000000000000000000000000000067
:101980000000000000000000000000000000000057
:1019900000000000000000000000000053494D203E
:1019A0006E6F7420696E7365727465640000000068
:1019B0000000000000000000000000000000000027
:1019C0000000000000000000000000000000000017
:1019D00000000000000000004552524F520000007D
:1019E00000000000000000000000000000000000F7
:1019F00000000000000000000000000000000000E7
:101A000000000000000000000000000000000000D6
:101A1000000000002B514952443A203000000000E1
:101A200000000000000000000000000000000000B6
:101A300000000000000000000000000000000000A6
:101A40000000000000000000000000000000000096
:101A50000000000000000000000000000000000086
:101A60000000000000000000000000000000000076
:101A70000000000000000000000000000000000066
:101A80000000000000000000000000000000000056
:101A90000000000000000000000000000000000046
:101AA0000000000000000000000000000000000036
:101AB0000000000000000000000000000000000026
:101AC0000000000000000000000000000000000016
:101AD0000000000000000000000000000000000006
:101AE00000000000000000000000000000000000F6
:101AF00000000000000000000000000000000000E6
:101B000000000000000000000000000000000000D5
:101B100000000000000000000000000000000000C5
:101B200000000000000000000000000000000000B5
:101B300000000000000000000000000000000000A5
:101B40000000000000000000000000000000000095
:101B50000000000000000000000000000000000085
:101B60000000000000000000000000000000000075
:101B700000000000000000000000000041542B4362
:101B80004D47523D300D0A000000000000000000EB
:101B90000000000000000000000000000000000045
:101BA0000000000000000000000000000000000035
:101BB00000000000000000002B434D47523A000097
:101BC0000000000000000000000000000000000015
:101BD0000000000000000000000000000000000005
:101BE00000000000000000000000000000000000F5
:101BF00000000000000000000000000000000000E5
:101DD0000000000041542B434D47443D302C340D4E
:101DE0000A000000000000000000000000000000E9
:101DF00000000000000000000000000000000000E3
:101E000000000000000000000000000000000000D2
:101E10004F4B000000000000000000000000000028
:101E200000000000000000000000000000000000B2
:101E300000000000000000000000000000000000A2
:101E40000000000000000000000000000000000092
:101E50000000000000000000000000000000000082
:101E60000000000000000000000000000000000072
:101E70000000000000000000000000000000000062
:101E80000000000000000000000000000000000052
:101E90000000000000000000000000000000000042
:101EA0000000000000000000000000000000000032
:101EB0000000000000000000000000000000000022
:101EC0000000000000000000000000000000000012
:101ED0000000000000000000000000000000000002
:101EE00000000000000000000000000000000000F2
:101EF00000000000000000000000000000000000E2
:101F000000000000000000000000000000000000D1
:101F100000000000000000000000000000000000C1
:101F200000000000000000000000000000000000B1
:101F300000000000000000000000000000000000A1
:101F40000000000000000000000000000000000091
:101F50000000000000000000000000000000000081
:101F60000000000000000000000000000000000071
:101F70000000000000000000000000000000000061
:101F80000000000000000000000000000000000051
:101F90000000000000000000000000000000000041
:101FA0000000000000000000000000000000000031
:101FB0000000000000000000000000000000000021
:101FC0000000000000000000000000000000000011
:101FD0000000000000000000000000000000000001
:101FE00000000000000000000000000000000000F1
:101FF00000000000000000000000000000000000E1
:1020000000000000000000000000000000000000D0
:1020100000000000000000000000000000000000C0
:1020200000000000000000000000000041542B43AD
:102030004D47533D222573220D0A00000000000089
:102040000000000000000000000000000000000090
:102050000000000000000000000000000000000080
:1020600000000000000000003E0000000000000032
:102070000000000000000000000000000000000060
:102080000000000000000000000000000000000050
:102090000000000000000000000000000000000040
:1020A000000000002B434D47533A000000000000A1
:1020B0000000000000000000000000000000000020
:1020C0000000000000000000000000000000000010
:1020D0000000000000000000000000000000000000
:1020E00000000000000000000000000000000000F0
:1020F00000000000000000000000000000000000E0
:1021000000000000000000000000000000000000CF
:1021100000000000000000000000000000000000BF
:1021200000000000000000000000000000000000AF
:10213000000000000000000000000000000000009F
:10214000000000000000000000000000000000008F
:10215000000000000000000000000000000000007F
:10216000000000000000000000000000000000006F
:10217000000000000000000000000000000000005F
:10218000000000000000000000000000000000004F
:10219000000000000000000000000000000000003F
:1021A000000000000000000000000000000000002F
:1021B000000000000000000000000000000000001F
:1021C000000000000000000000000000000000000F
:1021D00000000000000000000000000000000000FF
:1021E00000000000000000000000000000000000EF
:1021F00000000000000000000000000000000000DF
:1022000000000000000000000000000000000000CE
:1022100000000000000000000000000000000000BE
:1022200000000000000000000000000000000000AE
:10223000000000000000000000000000000000009E
:10224000000000000000000000000000000000008E
:10225000000000000000000000000000000000007E
:10226000000000000000000000000000000000006E
:10227000000000000000000000000000000000005E
:102280000000000041542B514E57494E464F0D0A55
:10229000000000000000000000000000000000003E
:1022A000000000000000000000000000000000002E
:1022B000000000000000000000000000000000001E
:1022C0002B514E57494E464F3A0000000000000087
:1022D00000000000000000000000000000000000FE
:1022E00000000000000000000000000000000000EE
:1022F00000000000000000000000000000000000DE
:1023000000000000000000000000000000000000CD
:1023100000000000000000000000000000000000BD
:1023200000000000000000000000000000000000AD
:10233000000000000000000000000000000000009D
:10234000000000000000000000000000000000008D
:10235000000000000000000000000000000000007D
:10236000000000000000000000000000000000006D
:10237000000000000000000000000000000000005D
:10238000000000000000000000000000000000004D
:10239000000000000000000000000000000000003D
:1023A000000000000000000000000000000000002D
:1023B000000000000000000000000000000000001D
:1023C000000000000000000000000000000000000D
:1023D00000000000000000000000000000000000FD
:1023E00000000000000000000000000000000000ED
:1023F00000000000000000000000000000000000DD
:1024000000000000000000000000000000000000CC
:1024100000000000000000000000000000000000BC
:1024200000000000000000000000000000000000AC
:10243000000000000000000000000000000000009C
:10244000000000000000000000000000000000008C
:10245000000000000000000000000000000000007C
:10246000000000000000000000000000000000006C
:10247000000000000000000000000000000000005C
:10248000000000000000000000000000000000004C
:10249000000000000000000000000000000000003C
:1024A000000000000000000000000000000000002C
:1024B000000000000000000000000000000000001C
:1024C000000000000000000000000000000000000C
:1024D00000000000000000000000000022636C6F9C
:1024E000736564220000000000000000000000008E
:1024F00000000000000000000000000000000000DC
:1025000000000000000000000000000000000000CB
:1025100000000000000000002272656376220000C7
:1025200000000000000000000000000000000000AB
:10253000000000000000000000000000000000009B
:10254000000000000000000000000000000000008B
:10255000000000002B51495552433A2022696E6316
:102560006F6D696E67222C00000000000000000003
:10257000000000000000000000000000000000005B
:10258000000000000000000000000000000000004B
:102590002B51495552433A2022706470646561633F
:1025A00074222C0000000000000000000000000069
:1025B000000000000000000000000000000000001B
:1025C0000000000000000000000000002B514955F1
:1025D00052433A2022696E636F6D696E67222C3117
:1025E0002C000000000000000000000000000000BF
:1025F00000000000000000000000000000000000DB
:1026000000000000000000002B51495552433A20C1
:1026100022696E636F6D696E67222C31312C000068
:1026200000000000000000000000000000000000AA
:10263000000000000000000000000000000000009A
:102640000000000052494E470D0A00000000000043
:10265000000000000000000000000000000000007A
:10266000000000000000000000000000000000006A
:10267000000000000000000000000000000000005A
:10268000000000000000000000000000000000004A
:10269000000000000000000000000000000000003A
:1026A000000000000000000000000000000000002A
:1026B000000000000000000000000000000000001A
:1026C000000000000000000000000000000000000A
:1026D00000000000000000000000000000000000FA
:1026E00000000000000000000000000000000000EA
:1026F00000000000000000000000000000000000DA
:1027000000000000000000000000000000000000C9
:1027100000000000000000000000000000000000B9
:1027200000000000000000000000000000000000A9
:102730000000000041542B434744434F4E543D2575
:10274000642C224950222C222573220D0A000000FD
:102750000000000000000000000000000000000079
:102760000000000000000000000000000000000069
:102770004F4B0000000000000000000000000000BF
:102780000000000000000000000000000000000049
:102790000000000000000000000000000000000039
:1027A0000000000000000000000000000000000029
:1027B0000000000000000000000000000000000019
:1027C0000000000000000000000000000000000009
:1027D00000000000000000000000000000000000F9
:1027E00000000000000000000000000000000000E9
:1027F00000000000000000000000000000000000D9
:1028000000000000000000000000000000000000C8
:1028100000000000000000000000000000000000B8
:1028200000000000000000000000000000000000A8
:102830000000000000000000000000000000000098
:102840000000000000000000000000000000000088
:102850000000000000000000000000000000000078
:102860000000000000000000000000000000000068
:102870000000000000000000000000000000000058
:102880000000000000000000000000000000000048
:102890000000000000000000000000000000000038
:1028A0000000000000000000000000000000000028
:1028B0000000000000000000000000000000000018
:1028C0000000000000000000000000000000000008
:1028D00000000000000000000000000000000000F8
:1028E00000000000000000000000000000000000E8
:1028F00000000000000000000000000000000000D8
:1029000000000000000000000000000000000000C7
:1029100000000000000000000000000000000000B7
:1029200000000000000000000000000000000000A7
:102930000000000000000000000000000000000097
:102940000000000000000000000000000000000087
:102950000000000000000000000000000000000077
:102960000000000000000000000000000000000067
:102970000000000000000000000000000000000057
:1029800000000000000000000000000041542B5136
:1029900049435347503D25642C312C222573222C6A
:1029A000222573222C222573222C310D0A000000CF
:1029B0000000000000000000000000000000000017
:1029C00000000000000000004F4B0000000000006D
:1029D00000000000000000000000000000000000F7
:1029E00000000000000000000000000000000000E7
:1029F00000000000000000000000000000000000D7
:102A000000000000000000000000000000000000C6
:102BE0000000000041542B4353510D0A0000000027
:102BF00000000000000000000000000000000000D5
:102C000000000000000000000000000000000000C4
:102C100000000000000000000000000000000000B4
:102C20000D0A2B4353513A2025642C252A640D0AA2
:102C30000D0A4F4B0D0A00000000000000000000CC
:102C40000000000000000000000000000000000084
:102C50000000000000000000000000000000000074
:102C60000000000000000000000000000000000064
:102C70000000000000000000000000000000000054
:102C80000000000000000000000000000000000044
:102C90000000000000000000000000000000000034
:102CA0000000000000000000000000000000000024
:102CB0000000000000000000000000000000000014
:102CC0000000000000000000000000000000000004
:102CD00000000000000000000000000000000000F4
:102CE00000000000000000000000000000000000E4
:102CF00000000000000000000000000000000000D4
:102D000000000000000000000000000000000000C3
:102D100000000000000000000000000000000000B3
:102D200000000000000000000000000000000000A3
:102D30000000000000000000000000000000000093
:102D40000000000000000000000000000000000083
:102D50000000000000000000000000000000000073
:102D60000000000000000000000000000000000063
:102D70000000000000000000000000000000000053
:102D80000000000000000000000000000000000043
:102D90000000000000000000000000000000000033
:102DA0000000000000000000000000000000000023
:102DB0000000000000000000000000000000000013
:102DC0000000000000000000000000000000000003
:102DD00000000000000000000000000000000000F3
:102DE00000000000000000000000000000000000E3
:102DF00000000000000000000000000000000000D3
:102E000000000000000000000000000000000000C2
:102E100000000000000000000000000000000000B2
:102E200000000000000000000000000000000000A2
:102E300000000000000000000000000041542B5181
:102E40004D4744413D2244454C20414C4C220D0A03
:102E50000000000000000000000000000000000072
:102E60000000000000000000000000000000000062
:102E700000000000000000004F4B000000000000B8
:102E80000000000000000000000000000000000042
:102E90000000000000000000000000000000000032
:102EA0000000000000000000000000000000000022
:102EB0000000000000000000000000000000000012
:103090000000000041542B514E54503D25642C2219
:1030A0002573222C25642C300D0A0000000000003E
:1030B0000000000000000000000000000000000010
:1030C0000000000000000000000000000000000000
:1030D0004F4B000000000000000000000000000056
:1030E00000000000000000000000000000000000E0
:1030F00000000000000000000000000000000000D0
:103100000000000000000000000000002B514E54A1
:10311000503A000000000000000000000000000025
:10312000000000000000000000000000000000009F
:10313000000000000000000000000000000000008F
:10314000000000000000000000000000000000007F
:10315000000000000000000000000000000000006F
:10316000000000000000000000000000000000005F
:10317000000000000000000000000000000000004F
:10318000000000000000000000000000000000003F
:10319000000000000000000000000000000000002F
:1031A000000000000000000000000000000000001F
:1031B000000000000000000000000000000000000F
:1031C00000000000000000000000000000000000FF
:1031D00000000000000000000000000000000000EF
:1031E00000000000000000000000000000000000DF
:1031F00000000000000000000000000000000000CF
:1032000000000000000000000000000000000000BE
:1032100000000000000000000000000000000000AE
:10322000000000000000000000000000000000009E
:10323000000000000000000000000000000000008E
:10324000000000000000000000000000000000007E
:10325000000000000000000000000000000000006E
:10326000000000000000000000000000000000005E
:10327000000000000000000000000000000000004E
:10328000000000000000000000000000000000003E
:10329000000000000000000000000000000000002E
:1032A000000000000000000000000000000000001E
:1032B000000000000000000000000000000000000E
:1032C00000000000000000000000000000000000FE
:1032D00000000000000000000000000000000000EE
:1032E000000000000000000000000000FDB5B2B0CA
:1032F0003A98049102A93B22885400200D9026A8F8
:10330000401C31900DE00498329A904704900028B8
:1033100001D100F02FFF0D98401C0D903398401CF8
:10332000339033980178002910D02529EBD1002063
:103330000790089009900A900B900C9000210224AD
:103340000120139008201290339D05E00D9800F0A5
:1033500013FF0800139901436D1C28782028F8D02A
:1033600023280BD02B2804D02D2804D0302808D0B7
:103370000AE02143F0E708000421ECE708000821F7
:10338000E9E708001021E6E72A280FD134980268FF
:103390001068121D349B1A600F90002804D5424219
:1033A0000F920800042101436D1C12E000200F90D1
:1033B000654A09E00F9B934205DA9E00F3185B0013
:1033C000181830380F906D1C28780300303B0A2BFA
:1033D000F0D328782E2803D00020C0430E9027E099
:1033E0006D1C28782A2808D1349800680268001DCE
:1033F000349B18600E926D1C1AE02D2802D12D22EC
:103400006D1C00E0002200200E900CE0002A09D183
:103410000E9B4D4EB34205DA9E00F3185B00181860
:1034200030380E906D1C28780300303B0A2BEDD30A
:1034300002A801872E78310041487844FF30C01C33
:10344000FCF73EFE002801D06D1C00E0002602A81B
:103450003A214654405C682804D1287868280BD16A
:10346000622005E06C2807D128786C2804D17120EF
:1034700002A93A2288546D1C17A80690287869463C
:103480000870681C3390684602781000253833D0E5
:103490001C3800D10EE2001F022800D80AE21338BF
:1034A00001D100F08BFD093800D103E2801E01D16B
:1034B00000F021FE401E01D100F0CEFD401E02288A
:1034C00000D8F7E1001F01D100F0C6FD401F00D178
:1034D00049E1401E01D100F071FD401E00D1EBE03A
:1034E000C01E10D0801E01D100F068FDC01E01D1A9
:1034F00000F064FD00F00AFE252017A9087013985B
:10350000079000F00EFE349800680468001D34999E
:1035100008600594002C00D0BAE002A83B21405C72
:10352000002800D1ADE00024E4430648784414307C
:10353000FCF7D4FD201A01D000F01CFE00F0F1FDD4
:103540007C680000B0680000CBCCCC0C641E01D0BD
:1035500000F006FE3295079D17AC002D0FD0329E6D
:10356000227802A9300000F0BFFE002802D4641CBB
:103570006D1EF5D13296002801D000F0FBFD302001
:10358000694608700A9C002C0DDD329D01236A46B5
:1035900002A9280000F0B9FE002801D000F0EAFDE1
:1035A000641EF3D13295059C089D002D0FD0329EEC
:1035B000227802A9300000F097FE002802D4641C93
:1035C0006D1EF5D13296002801D000F0D3FD3027D2
:1035D00069460F700B9C002C0DDD329D01236A465D
:1035E00002A9280000F091FE002801D000F0C2FDE1
:1035F000641EF3D13295059808994418099D002D51
:103600000FD0329E227802A9300000F06DFE002813
:1036100002D4641C6D1EF5D13296002801D000F052
:10362000A9FD684607700C9C002C0DDD329D01231E
:103630006A4602A9280000F068FE002801D000F0C8
:1036400099FD641EF3D1329502A83821405C4007F1
:1036500000D466E62020694608700198002800DC46
:103660005FE6019C329D01236A4602A9280000F012
:103670004CFE002801D000F07DFD641EF3D1329590
:103680004FE63F487844FF30C01F059000F049FDE9
:103690000E9D002D03D52000FCF744FD09E02A0013
:1036A00000212000FCF748FD002801D0001B00E0AD
:1036B0002800089000F035FD349800680268001D6D
:1036C000349908600020C0430021104002AA03C2C0
:1036D00017A80590069A3C2302A803C8002904D124
:1036E000002802D10E9C002C13D05B1E05072D0F65
:1036F0003035EEB23A2E00DB2735D55400090C07E1
:103700002043090901D1002803D0059CD518AC42FB
:10371000EBD33C20C01A0890D11805910E9988422D
:1037200008DA081A0A9002A8018FB84A0A400287EC
:1037300000F0F7FC002901D400F0F3FC02A93822C4
:10374000895C14220A40102A01D000F0EAFC0F998B
:10375000079A891A0A9A891A081A002801DC00F0C7
:10376000E0FC00F029FC02A83B21415C002909D0C3
:103770000024E4434B487844FF302B30D8E600BFA8
:10378000906600003A21405C62286AD0682819D00F
:103790006A2845D06C2806D071284FD0742831D0C3
:1037A0007A2821D06FE0349800680168001D349AAF
:1037B000106000297AD10024E4433B487844FF306C
:1037C0001738B5E6349800680168001D349A106017
:1037D000002905D10024E44333487844CA30A7E6E1
:1037E0000D98088000F09DFC349800680168001D69
:1037F000349A1060002959D10024E4432A487844BF
:10380000A63095E6349800680168001D349A10606F
:1038100000294BD10024E443234878448A3087E6CA
:10382000349800680268001D34990860002A13D19A
:103830000024E4431C4878446E3079E634980068EC
:103840000268001D34990860002A05D10024E44371
:103850001548784452306BE60D98C11703C200F04A
:1038600060FC349800680168001D349A10600029DB
:1038700005D10024E4430C4878442C3058E60D98D8
:10388000087000F04EFC349800680168001D349AFE
:10389000106000290AD10024E4430348784408302A
:1038A00046E600BF20650000346500000D98086002
:1038B00000F037FC34980368DB1D072083433498FD
:1038C000036003CB349D2B6002AB03C32023C80FDE
:1038D00004D007982D2117AB19540DE002A8008FD2
:1038E000204204D007982B2117AB195404E0C007DD
:1038F00004D5079817A90B54401C079017A80799DF
:103900004318059326AC02A803C814AD03C5684646
:1039100000782021014368468170612909D00E9802
:10392000002801D5062003E003D1672901D11398AF
:103930000E9002A803C8080041004915491C10D187
:1039400000030ED003200890613A1A2A04D251498C
:103950007944FF31413116E04F497944FF313B3121
:1039600011E002A803C8080041004915491C0FD105
:1039700000030DD103200890613A1A2A15D3474954
:103980007944FF31193103221800FCF7FDFBC8E32D
:1039900002A80CC8BAA003C81940002680277F03DC
:1039A000B94207D2002059400DE03D497944FF312A
:1039B0000F39E8E7080DB04E361810001900B24B69
:1039C0000B40AE49194302AA03C2684680786128B9
:1039D0000FD1059830210170811C05916946097845
:1039E000612901D1782100E0582141700798801C9D
:1039F000079002A803C8A2A20CCA02400B4007D13C
:103A0000002A05D10026002581E100BFEFFF00005C
:103A100068468078612800D0B9E00E98002801D56A
:103A2000212000E0401C1690169F7F1C14A803C89C
:103A300000220023FCF7B5FB02A830C802D2802088
:103A400000064540361F019626A90A7026A8461C86
:103A5000002F54DD20002900002280235B03FCF7A7
:103A6000B9FB4CD869004A0D11001C31002A19D04D
:103A7000002917DDAF4A914206DB1005290080229C
:103A800012061140014311E07F4A2A400805104305
:103A900005000DE080630000806300008463000087
:103AA0007C630000290080221206114000240D00D2
:103AB00020002900FCF7A8FB1490FF1F002F09DD50
:103AC000FCF7DCFB02000B0020002900FCF73DFCAA
:103AD00004000D00F01D0721149A002A0ADD491E7A
:103AE00008D4401E13071B0F03701211F5E7401E88
:103AF00000220270491EFAD5C61D002FAADC26A896
:103B00003199711A26AA541C169A0E00914200DDB2
:103B10001600002E34D48E4205DA411C895D082936
:103B200001DB0F2100E00021320026AB9B1801E0F1
:103B3000761E5B1E521E1D788D42F9D00F2904D1CE
:103B4000411C895C491C401C8154002A04D526ACC8
:103B5000761C0198001D0190711E11D462186846F0
:103B6000007813783033DDB23A2D02DB05003A3DA0
:103B70005B191370491E521E0029F2D56946087060
:103B80000E98002800D4C1E0701E0E90BEE014A86C
:103B900030C86D006D086949300048436849FCF73A
:103BA00061FC019007200199401A05DD0200200008
:103BB000290000F073FB0AE042420020614900F056
:103BC0006DFB02000B0020002900FCF7A5FC6A46F3
:103BD0009278662A02D1019A0A3200E006220E9BF0
:103BE0009A18142A00DD142226AB30241C705C1CA9
:103BF00002E014A803C8169A002A47DD14AB03C3D9
:103C0000169214A803C8FCF711FB3090064608343E
:103C1000042530000A21FCF728FC0F0030000A219F
:103C2000FCF723FC06003037601E077030000A21C5
:103C3000FCF71BFC0F0030000A21FCF716FC060005
:103C4000A41E303727706D1EE3D10834169808384B
:103C500016900028CDDD3098FCF700FB02000B0029
:103C600014A803C8FCF771FB0022374BFCF7B5FC26
:103C700014AA03C2C5E700BF02FCFFFF0000E03F3B
:103C8000FFFFFFFFFFFFFF7FFFFF0F803198201A2C
:103C900026A94C1C019902E0401E491E641C227892
:103CA000302AF9D0019169468978662902D10199B3
:103CB000491C06E069468978652901D1139900E01D
:103CC00000210E9A5618B04200DA461E002E1DD46E
:103CD000864204DAA05D342801DD392100E030217C
:103CE0003200601E831801E0761E5B1E521E1D7896
:103CF0008D42F9D0392902D1A15C491CA154002A76
:103D000004D50400761C0198401C0190019D684672
:103D10000078694648700E9F30B2002803DC139E7D
:103D2000054C7C4412346846807866280ED16D1CA0
:103D300026E000BFFF070000EC6000009775000060
:103D4000A08601000000F03F84D797416846807844
:103D5000672846D128B20321C943884247DBB842CD
:103D600045DA6D1C02A8008F1299C0B2084203D137
:103D700030B2B84200DA070028B23F1A00D5002757
:103D800028B2002800DDB5E00898411C08913021D8
:103D9000059A1154002F05DC02A8008F1299C0B2B9
:103DA000084205D00898411C08912E21059A11540B
:103DB00028B241428F4200DA7D422DB268420B9018
:103DC0007D1930B2854200DA2E0036B209963200F3
:103DD00021000598089BC018FCF7D6F9A81B0C9089
:103DE000D4E068464078612818D170201BE030B2DA
:103DF000B84206DA02A9098F129AC9B2114200D15B
:103E000007007F1E00D5002768464078672802D14A
:103E10006520694607E04520694604E06846407829
:103E2000412801D1502048700898411C0891217800
:103E3000059A1154611C002F05DC02A8008F129A0C
:103E4000C0B2104218D00898421C08922E22059B3E
:103E50001A54002F10DD741E20B2874200DA3C0095
:103E600022B20598089BC018FCF78EF924B2089876
:103E700000190890381B0B9005980899401869465E
:103E80004978017029B2002903D42B214170861C86
:103E900003E02D224270861C4D42002412A9280006
:103EA0000D0005E00A21FCF7DDFA2970641C6D1C89
:103EB00000B20028F6DC012C08DC6846407820219E
:103EC0000143652902D130203070761C002C09D1C5
:103ED00030203070761C07E0641E12A8005D303080
:103EE0003070761C002CF7DC059808994018301AC1
:103EF00009904BE030B229B288421DDA32B221007B
:103F00000598089BC018FCF73FF936B2089880194D
:103F100008902DB2A91B0B91002F05DC02A9098F77
:103F2000129AC9B2114205D02E21059A115409984E
:103F3000401C09900C9729E02AB221000598089BA3
:103F4000C018FCF721F928B2089909180891751BC7
:103F5000002F05DC02AA128F129BD2B21A4204D0A3
:103F60004A1C08922E22059B5A5429B28F4200DA2D
:103F70003D002AB221180598089BC018FCF704F9E7
:103F80002DB2089840190890781B0B9002A8382190
:103F9000405C14210140102900D0C2E00798089924
:103FA00040180B994018099940180C9940180F991E
:103FB000884200DBB5E0081A0A90B2E002AA3A2073
:103FC000105C622808D068280ED06A2814D06C28AB
:103FD0001DD0712810D01AE0349801680868091DB6
:103FE000349B1960C0B218E0349801680868091D54
:103FF000349B196080B210E034980368DB1D072001
:1040000083433498036003CB349C236006E03498E8
:1040100001680868091D349B1960002102AB03C3C5
:10402000108F1299C0B208425BD002A803C80029C1
:1040300001D1002855D06846007820210143782915
:104040004FD1079817A930220A54401C421C0792EE
:104050006A4612780A5444E002AA3A20105C6228A8
:1040600008D068280ED06A2814D06C281DD071287A
:1040700010D01AE0349801680868091D349B196053
:1040800040B218E0349801680868091D349B196033
:1040900000B210E034980368DB1D07208343349896
:1040A000036003CB349D2B6006E0349801680868F8
:1040B000091D349B1960C11702AB03C3002902DA42
:1040C00007982D2109E0108F204202D007982B215C
:1040D00003E0C00705D50798202117AA1154401CFA
:1040E000079017A80799401805906846017802A81C
:1040F00000F044F815E013980790349800680168C0
:10410000001D349A106017A801700AE0252017A935
:1041100008701398079068460078002801D04A700C
:1041200007940F980799401A0A99401A0899401A5B
:104130000B99401A0999401A0C99401A019002A84B
:104140003821405C400701D5FFF705FA2020694679
:1041500008700198002801DCFFF7FDF9019C329DF1
:1041600001236A4602A9280000F0CFF8002801D1F7
:10417000FFF7ECF90020C04335B0F0BDF2B586B0D2
:10418000040025696F2901D1082707E0084620218E
:104190000143782901D00A2700E010273C2603CCF0
:1041A000083C04AA03C26A46127E642A03D06A4607
:1041B000127E692A09D1002907DA04A803C800225F
:1041C0000023121A8B4104A80CC004A803C80029BC
:1041D0000DD100280BD1206B002808D1082F3BD12E
:1041E0003820205C000737D53B26302033E002948E
:1041F000009504A830C8761E0196200029003A00D8
:10420000FB17FCF7ACFA3032D0B23A2803DB684631
:10421000007E5138121800988255200029003A007B
:10422000FB17FCF79CFA04000D0001D1002C05D00F
:104230000298C068009989198842DCD3029C009DCD
:10424000082F09D13820205C000705D5A85D30284B
:1042500002D0761E3020A8553C20801BA061A919F1
:10426000E160216B884206DA081A2062208F1C491F
:104270000140218710E000290ED53821615C14220D
:104280000A40102A08D1616B6269891A226A891A68
:10429000081A002800DD206207B0F0BDF8B500263E
:1042A000104F04000D00009214E0C00707D5320043
:1042B0003B0020002900FCF790F904000D00009855
:1042C000401000903000390032003B00FCF785F9C7
:1042D00006000F0000980028E7D120002900F4BD57
:1042E000EFFF00000000244010B503000C00110097
:1042F000A0689847A060002804D0E06A401CE062F3
:10430000002010BD0020C04310BDF8B50024002BD4
:1043100011D007000E0014001D002178B068B847C6
:10432000B060002809D0F06A401CF0620020641CD4
:104330006D1EF2D104002000F2BD0020C043F9E759
:1043400080B52648FCF76EFA2548FCF77DFA01BDDA
:1043500010B5040004212000FCF779FA10BD10B557
:10436000040020A12000FCF774FA10BD10B5040071
:104370001D492000FCF76BFA10BD10B5040019A10F
:104380002000FCF76EFA10BD10B5040015A1200046
:10439000FCF767FA10BD10B5040012A12000FCF76D
:1043A00060FA10BDE0B50120694688700022CA702D
:1043B00008718020088069460C484068FCF75AFA6A
:1043C000074800F001F807BD38B50400034D280088
:1043D000FCF7D7FA2800FCF7DDFA31BD243E0020B7
:1043E000A838002000000000DB0F000000000020C3
:1043F000F0B5FFB0B2B00400BF496846FCF7D0FA90
:10440000684603C82FAA03C2083A2FA8001DFCF76C
:10441000E5FA002801D100F0DFFC00252F00642F11
:1044200023D2B54E310007A8FCF7BAFA07A803C893
:104430002DAA03C2083A2DA8001DFCF7D8FA208047
:10444000AE48FCF7E5FA310007A8FCF7A9FA07A87F
:1044500003C82BAA03C2083A2BA8001DFCF7C7FA11
:104460002188814201D07F1CD9E7A01CFCF7DBFA30
:1044700080229200A11CA048FCF7E1FA208020884D
:10448000032801D000F085FC9DA1A01CFCF7F2FAE6
:10449000002842D19B4D8026B60031006868FCF7A9
:1044A00063FA8027FF0039006868FCF75DFA402155
:1044B0006868FCF759FA80216868FCF755FA802192
:1044C00049006868FCF750FA8F48FCF7A1FA310000
:1044D0006868FCF74DFA39006868FCF749FA402132
:1044E0006868FCF745FA80216868FCF741FA80218A
:1044F00049006868FCF73CFAA01CFCF794FACC4928
:10450000A01C00F08BFCA01CFBF70CFE0200A11C01
:10451000794800F0A3FC00F05CFCC6A1A01CFCF7ED
:10452000A9FA00280CD1774D802189006868FCF732
:104530001FFA8021C9006868FCF716FA00F049FCF0
:10454000BDA1A01CFCF796FA00280CD16D4D80216E
:1045500089006868FCF708FA8021C9006868FCF7E0
:1045600007FA00F036FCB5A1A01CFCF783FA00287E
:104570000CD1644D802189006868FCF7F9F980212D
:10458000C9006868FCF7F4F900F023FCACA1A01C9A
:10459000FCF770FA002806D140215A484068FCF721
:1045A000E3F900F016FCA7A1A01CFCF763FA0028B1
:1045B00006D1402153484068FCF7DAF900F009FCC5
:1045C000A1A1A01CFCF756FA002806D180214D4875
:1045D0004068FCF7C9F900F0FCFB9CA1A01CFCF7AB
:1045E00049FA002805D1802146484068FCF7C0F907
:1045F000EFE397A1A01CFCF73DFA002806D180212B
:10460000490040484068FCF7AFF9E2E391A1A01CE3
:10461000FCF730FA002806D180214900394840686B
:10462000FCF7A6F9D5E3CFA1A01CFCF723FA0028DC
:1046300005D1402133488068FCF796F9C9E3CAA147
:10464000A01CFCF717FA002805D140212D488068EE
:10465000FCF78EF9BDE3C5A1A01CFCF70BFA0028FE
:1046600009D10121C24800F005FC202125488068BD
:10467000FCF77EF9ADE3BFA1A01CFCF7FBF9002815
:1046800004D10221BA4800F0F5FBA2E3BAA1A01CB4
:10469000FCF7F0F900281DD1A01CFCF7C4F9B74BBA
:1046A000A21CB749B24800F095FDB64DA61C2900E2
:1046B000300000F0F9FE002803D0B349A01C00F040
:1046C000ADFBA01CFBF72EFD0200A11C0A4800F068
:1046D000C5FB7EE3ADA1A01CFCF7CCF9002800D0FF
:1046E00084E0280080267600B0420FD2010071AA33
:1046F0001154401CF6E700BF243E002050C30000C8
:10470000433030000000002080841E00A01CFCF715
:104710008AF99F49A01C00F0DFFE01219D4800F0AE
:1047200015FF002859D0DF49A01C00F0D5FE33004A
:1047300071AADD49974801F0A7F8330071AADB4957
:10474000944801F0A1F8330071AAD949914801F0C9
:104750009BF80196009531AF009A0199380001F05D
:10476000FFF8330031AAD0498A4801F0A2F832009C
:1047700031A971A801F01CF900282ED101960095ED
:1047800031AF009A0199380001F0EAF8814F330007
:1047900031AAC649380001F08CF8320031A971A85D
:1047A00001F006F9002818D10196009531AD009A64
:1047B0000199280001F0D4F8330031AABC4938002F
:1047C00001F077F8320031A971A801F0F1F8002862
:1047D00003D1D8A1A01C00F07FFEA01CFBF7A2FC17
:1047E0000200A11CDA4800F039FBF2E2D9A1A01CBA
:1047F000FCF740F9002800D0CEE0D548FCF7CAF815
:104800002E00642E28D2D448FCF702F9D04968461D
:10481000FCF7C6F8684603C829AA03C2083A29A8C3
:10482000001DFCF7DBF8002816D1761CE9E700BF75
:1048300020A40000433132004331310043313000C5
:1048400043323100433230004333310043333000D0
:1048500043343100433430002E00642E23D2BC4D4B
:1048600029006846FCF79CF8684603C827AA03C2DB
:10487000083A27A8001DFCF7BAF82080B648FCF7D4
:10488000C7F829006846FCF78BF8684603C825AAD4
:1048900003C2083A25A8001DFCF7A9F82188814227
:1048A00001D0761CD9E7A01CFCF7BDF8802292004D
:1048B000A11CA748FCF7C3F820802088002800D15D
:1048C00087E2A01C01F028F90100294DC7482F18E4
:1048D0003800FBF7BCFFC6482E183900300001F045
:1048E00023F9C4482F183800FFF732FD3900300093
:1048F00001F01AF9C0482F183800FFF730FD3900D1
:10490000300001F011F9BD482F183800FFF72EFDD7
:104910003900300001F008F9B9482F18380001F0CB
:104920004FFB3900300001F0FFF8B6482F1838006F
:10493000FFF723FD3900300001F0F6F8B2482F18D8
:104940003800FFF721FD3900300001F0EDF8AF48E5
:104950002D182800FFF71FFD2900300001F0E4F8B2
:1049600037E200BF43353100433530004336310074
:104970006C180020433630005236300010270000FB
:104980002CA4000094A400009CA400005237300026
:10499000A4A300008C3600209DA1A01CFCF76AF89F
:1049A00000285ED16A48FBF7F5FF2E00642E13D273
:1049B0006948FCF72DF866496846FBF7F1FF684641
:1049C00003C823AA03C2083A23A8001DFCF706F86F
:1049D000002801D1761CE9E72E00642E23D25C4D1D
:1049E00029006846FBF7DCFF684603C821AA03C21A
:1049F000083A21A8001DFBF7FAFF20805648FCF773
:104A000007F829006846FBF7CBFF684603C81FAAD2
:104A100003C2083A1FA8001DFBF7E9FF2188814265
:104A200001D0761CD9E7A01CFBF7FDFF8022920085
:104A3000A11C4748FCF703F820802088002800D1FB
:104A4000C7E1A01C01F066F8DD4DDE496E180100DB
:104A50003000FBF7FCFE31006548281801F064F8CF
:104A6000B7E1DFA1A01CFCF705F8002876D1384893
:104A7000FBF790FF2E00642E1CD23748FBF7C8FFCF
:104A800033496846FBF78CFF684603C81DAA03C27A
:104A9000083A1DA8001DFBF7A1FF00280AD1761CCB
:104AA000E9E700BFB4A300001440020028E30900B6
:104AB000D4FE0F002E00642E23D2254D2900684617
:104AC000FBF76EFF684603C81BAA03C2083A1BA87F
:104AD000001DFBF78CFF20801F48FBF799FF290082
:104AE0006846FBF75DFF684603C819AA03C2083A87
:104AF00019A8001DFBF77BFF2188814201D0761C9D
:104B0000D9E7A01CFBF78FFF80229200A11C104860
:104B1000FBF795FF20802088002800D159E1B1499A
:104B2000A01CFBF7A7FF002806D1AF48FFF717FC32
:104B300006E000BF4F4B0000A11CAB48FBF789FE0D
:104B40009F482D4941182A4A801800F0EDFF40E1A6
:104B5000243E00205738300050C30000A3A1A01C01
:104B6000FBF788FF002800D0B8E0A148FBF712FF50
:104B70002E00642E13D29F48FBF74AFF9C4907A8DA
:104B8000FBF70EFF07A803C817AA03C2083A17A825
:104B9000001DFBF723FF002801D1761CE9E72F0059
:104BA000642F37D2924E310007A8FBF7F9FE07A811
:104BB00003C815AA03C2083A15A8001DFBF717FF82
:104BC00020808C48FBF724FF310007A8FBF7E8FEA4
:104BD00007A803C813AA03C2083A13A8001DFBF7CD
:104BE00006FF2188814215D07F1CD9E7841100007F
:104BF000980A00004C1200005012000070120000D1
:104C00007412000078120000881200009812000050
:104C100057383100A01CFBF706FF80229200A11C30
:104C20007348FBF70CFF20802088002800D1D0E0DB
:104C300001217148FBF70BFE009570A63100A01C06
:104C400001F0C6F90090009800F064FF010001A88F
:104C500001F0E4F93100002001F0BAF90090009869
:104C600000F058FF010001A801F0DAF9310000203E
:104C700001F0AEF90090009800F04CFF010001A88F
:104C800001F0D0F93100002001F0A2F90090009865
:104C900000F040FF01AD010028000C3001F0C4F924
:104CA0003100002001F094F90700380000F032FFD5
:104CB000010028000C3001F0B9F93100002001F0AA
:104CC00087F90600300000F025FF010028000C30B5
:104CD00001F0AEF901A801F0C9F97AE048A1A01CE1
:104CE000FBF7C8FE002874D1A01CFBF79CFE344DD6
:104CF0004448281801F06EFA01213F48FBF7A7FD50
:104D00000DA801F0DDF94048281801F0FBFB0C90DC
:104D10003E48281801F0F7FB0B902A48281801F0AC
:104D2000F2FB0A900DAD28000C3001F0EEFB09906B
:104D300028000C3001F0EBFB070028000C3001F0DC
:104D4000E8FB05000DA801F0E6FB06000DA801F048
:104D5000E4FB08900DA801F0E2FB0C9907910B9978
:104D600006910A9905912AA1049109990391029744
:104D700001950096089B02002649A01C00F04EF801
:104D8000A01CFBF7CFF90200A11C194800F066F83F
:104D90001FE0208800281CD01F48FBF739FE2800A0
:104DA000218880B288420FD2FF20290089B2611881
:104DB0008978401A290089B2611888706D1CEEE765
:104DC0006C180020881100002288A11C084800F0FF
:104DD00045F80748FBF7DEFD7FB032B0F0BD00BFFD
:104DE00057383200A4A40000BC2A002057383300F2
:104DF000243E002050C30000A83D00202D203A0092
:104E000052383000980A000050120000841100004F
:104E100030300000289E0000400D03000CB418B58F
:104E200083B004000A0006A80290019400200090BC
:104E300002AB01A9084878441E30FEF757FA00215A
:104E4000019A1170002801D40198001B04B0019947
:104E500010BC03B0084700BF7BB2FFFF70B506006F
:104E60000D00140022002900002001F09FFC012009
:104E700070BDFEE738B504000D002800C0B201285F
:104E800008D101200D49605440210D488068FBF78E
:104E90006BFD11E02800C0B2022808D102200749AA
:104EA0006054402106488068FBF762FD04E0402121
:104EB00003488068FBF75CFD31BD00BFE4120000D1
:104EC0000000002080B5074801F028FF064801F0E7
:104ED00037FF01BD38B505000C002C80A81C01F07F
:104EE00038FF31BD143E00206C1800207CB5334ED5
:104EF000300000F059F801206C460100A17000213B
:104F0000E170207110202080AE4D6946A868FBF743
:104F1000B1FC1021A868FBF727FD202020806946FE
:104F2000A868FBF7A7FC8020C0002080694668685D
:104F3000FBF7A0FC80208000208069466868FBF7B2
:104F400099FC80204000208069466868FBF792FC4D
:104F5000402020806946A868FBF78CFC300001F0F7
:104F6000FFFE0121022001F001FF01211448301849
:104F7000FFF7B0FF73BD000038B504009249200070
:104F800001F010FF200001F011FF0500AA20000130
:104F9000201801F0B8FA8D4904225043095828001E
:104FA0002A685269904731BD10B50400884820181E
:104FB00001F010F92000FFF7DFFF10BD6C18002092
:104FC000920A0000FFB593B0040000263000694645
:104FD00008803000694648801498002809D02000D5
:104FE00001F0E4FE15A90A88149903689B699847A3
:104FF00006E068460088002802D068460088DFE0A6
:105000001698002800D19DE03000694608803500E0
:105010001CA80088290089B2884224D302F03AF9FA
:10502000200001F0C3FE010003A80A68126990473E
:1050300003A803C809AA03C2083A09A8001DFBF780
:10504000CDFC002801D0012000E03000C0B20028D3
:1050500009D128001CA9098880B2884201D3002008
:10506000AEE06D1CD4E7200001F0A0FE010003A813
:105070000A681269904703A803C807AA03C2083A3E
:1050800007A8001DFBF7B3FC9249615A0818924922
:10509000884201D3012000E03000C0B2002803D0D4
:1050A0008E48201802F066F98A48205A69464880DE
:1050B000200001F07BFE0500200001F077FE0100DA
:1050C00003A80A681269904703A803C805AA03C287
:1050D000083A05A8001DFBF78AFC020068464088D4
:1050E00020187E49411828002B68DB6998476946DB
:1050F0000880200001F05AFE0168C9688847754899
:10510000205A6946098840187249605268460088EA
:10511000812801DB802501E06846058868464088D3
:1051200020186E4940180390169F2A0003993800F2
:10513000FBF72AF86748205A0A2803DA674820183C
:1051400002F018F968460088002837D0644F169D91
:105150003900280000F0A8F900282FD061480490F9
:10516000169803900499039800F09EF90190019815
:10517000083001905CA7019D3900280000F094F9E7
:10518000029002980199401A102817DA20250BAFD7
:1051900032002900380000F0E3FB02980199421A1E
:1051A00001990BA802F0F6F80100200000F0AEF81B
:1051B000002803D04D48201802F04CF968460088BA
:1051C00017B0F0BD00000020143E002088A00000B1
:1051D000980A0000FFB581B004004548201802F08D
:1051E00040F9002866D00925002D59D402F052F864
:1051F000200001F0DBFD3F4E042169437158026835
:10520000526990473C48FBF703FC200002F032F95A
:10521000FA20C00000902300042238492000FFF744
:10522000D1FE00283AD0364F00943900009800F0A3
:105230003BF9002832D0AA200001201801F063F9C0
:10524000A8422AD0200002F015F9AA200001201857
:1052500001F059F90421484332582A492000FFF748
:10526000DDFD2000FAF75EFFC82100912300020057
:1052700092B221002000FFF7A5FE200001F096FD6C
:105280000700AA200001201801F03DF9042148433D
:10529000315838003A685269904701E06D1EA3E723
:1052A0001348201802F0F4F8114821181648201865
:1052B00000F03AFC0298FAF735FF6946098A009136
:1052C000039B020092B202992000FFF77BFE05B01B
:1052D000F0BD0000280A00001505000014050000BC
:1052E0004426000014A40000220000007C0A0000F4
:1052F0009C0A000088A00000400D03007CA4000070
:1053000084A4000094A30000980A0000F3B589B0BB
:10531000012768460770002069464880002528005C
:10532000C0B2052800DBB3E05B4C2800C0B21821F6
:10533000484320185949401802F093F8002800D13A
:10534000A4E00020694608703F2602962800C0B2FB
:105350001821484320185249401801900299019899
:10536000FAF7AEFE002833D002962800C0B218210A
:10537000484320184A494018019002990198FAF7C9
:105380009FFE2900C9B2182251436118444A891866
:10539000401A69464880684642882800C0B21821F1
:1053A000484320183E49411803A801F0F3FF03AE1B
:1053B0002800C0B218214843201839494418310048
:1053C000200000F071F8002860D1684607705FE0A7
:1053D0002A2602962800C0B21821484320183049D6
:1053E0004018019002990198FAF76AFE00283ED011
:1053F0002800C0B218214843201829494018FAF75C
:1054000091FE6946488002962800C0B218214843A0
:10541000201823494018019002990198FAF750FE8C
:105420002900C9B21822514361181D4A89188842BF
:1054300002D1684607702BE001962800C0B21821FF
:10544000484320181649461801993000FAF738FEEB
:105450002900C9B21822514361186A465288891836
:10546000104A8918884211D16846077010E00A99DD
:105470002800C0B2182250432018094A8018FBF7B0
:10548000F9FA002802D16846077001E06D1C46E772
:10549000684600780BB0F0BD542B002018080000BF
:1054A0001C0800001B08000070B50D002C78002CB3
:1054B00005D170BD491C0E78964207D0401C2100D2
:1054C000FAF7FEFD002805D001002B005B1C1A78BE
:1054D000002AEFD170BDFEE731B48B0707D00B78FF
:1054E0000370002B20D0401C491C8B07F7D1164CB1
:1054F000E501830722D104C9131B93432B4205D135
:1055000004C004C9131B93432B42F9D0FF231A4252
:10551000027009D0120A1A42427005D0120A1A42C9
:10552000827001D0120AC27031BC70470270120A38
:105530004270120A8270120AC270001D04C9131B45
:1055400093432B42F2D0E1E7010101010268CA4016
:105550001000C007C00F704780B5644801F09EFF7F
:10556000C34801F0ADFF01BD1CB50120694688703C
:1055700008220A800022CA700871BE4C69462000C9
:10558000FBF778F908212000FBF7EEF9B84800F0A6
:1055900001F813BD70B50500544C200001F0A8FFC0
:1055A000B549200001F0BEFF280001F0BCFFB34E5A
:1055B0003000FBF72DFA0124200080B202281BDA0C
:1055C0003000FBF725FA210089B2280001F0AEFF78
:1055D000280000F016F8AA49884206D001222100CE
:1055E00089B2280001F0A6FF04E001220821A548A5
:1055F00001F0A9FF641CDFE70121280001F096FFFC
:1056000070BDFEB507006C469020207000200100A0
:1056100061700100A170E070380001F0AFFF01007F
:10562000324D280001F0AEFFFA26B6003000FBF73D
:10563000EFF904226946280001F0D2FF02226946F0
:10564000280001F0D8FF3000FBF7E2F90021280024
:1056500001F098FFC0486178090222781143018067
:105660000088FEBD7CB506000D0005206946087067
:10567000300001F083FF1D4C0100200001F082FF8B
:1056800001226946200001F0ABFF02222900200020
:1056900001F0B1FF0021200001F074FF73BDFEB5E1
:1056A00007000D0016006846032101702900090C4F
:1056B0004170290A81702900C170380001F05EFF35
:1056C0000A4C0100200001F05DFF04226946200021
:1056D00001F086FF32000299200001F08CFF0021CA
:1056E000200001F04FFF0120FEBD0000043E00201D
:1056F000FFB587B00020049000200090002700260E
:1057000000200190002069460872002002A948701C
:105710000998002800D1A7E00898000A049008988A
:10572000C0B200900798031D802252000499802087
:10573000400041430798FFF7B2FF0499079800F033
:10574000CDF8802040000099401A0999884202D380
:105750000998059004E0802040000099401A0590C7
:105760000A980690079800994018041D059A069912
:105770002000FAF709FD04988021490048430600FB
:105780008020400007000798001D03908020400003
:10579000F1B2401A01900198874202D301983F1A52
:1057A00002E0019700200700079801F0E7FE6B4C2C
:1057B0000100200001F0E6FE02AD06202870012263
:1057C00002A9200001F00CFF0021200001F0DAFE08
:1057D000079801F0D3FE0100200001F0D3FE022063
:1057E00028703000000C6870300AA8703000E87033
:1057F000042202A9200001F0F3FE019A039920007F
:1058000001F0EEFE0021200001F0BCFE0A20FBF7B3
:10581000F1F802A90798FFF725FF2878C007F8D408
:10582000039801994018039001983618002FADD1C4
:10583000802040000099411A099A914214D2099996
:10584000FF22D243009BD2188918099108990818A1
:105850000099401A08900A9800994A4280188021BD
:10586000490040180A9053E701200BB0F0BD00003A
:105870008C3600200017014080380100400D0300E5
:10588000FFFF000000F80020F8B504000F0016002C
:105890001D00200001F072FE01002000FFF756FEFF
:1058A000002805D033002A0039002000FFF720FF30
:1058B000F1BDF8B504000F0016001D00200001F036
:1058C0005DFE01002000FFF741FE002805D03300F7
:1058D0002A0039002000FFF7E2FEF1BDF8B506000E
:1058E0008020400041430F00300001F047FE1B4C78
:1058F0000100200001F046FE6D46062028700122BE
:105900006946200001F06CFE0021200001F03AFE03
:10591000300001F033FE0100200001F033FE812051
:1059200028703800000C6870380AA8703800E870D9
:1059300004226946200001F053FE0021200001F0FE
:1059400021FE0A20FBF756F869463000FFF78AFE71
:105950002878C007F8D4F1BD4E3E0020043E002058
:105960001206130A1A43130C1A4300BF094205D04A
:10597000830705D00270401C491EF9D17047000012
:105980001300103906D330B41400150010393CC090
:10599000FCD230BC490700D30CC000D504C089003C
:1059A00002D30280801C002900D502707047FEE7F8
:1059B000A446521E08D303780C78401C491CA3420D
:1059C000F7D0181B64467047002064467047FEE716
:1059D000FCB587B0002B02D00023089C2360039005
:1059E000054600E06D1C28780300093B052BF9D320
:1059F0002028F7D02D2801D02B2803D16B46187012
:105A00006D1C02E02B206B4618700191002A03D414
:105A1000012A01D0252A03DB002952D003984FE048
:105A2000002A0ADD102A16D12878302813D1687888
:105A30002021014378290ED10AE02878302801D0AE
:105A40000A2208E0687820210143782902D1102237
:105A5000AD1C00E00822069500E06D1C2878302877
:105A6000FBD0002405952A497944A4312831597086
:105A700002920494264E7E44963608E004946946C9
:105A80004978471AFFB202984443E4196D1C2978FB
:105A9000080041381A2800D22031029A30002830FC
:105AA000FAF74AFB0028E9D1029938002F00049D3B
:105AB000069ABA4207D10198002802D003980199AA
:105AC0000860002022E0059ABA1A735CD21A002AF4
:105AD00011D405DC201A03D3FAF7C7FCA8420AD078
:105AE00000BF00BF0898002802D001200899086074
:105AF0000024E44305E0684600782D2801D1604287
:105B000004000198002800D00760200009B0F0BD13
:105B10006843000080B500E080B500230A22002120
:105B2000FFF756FF02BDFEE770B505000C008026AA
:105B30007601281D844201D0002C05D104232A1DA2
:105B40003100AA48FFF7A0FE361D28000830844225
:105B500001D0002C06D104232A0008323100A348CA
:105B6000FFF792FE361D28000C30844201D0002C35
:105B700007D1C023DB002A000C3231009B48FFF71D
:105B800083FEC020C000361899482818844201D0EE
:105B9000002C06D1A02396482A1831009348FFF71D
:105BA00073FEA03693482818844201D0002C06D1F9
:105BB0000C2390482A1831008C48FFF765FE0C36FC
:105BC000D720C0002818844201D0002C07D1082318
:105BD000D720C0002A1831008448FFF755FE083648
:105BE000D820C0002818844201D0002C07D10423FB
:105BF000D820C0002A1831007C48FFF745FE361D2A
:105C0000BC482818844201D0002C06D10423B9488E
:105C10002A1831007548FFF737FE361DD920C0001D
:105C20002818844201D0002C07D10423D920C000B9
:105C30002A1831006D48FFF727FE361DBD48281889
:105C4000844201D0002C06D10423BA482A1831001E
:105C50006648FFF719FE361DDA20C0002818844276
:105C600001D0002C07D10423DA20C0002A1831000B
:105C70005E48FFF709FE361DAF482818844201D060
:105C8000002C06D10423AC482A1831005748FFF7EE
:105C9000FBFD361DDB20C0002818844201D0002CFB
:105CA00007D10423DB20C0002A1831004F48FFF73A
:105CB000EBFD361DB4482818844201D0002C06D1D3
:105CC0000423B1482A1831004848FFF7DDFD361D8E
:105CD000DC20C0002818844201D0002C07D1042306
:105CE000DC20C0002A1831004048FFF7CDFD361DEA
:105CF000A6482818844201D0002C06D10423A348CA
:105D00002A1831003948FFF7BFFD361DDD20C000DD
:105D10002818844201D0002C07D10423DD20C000C4
:105D20002A1831003148FFF7AFFD361D9848281872
:105D3000844201D0002C06D1042395482A18310052
:105D40002A48FFF7A1FD361DDE20C0002818844236
:105D500001D0002C07D10423DE20C0002A18310016
:105D60002248FFF791FD361D8A482818844201D049
:105D7000002C06D1302387482A1831001B48FFF732
:105D800083FD303684482818844201D0002C06D187
:105D9000302381482A1831001448FFF775FD30364A
:105DA0007E482818844201D0002C06D130237B483D
:105DB0002A1831000D48FFF767FD3036784828185B
:105DC000844201D0002C06D1302375482A183100B6
:105DD0000648FFF759FD303672482818844201D032
:105DE000002C0ED104236F4806E000BF8C36002043
:105DF0000C060000AC0600002A1831006A48FFF7C4
:105E000043FD361DF720C0002818844201D0002C25
:105E100007D12023F720C0002A1831006248FFF77D
:105E200033FD2036FB20C0002818844201D0002C0E
:105E300007D10423FB20C0002A1831005A48FFF77D
:105E400023FD361D59482818844201D0002C06D164
:105E5000042356482A1831005348FFF715FD361D14
:105E6000FC20C0002818844201D0002C07D1102348
:105E7000FC20C0002A1831004B48FFF705FD103602
:105E8000FE20C0002818844201D0002C07D1102326
:105E9000FE20C0002A1831004348FFF7F5FC1036F9
:105EA000802000012818844201D0002C07D1102343
:105EB000802000012A1831003B48FFF7E5FC10362E
:105EC000812000012818844201D0002C07D104232E
:105ED000812000012A1831003348FFF7D5FC361D18
:105EE00033482818844201D0002C0AD104233048BA
:105EF00002E000BFC40600002A1831002A48FFF75C
:105F0000C3FC361D2B482818844201D0002C06D132
:105F1000042328482A1831002348FFF7B5FC361D12
:105F200025482818844201D0002C0CD10423224893
:105F300004E000BFCC060000D40600002A1831009F
:105F40001948FFF7A1FC361D822000012818844261
:105F500001D0002C07D10423822000012A1831002F
:105F60001148FFF791FC361D14482818844201D0CF
:105F7000002C06D1282311482A1831000A48FFF7BF
:105F800083FC283670BD00BFDC060000E40600007C
:105F9000EC060000F406000024070000540700008F
:105FA00084070000B40700008C360020DC070000E6
:105FB00014080000180800001C0800002408000055
:105FC00010B5040000212000FAF741FC10BDFEE7E7
:105FD00038B505000AD00C00280001F017FB2D1879
:105FE0002878002808D10C49086032BD0A480568A5
:105FF000002DF0D1002032BD2100280001F018FB57
:1060000028180178002902D000210170401C0249A3
:106010000860280032BD00BF443E00208160704708
:106020004160704701607047816070474160704710
:1060300001607047E0B5684601210170052141808B
:1060400000210A00027141809921417201720621EA
:106050008172684601F0FEFA584800F031F8584A5B
:10606000FA208000002101F0DAFB07BD1CB5040016
:10607000544800F048FA01280BD1A0685249401852
:10608000A060200001F0EBFCA068FA21C9004018D4
:10609000A060684600210170A168303141706168DC
:1060A00081702168C1706169017121694171E16884
:1060B0008171684601F02BFB404800F001F813BDE8
:1060C0001CB50400684601F0F7FA68464178FA22E8
:1060D000D2008918A16081786160C178216001795E
:1060E0006161417921618079E060364800F00BFA06
:1060F00001280AD1A06835494018A060200001F0AD
:1061000055FCA06832494018A06013BDFEB50600DA
:10611000002200233F201F2100920193B2689404C3
:10612000A40CE517AD06A2091543A406327912079F
:10613000120FD3179B05970A3B43920522432B432B
:1061400014001D0032680A40D3175B04D70B3B4391
:10615000520422432B4375690C0029000C40E517BB
:106160002D03210D0D43240314431D4332690240C6
:10617000D3179B01910E0B43920122432B43F168ED
:106180000840C11710431943009A019B104319435B
:106190000022D243FF2302400B401000190003B03D
:1061A000F0BD80B50548C1683B2903DAC168491CC8
:1061B000C16001E0FFF784FF01BD0000EC3D00205D
:1061C000A3610000A83D0020ECFAFFFF30F8FFFFBC
:1061D00014050000FEB50600802040010400001DEB
:1061E000001DC025ED004019A0300C300830001D06
:1061F000001D001D001D001D001D001D001D001DB7
:10620000001D001D001D001D30303030303030309A
:10621000001D2030001D001D103010301030001DFA
:10622000001D001D001D001D28300190A24F0123FC
:106230006A4601993800FFF73CFB68460078182849
:1062400000D02EE10423321D21003800FFF731FB7E
:10625000241D04233200083221003800FFF729FBF7
:10626000241D2B0032000C3221003800FFF721FBE7
:106270006419A0239148321821003800FFF719FB58
:10628000A0340C238E48321821003800FFF711FB90
:106290000C340823D720C000321821003800FFF743
:1062A00008FB08340423D820C0003218210038002D
:1062B000FFF7FFFA241D042382483218210038001A
:1062C000FFF7F7FA241D0423D920C000321821005B
:1062D0003800FFF7EEFA241D04237B483218210012
:1062E0003800FFF7E6FA241D0423DA20C000321834
:1062F00021003800FFF7DDFA241D0423734832180B
:1063000021003800FFF7D5FA241D0423DB20C0004C
:10631000321821003800FFF7CCFA241D04236C4802
:10632000321821003800FFF7C4FA241D0423DC20B2
:10633000C000321821003800FFF7BBFA241D0423E7
:106340006448321821003800FFF7B3FA241D0423F3
:10635000DD20C000321821003800FFF7AAFA241D02
:1063600004235D48321821003800FFF7A2FA241DEB
:106370000423DE20C000321821003800FFF799FA0C
:10638000241D30235548321821003800FFF791FAB8
:10639000303430235248321821003800FFF789FA90
:1063A000303430234F48321821003800FFF781FA8B
:1063B000303430234C48321821003800FFF779FA86
:1063C000303404234948321821003800FFF771FAAD
:1063D000241D2023F720C000321821003800FFF7C9
:1063E00068FA20340423FB20C00032182100380052
:1063F000FFF75FFA241D04233D48321821003800BE
:10640000FFF757FA241D1023FC20C000321821008A
:106410003800FFF74EFA10341023FE20C000321867
:1064200021003800FFF745FA1034102380200001C6
:10643000321821003800FFF73CFA10340423812081
:106440000001321821003800FFF733FA241D04231D
:106450002848321821003800FFF72BFA241D0423A6
:106460002548321821003800FFF723FA241D0423A1
:106470002248321821003800FFF71BFA241D04239C
:1064800082200001321821003800FFF712FA241D83
:1064900028231B48321821003800FFF70AFA283455
:1064A00005E0300001F038FB300001F0CDFB30009A
:1064B00000F0EEFFF7BD00BF8C3600200C06000098
:1064C000AC060000C4060000CC060000D4060000A4
:1064D000DC060000E4060000EC060000F406000004
:1064E000240700005407000084070000B4070000E0
:1064F000DC07000014080000180800001C08000059
:1065000024080000704700687047006870474068C2
