:10000000A8160020E13200005F020000D7020000C5
:1000100000000000000000000000000000000000E0
:10002000000000000000000000000000D3050000F8
:1000300000000000000000003B280000032D00002D
:100040003D280000832D00004F280000612800009B
:10005000732800008528000097280000A9280000C8
:10006000BB280000CD280000DF280000F128000098
:100070000329000015290000272900003929000064
:100080004B2900005D2900006F2900008129000034
:1000900093290000A5290000B7290000972D000032
:1000A000EF2D000017310000A7320000B33200002E
:1000B00061330000673300006333000065330000E4
:1000C00010B50400200000F0D8F90448206004496D
:1000D000200000F0D8F9200010BD00BF84310000DE
:1000E0003833000010B50400042338220749862065
:1000F0004000201800F0CFF904230C220449F62018
:100100004000201800F0C7F9200010BD5133000056
:10011000C932000000B58A78D20610D502680B8873
:100120001A4302608A78102A04D142680B889A43E5
:10013000426014E042680B881A4342600FE0026894
:100140000B889A4302608A78002A04D182680B885F
:100150009A43826003E082680B881A438260CA78FF
:10016000002A04D1C2680B889A43C26003E0C268C7
:100170000B881A43C2600A79002A04D1026A0B88EC
:100180009A43026203E0026A0B881A4302624A79C8
:10019000002A04D1426A0B889A43426203E0426A11
:1001A0000B881A43426200BD10B502680B881A43DF
:1001B000026042680B889A434B88134343600B7973
:1001C000002B04D1C3680C88A343C36003E0C36859
:1001D0000C882343C3604B79002B04D1036A0C883D
:1001E000A343036203E0036A0C88234303628B7911
:1001F000002B04D1436A0C88A343436203E0436AA3
:100200000C882343436210BD0A0092B242617047DA
:100210000A0092B2826170470A0092B2C2617047CE
:100220001CB5040001206946887010220A80002253
:10023000CA70087169460648C069FFF76BFF022063
:1002400000F03CF90021200000F046F813BD00BF8B
:100250001000002000218222520081507047FEE7EA
:1002600000B50100481E002904D000210329F8D25E
:10027000491CFBE700BD802252008150704710B43A
:1002800082235B00C3581400E4B28C401C438223D9
:100290005B00C45010BC704770B504000D00160020
:1002A0003000C0B2002807D00121200000F092F9F0
:1002B000A0882843A08009E0A088A843A080A08847
:1002C000002803D10021200000F084F970BD8021B6
:1002D000490040587047FEE738B504000D00002D76
:1002E00002D0012D0BD015E01048016801220A430D
:1002F000026010210E48C069FFF786FF14E00B482A
:10030000016801229143016010210948C069FFF78B
:100310007FFF09E00548016801220A4302601021BD
:100320000348C069FFF770FF012032BD0C60014037
:100330001000002070B506000D00140022002900F6
:10034000022000F01DF9012070BD70B506000D00FF
:10035000140022002900022000F027F9012070BDBE
:1003600070B4103A03D378C9103A78C0FBD253075F
:1003700001D318C918C001D508C908C0D20704D3D1
:100380000B880380891C801C002A01D50B78037020
:1003900070BC70478B0701D18307E1D0124205D0B2
:1003A0000B78491C0370401C521EF9D17047822201
:1003B00052008258CA401000C007C00F704700B5F5
:1003C0000078012801D1012000E00020C0B200BD6A
:1003D00002780B78002A2FD0401C491C9A422BD15E
:1003E0008207F5D170B41F4CE5018A0726D104C8F5
:1003F00008C9161B96432E4208D19A42F7D070BC0A
:1004000012BA1BBA9A4280414041704770BC12BA7E
:100410001BBA100E0BD0FF21100C084208D0100A96
:10042000084206D0D01A01D08041404170471B0AD3
:100430001B0A1B0AC01A7047D01A70470B784A78FB
:10044000120213438A7812041343CA781206134324
:10045000091D04C8161B96432E42D7D19A42EDD0EF
:10046000CDE700000101010100B5007A012801D1AA
:10047000012000E00020C0B200BD10B50400200043
:1004800000F0BAF810BD38B505000C002100281D99
:1004900000F0B8F831BDF8B500900C000CD004465F
:1004A000002C09D0002B07D00D0017001E002000E3
:1004B000A847E419761EFAD10098F2BDF1B586B0CE
:1004C0006846007E022843D101246D462000A870B2
:1004D000022028800026EE702000287169462648F8
:1004E000FFF718FEAE7004202880EE7020002871FF
:1004F00069462148FFF70EFE2000A87008272F80CC
:10050000EE702000287169461B48FFF703FE0E209D
:1005100002A9088048800E712000487102A916487F
:10052000FFF742FE01218020000300F067F904A8D4
:1005300004702021417087700421C1700221017173
:100540003021417104A90D4800F094F9012000E028
:10055000002007B0F0BD38B505000C002800C0B27F
:10056000022806D12100C9B289B2044800F0C6F9B8
:1005700000E0002032BD000000100140006001409A
:10058000F8B506000C0017000025280080B2B8421C
:100590000AD2280080B2215C3000C0B2FFF7DBFF36
:1005A000694608706D1CF0E7F1BDF8B506000C0057
:1005B00017000025280080B2B84209D2FF21300080
:1005C000C0B2FFF7C8FF290089B260546D1CF1E783
:1005D000F1BDFEE700B50A00D2B2002A03D0044AFA
:1005E0000280028802E0034A0280028800BD00BF48
:1005F000AAAA00005555000001490160704700BFDC
:10060000B031000031B48B0707D00B780370002B9A
:1006100020D0401C491C8B07F7D1164CE5018307FD
:1006200022D104C9131B93432B4205D104C004C932
:10063000131B93432B42F9D0FF231A42027009D0B7
:10064000120A1A42427005D0120A1A42827001D070
:10065000120AC27031BC70470270120A4270120A4C
:100660008270120AC270001D04C9131B93432B42EF
:10067000F2D0E1E701010101F8B504000120574D76
:1006800057492A68024004235A438F585549296024
:1006900008262178314204D16178F7220A4062703D
:1006A00002E061783143617061784F4A116007213F
:1006B00022780A40032A15D12178314203D05E49BD
:1006C0000A68104308604948016810220A43026022
:1006D00000F0B6F8464800688006FBD583204549FF
:1006E000086019E020780140022910D13F480168D4
:1006F00020220A4302602078C0B20009C0B23E49FD
:10070000086000F09DF882203A49086004E02078F3
:1007100080210143374801602078304204D14648A7
:1007200001680122914301602F60F1BD00B50720EF
:10073000304909680140002905D0022906D002D3BA
:1007400003290BD03DE0802000023BE0A8200004FC
:10075000294A12689207920F104133E0224A126828
:1007600012072BD5354A1268104000280BD00228FA
:100770000FD00BD3042812D00ED3062815D011D3D6
:10078000072815D017E09820800419E09C208004E9
:1007900016E0A020800413E0A420800410E0A8202C
:1007A00080040DE0AC2080040AE0B020800407E063
:1007B000B420800404E0A820800401E0A8204004C4
:1007C00000E0002000BD0100C9B2244A0A40A52172
:1007D00009021143194A11607047000000F00040FF
:1007E000403300005AA500001CF000402CF00040EF
:1007F00018F0004004F0004014F0004030B5184AF2
:10080000184B14682500ED07ED0F042465435B5970
:10081000154C14600003000B0C00E4B2002C04D053
:10082000124C25680543256003E0104C256885437C
:100830002560136030BD00003CF0004020FF004008
:1008400080B5FFF773FF0A4909684907490FC84097
:10085000800A0100481E0029FBD101BD07FF0000EE
:1008600000F00040403300005AA5000030F0004086
:100870001CF0004030B581220B78002B01D0802382
:100880009A434B78002B0FD04B780A2B0CDA036974
:100890000F24A343036103694C781C43046103697B
:1008A00080241C43046106E003698024A3430361A0
:1008B00013004A781A438B781343CC781C430A7987
:1008C00022430260064B984208D180234C793025A0
:1008D00025401D432A0080231B01C25030BD00006B
:1008E0000060014000B5020050680B00DBB203401D
:1008F000002B01D0012000E0002000BD38B504002D
:100900000D0008212000FFF7EDFF012804D1082188
:10091000200042688368F4E7280080B2A0600821C4
:100920002000FFF7DFFF0028F9D0A068C0B232BD79
:1009300010B50400200001F053FF200010BDF44664
:10094000002804D4494200F013F840426047404276
:10095000002905D45FD000F00BF8404249426047BF
:10096000494200F005F84942604703460B43E6D48C
:100970000022030A8B420BD203098B4219D243088F
:100980008B422ED2411A00D2014652411046704786
:10099000FF2209023FD012068B4205D31212090230
:1009A0008B4201D31212090203098B4219D300E0D2
:1009B000090AC3098B4201D3CB01C01A52418309F2
:1009C0008B4201D38B01C01A524143098B4201D3A0
:1009D0004B01C01A524103098B4201D30B01C01ACB
:1009E0005241C3088B4201D3CB00C01A5241830845
:1009F0008B4201D38B00C01A524143088B4201D372
:100A00004B00C01A5241884200D3401A5241CFD203
:0E0A100001461046704708B5C046C04608BDF6
:100FC000A2FFFFE780B56448FFF77AF8C048FFF753
:100FD00089F801BD1CB501206946887008220A8085
:100FE0000022CA700871BB4C69462000FFF792F8D6
:100FF00008212000FFF708F9B54800F001F813BDFB
:1010000070B50500544C2000FFF70AF9B2492000E2
:10101000C046C0462800FFF71DF9B04E3000FFF76C
:101020001FF90124200080B202281BDA3000FFF7EC
:1010300017F9210089B22800FFF71DF9280000F0F8
:1010400016F8A749884206D00122210089B228005B
:10105000FFF715F904E001220821C048FFF71CF949
:10106000641CDFE701212800FFF705F970BDFEB51C
:1010700007006C4690202070002001006170010084
:10108000A170E0703800FFF722F90100324D28000E
:10109000FFF722F9FA26B6003000FFF7E1F8042244
:1010A00069462800FFF746F9022269462800FFF743
:1010B0004CF93000FFF7D4F800212800FFF70CF9B5
:1010C000A748617809022278114301800088FEBD9B
:1010D0007CB506000D000520694608703000FFF75A
:1010E000F6F81D4C01002000FFF7F6F801226946D2
:1010F0002000FFF71FF9022229002000FFF725F941
:1011000000212000FFF7E8F873BDFEB507000D00D1
:1011100016006846032101702900090C4170290A54
:1011200081702900C1703800FFF7D1F80A4C010026
:101130002000FFF7D1F8042269462000FFF7FAF8F3
:10114000320002992000FFF700F900212000FFF78C
:10115000C3F80120FEBD000088060020FFB587B05F
:10116000002004900020009000270026002001901D
:10117000002069460872002002A9487009980028DA
:1011800000D1A1E00898000A04900898C0B200902D
:10119000079B802252000499802040004143079819
:1011A000FFF7B3FF0499079800F09CF880204000F7
:1011B0000099401A0999884202D30998059004E0E1
:1011C000802040000099401A05900A9806900798E0
:1011D00000994418059A06992000FFF7DBF8049857
:1011E00080214900484306008020400007000798FE
:1011F000039080204000F1B2401A0190019887428C
:1012000002D301983F1A02E00197002007000798D7
:10121000FFF75DF8534C01002000FFF75DF802ADC9
:1012200006202870012202A92000FFF783F8002180
:101230002000FFF751F80798FFF749F80100200058
:10124000FFF74AF8022028703000000C6870300A5E
:10125000A8703000E870042202A92000FFF76AF8A5
:10126000019A03992000FFF765F800212000FFF79D
:1012700033F802A90798FFF72BFF2878C007F8D4A6
:10128000039801994018039001983618002FB0D1A7
:10129000802040000099411A099A914214D209997C
:1012A000FF22D243009BD218891809910899081887
:1012B0000099401A08900A9800994A4280188021A3
:1012C000490040180A9059E701200BB0F0BD00001A
:1012D000480400200017014080380100400D030041
:1012E000FFFF0000F8B506008020400041430F00DA
:1012F0003000FEF7ECFF1B4C01002000FEF7ECFF76
:101300006D4606202870012269462000FFF712F87A
:1013100000212000FEF7E0FF3000FEF7D8FF0100BB
:101320002000FEF7D9FF812028703800000C68707B
:10133000380AA8703800E870042269462000FEF7D9
:10134000F9FF00212000FEF7C7FF69463000FFF7D4
:10135000BFFE2878C007F8D4F1BD000000F80020D7
:10136000A006002088060020F8B504000F00200029
:10137000FEF7ADFF01002000FFF719F8002801D1AA
:1013800000207FE02000FEF7A2FFE0214843201864
:1013900003002C33E022DC2109022000FFF7B5FE18
:1013A0000025042D6DD22000FEF791FFE021484377
:1013B00020183821694340182C30FFF700F8002826
:1013C0005DD02000FEF783FFE0214843201838213C
:1013D000694340182C301030C0463900FFF700F840
:1013E00000284CD12000FEF772FF3021484320181E
:1013F0000C2169434018DE21490040180078C0469E
:1014000000283CD12000FEF762FFE021484320186D
:101410003821694340182C304068C046060020003F
:10142000FEF755FF31003022504320180C226A434A
:101430008018DE22520080184160C0462000FEF76E
:1014400046FF01213022504320180C226A438018A5
:10145000DE22520080180170C0462000FEF737FFE0
:1014600000213022504320180C226A438018DE22CB
:10147000520080180172C0466D1C280002E06D1CED
:101480008FE70020F2BDF2B50CB404000A980028E2
:1014900000D15AE10A9D6D1E2000FEF718FFE021E1
:1014A000484320183821694340182C30FEF787FF45
:1014B000002800D149E12000FEF709FF3021484310
:1014C00020180C2169434018DE214900401800789B
:1014D000C046002800D138E12000FEF7F8FEE021E8
:1014E000484320183821694340182C30C068C04652
:1014F00007002000FEF7EBFE3021484320180C21A6
:1015000069434018DE21490040184068C046060083
:101510002000FEF7DCFEE021484320183821694313
:1015200040182C304068C046321A0023684603C871
:10153000801859413A0000238B4230DC01DB8242A3
:101540002DD22000FEF7C3FEE021484320183821A9
:10155000694340182C30C068C04606002000FEF7E2
:10156000B6FE3021484320180C2169434018DE2183
:10157000490040184068C04607002000FEF7A7FE5B
:10158000F61BE021484320183821694340182C30CD
:101590004068C046301800216A4603C2083A20005D
:1015A000FEF795FEE0214843201838216943401892
:1015B0002C308068C04607002000FEF788FE3021EE
:1015C000484320180C2169434018DE214900401887
:1015D0004068C04606002000FEF779FEE02148433F
:1015E00020183821694340182C304068C046321A10
:1015F0000023684603C8801859413A0000238B42F3
:1016000030DC01DB82422DD22000FEF760FEE021BB
:10161000484320183821694340182C308068C04660
:1016200006002000FEF753FE3021484320180C210D
:1016300069434018DE21490040184068C046070051
:101640002000FEF744FEF61BE02148432018382115
:10165000694340182C304068C046301800216A4663
:1016600003C2083A2000FEF732FEE021484320186A
:101670003821694340182C308068C046070020009C
:10168000FEF725FE3021484320180C2169434018FD
:10169000DE21490040184068C04606002000FEF7E1
:1016A00016FEE021484320183821694340182C30A9
:1016B0004068C046321A0023684603C88018594162
:1016C0003A0000238B4204DC01DB824201D200207D
:1016D0003CE02000FEF7FBFD3021484320180C21A0
:1016E00069434018DE21490040184068C0460600A2
:1016F000029B684603C8020031002000FFF705FD89
:10170000002822D02000FEF7E2FD302148432018B7
:101710000C2169434018DE21490040184068C0464A
:1017200006002000FEF7D3FD0200684603C831180A
:1017300030204243A0180C226A438018DE22520057
:1017400080184160C046012000E00020FEBDF2B5D7
:101750000CB404000298002800D14BE1029D6D1EDC
:101760002000FEF7B4FDE0214843201838216943EA
:1017700040182C30FEF723FE002800D13AE120006B
:10178000FEF7A5FD3021484320180C21694340187D
:10179000DE21490040180078C046002800D129E128
:1017A00008A803C8002921D100281FD12000FEF776
:1017B0008EFDE021484320183821694340182C3021
:1017C0004068C04606002000FEF781FD0200684622
:1017D00003C8311830204243A0180C226A438018F5
:1017E000DE22520080184160C04669E008A803C8A4
:1017F000002944D1022842D12000FEF768FDE021F3
:10180000484320183821694340182C308068C0466E
:1018100002000023684603C88B4251DB01DC824290
:101820004ED32000FEF753FDE02148432018382115
:10183000694340182C304068C04606002000FEF77F
:1018400046FDE021484320183821694340182C30D8
:101850008068C04607002000FEF739FD0200F3193A
:10186000684603C8191A30204243A0180C226A4364
:101870008018DE22520080184160C04620E020001F
:10188000FEF725FD3021484320180C2169434018FC
:10189000DE21490040184068C04606002000FEF7DF
:1018A00016FD0200684603C8311830204243A018D4
:1018B0000C226A438018DE22520080184160C04624
:1018C0002000FEF704FDE021484320183821694339
:1018D00040182C308068C04607002000FEF7F7FC57
:1018E0003021484320180C2169434018DE2149006B
:1018F00040184068C04606002000FEF7E8FCE021E2
:10190000484320183821694340182C304068C046AD
:10191000301A87426CD22000FEF7D9FC0121302218
:10192000504320180C226A438018DE22520080188F
:101930000172C0462000FEF7CAFC3021484320183F
:101940000C2169434018DE21490040184068C04618
:1019500006002000FEF7BBFCE02148432018382198
:10196000694340182C304068C04607002000FEF74D
:10197000AEFCF11BE0225043201838226A43801845
:101980002C308160C0462000FEF7A1FCE0214843D6
:1019900020183821694340182C30C068C046060022
:1019A0002000FEF794FCE0214843201838216943C9
:1019B00040182C308068C046864219D22000FEF7BD
:1019C00086FCE021484320183821694340182C3018
:1019D000C068C04606002000FEF779FC3100E02216
:1019E0005043201838226A4380182C308160C0464A
:1019F000012000E00020FEBDF8B504000F00002F1C
:101A00003BD07D1E2000FEF762FCE02148432018F9
:101A10003821694340182C30FEF7D1FC00282CD027
:101A20002000FEF754FC3021484320180C21694364
:101A30004018DE21490040180078C04600281CD01C
:101A40002000FEF744FC3021484320180C21694354
:101A50004018DE21490040184068C04606002000BA
:101A6000FEF735FCE021484320183821694340182F
:101A70002C304068C046301A00E00020F2BDF8B5B6
:101A800004000F0039002000FFF76EFC0500002D58
:101A900052D06E1E2000FEF71AFCE02148432018A9
:101AA0003821714340182C30FEF789FC002843D0C0
:101AB0002000FEF70CFC3021484320180C21714314
:101AC0004018DE21490040180078C046002833D075
:101AD0002000FEF7FCFB0021E022504320183822B2
:101AE000724380182C300170C0462000FEF7EFFBD7
:101AF00000213022504320180C2272438018DE222D
:101B0000520080180170C0462000FEF7E0FBE02183
:101B10004843201838217143401803002C333822E1
:101B200038207043DC21090241182000FFF716FB22
:101B3000002801D0012000E00020F2BD70B50400B3
:101B40000D00002D5CD06E1E2000FEF7C0FB302182
:101B5000484320180C2171434018DE2149004018E9
:101B6000FEF782FC00281CD02748002801D0401E28
:101B7000FBE72000FEF7ABFBE021484320183821AB
:101B80007143401803002C33382238207043DC2185
:101B9000090241182000FFF7E1FA002801D10020D6
:101BA0002FE02000FEF793FBE02148432018382166
:101BB000714340182C30FEF702FC002820D0200092
:101BC000FEF785FB3021484320180C217143401853
:101BD000DE21490040180078C046002810D02000BF
:101BE000FEF775FB00213022504320180C2272436F
:101BF0008018DE22520080180170C046012000E0EB
:101C0000002070BD000000001027000080B5B5481E
:101C1000FEF78EFE01BDF0B5002423009BB2102B11
:101C200007DA23009BB2CB5C2500ADB24355641CA0
:101C3000F3E701231C00A4B20B2C00DB50E11C00D5
:101C4000A4B2102565434419241F24782200A64C11
:101C50001D00ADB210266E438519ED1E2D78655D11
:101C60001E00B6B210277743C619103E36786E4074
:101C70009E4D1F00BFB2ED5D75401E00B6B210272D
:101C80007743C5551D00ADB210266E438519AD1EB4
:101C90002D78655D1E00B6B210277743C6190F3E3A
:101CA00036786E401D00ADB210276F43C5196E70B7
:101CB0001D00ADB210266E4385196D1E2D78655D31
:101CC0001E00B6B210277743C6190E3E36786E4016
:101CD0001D00ADB210276F43C519AE701500ADB22F
:101CE000645D1D00ADB210266E4385190D3D2D7843
:101CF00065401C00A4B2102666438419E5701C00E0
:101D0000A4B21025654344190C3C25781C00A4B2EC
:101D100010266643845D6C401D00ADB210266E43F4
:101D200085192C711C00A4B21025654344190B3C85
:101D300024781D00ADB210266E4385196D7865407C
:101D40001C00A4B210266643841965711C00A4B25D
:101D50001025654344190A3C24781D00ADB21026B5
:101D60006E438519AD7865401C00A4B21026664309
:101D70008419A5711C00A4B2102565434419093CBF
:101D800024781D00ADB210266E438519ED786540AC
:101D90001C00A4B2102666438419E5711C00A4B28D
:101DA000102565434419083C24781D00ADB2102667
:101DB0006E4385192D7965401C00A4B21026664338
:101DC000841925721C00A4B2102565434419E41F30
:101DD00024781D00ADB210266E4385196D796540DB
:101DE0001C00A4B210266643841965721C00A4B2BC
:101DF000102565434419A41F24781D00ADB2102698
:101E00006E438519AD7965401C00A4B21026664367
:101E10008419A5721C00A4B2102565434419641FDF
:101E200024781D00ADB210266E438519ED7965400A
:101E30001C00A4B2102666438419E5721C00A4B2EB
:101E4000102565434419241F24781D00ADB21026C7
:101E50006E4385192D7A65401C00A4B21026664396
:101E6000841925731C00A4B2102565434419E41E8F
:101E700024781D00ADB210266E4385196D7A654039
:101E80001C00A4B210266643841965731C00A4B21A
:101E9000102565434419A41E24781D00ADB21026F8
:101EA0006E438519AD7A65401C00A4B210266643C6
:101EB0008419A5731C00A4B2102565434419641E3F
:101EC00024781D00ADB210266E438519ED7A654069
:101ED0001C00A4B2102666438419E5735B1CA9E6B6
:101EE000F0BD000034000020082E0000F032000099
:101EF00000B50100C9B2C909C9B2002904D0410026
:101F00001B204840C0B201E04000C0B200BD00004C
:101F1000F8B505000C0009202978A022A25C4A40EF
:101F20002A706978A122A25C4A406A70A978A2222C
:101F3000A25C4A40AA70E978A322A25C4A40EA70F7
:101F40002979A422A25C4A402A716979A522A25C5F
:101F50004A406A71A979A622A25C4A40AA71E9792D
:101F6000A722A25C4A40EA71297AA822A25C4A40D0
:101F70002A72697AA922A25C4A406A72A97AAA22C4
:101F8000A25C4A40AA72E97AAB22A25C4A40EA7299
:101F9000297BAC22A25C4A402A73697BAD22A25CF9
:101FA0004A406A73A97BAE22A25C4A40AA73E97BCD
:101FB000AF22A25C4A40EA73004F01E0082F000004
:101FC0002978795C020052B210235A43A25C4A403D
:101FD0002A702979795C020052B210235A43A21860
:101FE00012794A402A71297A795C020052B2102390
:101FF0005A43A218127A4A402A72297B795C02005D
:1020000052B210235A43A218127B4A402A73697BAA
:102010007A5C010049B21023594361184978514054
:102020006A7ABA5C03005BB210267343E3185B7BE9
:1020300053406B736A79BA5C03005BB2102673433A
:10204000E3185B7A53406B726A78BA5C03005BB248
:1020500010267343E3185B7953406B716970AA785B
:10206000BB5C020052B210267243A218927A5A4008
:10207000AB79FE5CB446060076B210235E43A3192A
:102080009B7B664673406E46B370AB7AFE5CB4468B
:10209000060076B210235E43A3199B786646734010
:1020A000AB70AB7BFE5CB446060076B210235E4399
:1020B000A3199B7966467340AB71AA726B469B78F5
:1020C000AB73EB78FE5CB446060076B210235E4339
:1020D000A319DB7B664673406E467370EB79FE5C3A
:1020E000B446060076B210235E43A319DB78664639
:1020F0007340EB70EB7AFE5CB446060076B21023B8
:102100005E43A319DB7966467340EB71EB7BFE5CA3
:10211000B446060076B210235E43A319DB7A664606
:102120007340EB726B465B78EB730826300040B26D
:10213000002800D5B8E22978A8784840C0B2FFF757
:10214000D7FEC0B2FFF7D4FE694648706978E878D8
:102150004840C0B2FFF7CCFEC0B2FFF7C9FE6946E7
:1021600088702878694649784140297068786946BE
:10217000897841406970A878694649784140A970DA
:10218000E878694689784140E9702979A87948401A
:10219000C0B2FFF7ADFEC0B2FFF7AAFE69464870B5
:1021A0006979E8794840C0B2FFF7A2FEC0B2FFF7F4
:1021B0009FFE6946887028796946497841402971AF
:1021C00068796946897841406971A8796946497892
:1021D0004140A971E879694689784140E971297AD5
:1021E000A87A4840C0B2FFF783FEC0B2FFF780FE76
:1021F00069464870697AE87A4840C0B2FFF778FECD
:10220000C0B2FFF775FE69468870287A694649783A
:1022100041402972687A6946897841406972A87A92
:10222000694649784140A972E87A6946897841400F
:10223000E972297BA87B4840C0B2FFF759FEC0B2C3
:10224000FFF756FE69464870697BE87B4840C0B29C
:10225000FFF74EFEC0B2FFF74BFE69468870287B41
:102260006946497841402973687B694689784140CD
:102270006973A87B694649784140A973E87B694640
:1022800089784140E973287869784140A8784840C6
:10229000E978414068464170287869468870287816
:1022A000697841406846017068460078FFF720FE73
:1022B000694608702878694609786A4652784A4023
:1022C00042402A706878A9784140684601706846A3
:1022D0000078FFF70DFE694608706878694609784E
:1022E0006A4652784A4042406A70A878E97841408C
:1022F0006846017068460078FFF7FAFD6946087085
:10230000A878694609786A4652784A404240AA70DD
:10231000E8786946897841406846017068460078E7
:10232000FFF7E6FD69460870E878694609786A466D
:1023300052784A404240EA70287969794140A87948
:102340004840E9794140684641702879694688707B
:102350002879697941406846017068460078FFF73E
:10236000C7FD694608702879694609786A46527837
:102370004A4042402A716879A97941406846017013
:1023800068460078FFF7B4FD6946087068796946C9
:1023900009786A4652784A4042406A71A879E979D8
:1023A00041406846017068460078FFF7A1FD694624
:1023B0000870A879694609786A4652784A404240CE
:1023C000AA71E87969468978414068460170684693
:1023D0000078FFF78DFD69460870E879694609784D
:1023E0006A4652784A404240EA71287A697A414006
:1023F000A87A4840E97A414068464170287A69469F
:102400008870287A697A4140684601706846007889
:10241000FFF76EFD69460870287A694609786A46B2
:1024200052784A4042402A72687AA97A4140684606
:10243000017068460078FFF75BFD69460870687AAE
:10244000694609786A4652784A4042406A72A87AD8
:10245000E97A41406846017068460078FFF748FD18
:1024600069460870A87A694609786A4652784A40EF
:102470004240AA72E87A694689784140684601700C
:1024800068460078FFF734FD69460870E87A6946C7
:1024900009786A4652784A404240EA72287B697B52
:1024A0004140A87B4840E97B414068464170287B19
:1024B00069468870287B697B4140684601706846A0
:1024C0000078FFF715FD69460870287B6946097892
:1024D0006A4652784A4042402A73687BA97B414051
:1024E0006846017068460078FFF702FD694608708B
:1024F000687B694609786A4652784A4042406A7366
:10250000A87BE97B41406846017068460078FFF788
:10251000EFFC69460870A87B694609786A465278DC
:102520004A404240AA73E87B694689784140684640
:10253000017068460078FFF7DBFC69460870E87BAD
:10254000694609786A4652784A404240EA732878D8
:10255000385C310049B210225143615C414029701E
:102560002879385C310049B2102251436118097949
:1025700041402971287A385C310049B21022514318
:102580006118097A41402972287B385C310049B2D0
:10259000102251436118097B41402973687B385CE4
:1025A000310049B2102251436118497841406846D0
:1025B0004170687A385C310049B210225143611889
:1025C000497B414069736879385C310049B2102217
:1025D00051436118497A414069726878385C31002A
:1025E00049B21022514361184979414069716846E6
:1025F00040786870A878395C300040B210225043AF
:102600002018807A4840A979795C320052B21023B0
:102610005A43A218927B4A4069468A70A97A795C2B
:10262000320052B210235A43A21892784A40AA703C
:10263000A97B795C320052B210235A43A2189279D6
:102640004A40AA71A87269468978A973E978795CC9
:10265000320052B210235A43A218D27B4A40694634
:102660004A70E979795C320052B210235A43A218B9
:10267000D2784A40EA70E97A795C320052B210238B
:102680005A43A218D2794A40EA71E97B795C320058
:1026900052B210235A43A218D27A4A40EA726946CB
:1026A0004978E973761E41E5F1BD38B5ACB0040058
:1026B0000D0029006846FFF7AEFA69462000FFF7D3
:1026C00027FC2DB030BDFEB584B00500287C002865
:1026D00077D06846008B1021FEF747F9694688805D
:1026E0006846008B1021FEF740F9684641800026BD
:1026F000300069460880340020006946898880B22D
:1027000088422BD2280000F060F83000010089B226
:1027100010290BDA04996A46128803009BB2D2187A
:10272000895C020092B2A954401CEFE70C99280082
:10273000FFF7BBFF684600881021039102950599B9
:1027400080B20F18039A02993800FDF723FE6846FD
:102750000088103069460880641CCDE768464088D0
:1027600000282AD0280000F030F830006946498857
:1027700080B288420BD2049869460988320092B22E
:102780008918405C310089B26854761CEDE70C99D9
:102790002800FFF78AFF68460088102102912C006C
:1027A000059980B20E18029A21003000FDF7F2FD63
:1027B000684600881030694608806846008800B284
:1027C00001E00020C04307B0F0BDF8B504001025BB
:1027D0000026270032002900380000F007F8F1BD7C
:1027E0000100002008740120704700001206130A3F
:1027F0001A43130C1A4300BF094205D0830705D0C2
:102800000270401C491EF9D17047000013001039B6
:1028100006D330B41400150010393CC0FCD230BCD3
:10282000490700D30CC000D504C0890002D3028040
:10283000801C002900D502707047FEE71CB50122FC
:102840006149684600F011F9009CA04713BD1CB512
:1028500001225E49684600F008F9009CA04713BDBC
:102860001CB501225A49684600F0FFF8009CA047B9
:1028700013BD1CB501225749684600F0F6F8009CCC
:10288000A04713BD1CB501225349684600F0EDF87E
:10289000009CA04713BD1CB501225049684600F0BA
:1028A000E4F8009CA04713BD1CB501224C496846C2
:1028B00000F0DBF8009CA04713BD1CB5012249497C
:1028C000684600F0D2F8009CA04713BD1CB5012259
:1028D0004549684600F0C9F8009CA04713BD1CB5E7
:1028E00001224249684600F0C0F8009CA04713BD91
:1028F0001CB501223E49684600F0B7F8009CA0478D
:1029000013BD1CB501223B49684600F0AEF8009C9F
:10291000A04713BD1CB501223749684600F0A5F851
:10292000009CA04713BD1CB501223449684600F045
:102930009CF8009CA04713BD1CB501223049684695
:1029400000F093F8009CA04713BD1CB501222D494F
:10295000684600F08AF8009CA04713BD1CB5012210
:102960002949684600F081F8009CA04713BD1CB5BA
:1029700001222649684600F078F8009CA04713BD64
:102980001CB501222249684600F06FF8009CA04760
:1029900013BD1CB501221F49684600F066F8009C73
:1029A000A04713BD1CB501221B49684600F05DF825
:1029B000009CA04713BD1CB501221849684600F0D1
:1029C00054F8009CA04713BD4080000048800000E0
:1029D0004C800000508000005480000058800000AF
:1029E0005C8000006080000064800000688000005F
:1029F0006C8000007080000074800000788000000F
:102A00007C800000808000008480000088800000BE
:102A10008C8000009080000094800000988000006E
:102A200070B40F4E01250D4B1C682C4000D03400B3
:102A30001E600C4E9E635D63002A09D0057800BFBE
:102A40000D705D6B6D07FCD4401C491C521EF5D106
:102A50000020586398631C6070BC704700F0004011
:102A60005AA50000687A00007047F0B5802424035E
:102A7000A14220D2224E234D37683B00DB07DB0FFB
:102A800004277B43ED58204B336000231F4F3B60EE
:102A900035600326B14393420DD204265E438E195E
:102AA000A64208D204265E438E19366804275F4387
:102AB000C6515B1CEFE7F0BD10B40E4B0C490A6821
:102AC000D20701D51A0000E000220B600A4B8B638D
:102AD00002234B63FF230324A04300BF0360486B22
:102AE0004007FCD40020486388630A6010BC70472C
:102AF00000F000405AA50000687A0000704700000E
:102B000000F00040483300005AA5000000F10040EA
:102B1000E0B501206946887040220A800022CA7010
:102B20000871694663484068FDF7F4FA07BDFEB5D1
:102B300006006D460021A81C0180C0465E4C01962F
:102B40002100019800F0C6F8002814D000F002F926
:102B50005A4C5B492000FEF707FC0700002F08D005
:102B60000421A81C0180C04639002000FEF7E6FFC2
:102B700005E0009804E00421A81C0180C0460098EC
:102B8000FEBDF1B54F48854404AD0221A81C01806B
:102B9000C0464A4FFFA9C9693800FEF7E5FB03901C
:102BA0000398002864D000240220002100900191A5
:102BB0000022002303993800FEF7C9FD039938006D
:102BC000FEF71AFF059080263602002000210090B3
:102BD00001910022002303993800FEF7B8FD3A481E
:102BE00000F0C4F800283FD00421A81C0180C04692
:102BF00003980290012000210090019120220023DF
:102C000006A93800FEF73FFC20340598844228D2FC
:102C100000F0A0F80398029001200021009001919B
:102C20008022D200002306A93800FEF72CFC802564
:102C3000ED00264800902B0006AA06A92248FFF7BF
:102C400042FD40211B484068FDF7E6FA3000FFF7DF
:102C500033FF2A00310006A8FFF7E2FE7619641957
:102C6000D3E71948FFF7BCFD03993800FEF766FF6C
:102C7000049817498D44F0BD1CB5040002212000C2
:102C800022300180C04600F065F80D490B48FEF780
:102C9000F6FE002804D00421200022300180C04626
:102CA0006846210020310A8802804A8842800098C4
:102CB00016BD000010000020FC3200004804002077
:102CC00008330000E8FBFFFF340000200000002074
:102CD0001C04000070B50D002C78002C05D170BDCF
:102CE000491C0E78964207D0401C210000F04AF89B
:102CF000002805D001002B005B1C1A78002AEFD1B8
:102D000070BDFEE71CB5042000F046F8002813D083
:102D1000124C2000C088C04605280ADB200000F0C5
:102D200049F8002808D1012202212000FDF7B4FA59
:102D300002E0200000F057F8012069468870402228
:102D40000A800022CA700871694605484068FDF78C
:102D5000E1F913BD034804490860704700F80020FA
:102D600010000020FFAA00000400014000B501008F
:102D7000087C002803D101200874087C00E00020B2
:102D800000BDFEE7C9B202788A4203D0401C002A87
:102D9000F9D100207047FEE700B501000448006843
:102DA0000840002801D0012000E0002000BD000004
:102DB00030F4004010B50400200000F019F800289D
:102DC00009D02000C088C046052801DA002000E0B4
:102DD000A08880B206E000212000FDF7FBFB002068
:102DE000A080A08810BDC188491CC1807047FEE743
:102DF00000B500880349884201D1012000E000208D
:102E0000C0B200BDAAAA0000637C777BF26B6FC5DD
:102E10003001672BFED7AB76CA82C97DFA5947F0DD
:102E2000ADD4A2AF9CA472C0B7FD9326363FF7CCB9
:102E300034A5E5F171D8311504C723C31896059A56
:102E4000071280E2EB27B27509832C1A1B6E5AA079
:102E5000523BD6B329E32F8453D100ED20FCB15B64
:102E60006ACBBE394A4C58CFD0EFAAFB434D3385CD
:102E700045F9027F503C9FA851A3408F929D38F5A1
:102E8000BCB6DA2110FFF3D2CD0C13EC5F974417D8
:102E9000C4A77E3D645D197360814FDC222A90884F
:102EA00046EEB814DE5E0BDBE0323A0A4906245CDB
:102EB000C2D3AC629195E479E7C8376D8DD54EA940
:102EC0006C56F4EA657AAE08BA78252E1CA6B4C60C
:102ED000E8DD741F4BBD8B8A703EB5664803F60E65
:102EE000613557B986C11D9EE1F8981169D98E9454
:102EF0009B1E87E9CE5528DF8CA1890DBFE642686D
:102F000041992D0FB054BB1652096AD53036A538F9
:102F1000BF40A39E81F3D7FB7CE339829B2FFF87C1
:102F2000348E4344C4DEE9CB547B9432A6C2233DA5
:102F3000EE4C950B42FAC34E082EA16628D924B256
:102F4000765BA2496D8BD12572F8F6648668981677
:102F5000D4A45CCC5D65B6926C704850FDEDB9DAD6
:102F60005E154657A78D9D8490D8AB008CBCD30AC4
:102F7000F7E45805B8B34506D02C1E8FCA3F0F02A0
:102F8000C1AFBD0301138A6B3A9111414F67DCEA6F
:102F900097F2CFCEF0B4E67396AC7422E7AD3585E8
:102FA000E2F937E81C75DF6E47F11A711D29C589F2
:102FB0006FB7620EAA18BE1BFC563E4BC6D27920D4
:102FC0009ADBC0FE78CD5AF41FDDA8338807C731DD
:102FD000B11210592780EC5F60517FA919B54A0DD5
:102FE0002DE57A9F93C99CEFA0E03B4DAE2AF5B04A
:102FF000C8EBBB3C83539961172B047EBA77D62666
:10300000E169146355210C7D1CB501218020C001AC
:10301000FDF7F4FB214822490860FFF773FEC04624
:10302000C046FDF7D7FFFFF773FD1E4C2000FFF7EA
:10303000C1FE022804D02000FFF7BCFE042807D1FF
:10304000200000F03DF818491848FDF7DBFA03E0CE
:1030500017491648FDF7D6FA144C2000FFF767FD14
:1030600000906846801C0088C046042805D12000D6
:10307000FFF787FD2000FFF7FFFD0E480E490968A6
:1030800001600E490068086080200002006880F33B
:10309000088808688047002016BD00BFFFAA00000E
:1030A0000400014000F800201433000064060020F2
:1030B000203300009C0600200480000098060020B9
:1030C00010B5040000212000C180C046002120006E
:1030D000FDF780FA0020A08010BD70B40123002409
:1030E00013E00168001D194202D04D466D1E4919BA
:1030F0000C60091D121F042AFAD20D00960701D593
:103100000C80AD1C1A4000D02C700268001D002AF3
:10311000E7D170BC7047FEE7F0E1D2C3B4A5968753
:103120007869A5B4C3D2E1F000100140001101405C
:103130000012014000130140001401400000000093
:1031400000160140001701400019014030B401226F
:103150000EE00368C31844680830144202D04D469C
:103160006D1E64191D6825601B1D241D091FF9D1E2
:103170000168001D0029ECD130BC70470000000040
:10318000000000002102000000000000000000001C
:1031900000000000000000000000000035030000F7
:1031A0004B030000000000000000000000000000D1
:1031B000000000000000000000000000000000000F
:1031C00000000000000000000000000000000000FF
:1031D0001CB5084C2000441E0128FBDA68460B2170
:1031E0000170002141700020FDF7EDFA6846FDF7FF
:1031F00043FA13BD40420F0010B507497944183116
:10320000064C7C44163404E0081D0A688918884777
:103210000100A142F8D110BD080000002C00000000
:10322000BBFEFFFF7006000034000020000000001D
:103230001DFFFFFF34000000E0FEFFFF0000002044
:10324000000000000500000010B5040004497944A6
:103250000E31044878440C3000F006F8200010BD10
:1032600000010000F400000038B505000C00A54284
:1032700005D02868401980472D1DA542F9D131BDE0
:103280000120C046002801D0FFF7B6FF00BF00BFF5
:10329000002000BF00BFFFF7B7FE00F000F880B5C8
:1032A00000F002F801BDFEE70746384600F002F8DC
:1032B000FBE7FEE780B500BF00BF024A11001820FF
:1032C000ABBEFBE72600020010B504000021200081
:1032D0000170C046002120000172C046200010BDD0
:1032E0000148804701480047D13100002D330000DC
:1032F0008D01020408102040801B3600626F6F743D
:103300002E62696E00000000636F6E6669726D2E3A
:10331000786D6C0064656661756C742E62696E0010
:10332000626F6F742E62696E0000000000BF00BF04
:1033300000BF00BFFFF7A4FF656D466C61736800B6
:10334000000000005AA50000000000005AA500007F
:103350000021416081607047B5E8FFFF69DCFFFF35
:09336000FEE7FEE7FEE7FEE700D0
:10800000182C0020214B04000BDF0100F12F03008E
:108010000000000000000000000000000000000060
:1080200000000000000000000000000063E6010006
:108030000000000000000000C7E60100FB0602008F
:108040002F090200F30C0200F52F0300C7560200AF
:10805000436302003B640200677302009F880200D2
:108060002F8F020031F20300C1F203004DF3030031
:10807000FF1203002F13030033130300B78602001F
:10808000BF230300CF240300D3300300F7380300DD
:10809000333C0300733D03000F4C03009F57030064
:1080A000D3570300B359030093CE030067E40300E2
:1080B000B7E6030057FA03002FEB0300D3EE0300EB
:1080C00010B5040009202070012033216054A068FD
:1080D00000280CD10C2006F0C9FBA060A068002885
:1080E00002D18220400003E0A06806F065FC002079
:1080F00010BD38B504000025207E022806D1606935
:1081000001001031200008F096FC01E081204000C1
:1081100032BD70B50400207E022807D160690100DD
:108120001031200008F087FC05003AE0207E03288B
:1081300035D12000FFF7C4FF0500002831D1A66823
:108140000221300006F0B9FC0500002829D10221E7
:10815000300006F0B2FC0500002822D10F213000CB
:1081600006F0ABFC050000281BD160692021405CB3
:108170000100C9B2300006F032FE0500002810D11F
:108180001621300006F099FC0500002809D160692D
:108190002121415C300006F090FC050001E08125C2
:1081A0006D00280070BD70B50400207E022801D14A
:1081B00000253AE0207E042835D12000FFF780FF1B
:1081C0000500002831D1A6680221300006F075FCB8
:1081D0000500002829D10221300006F06EFC0500C0
:1081E000002822D10F21300006F067FC050000288E
:1081F0001BD160692421405C0100C9B2300006F047
:10820000EEFD0500002810D11621300006F055FCC7
:108210000500002809D160692521415C300006F085
:108220004CFC050001E081256D00280070BD10B5F3
:108230000400207E022806D16069010084312000FC
:1082400008F028FD46E0207E032806D160698021E1
:10825000415E200007F07BF93CE0207E042806D137
:1082600060694821415C200007F045F932E0207E3A
:10827000052806D1606901004C31200008F00AFD94
:1082800028E0207E062806D1606901001431200014
:1082900008F000FD1EE0207E072807D16069407CC1
:1082A0000100C9B2200007F047F913E0207E08283A
:1082B00005D16069817C200008F02AFD0AE0207E5B
:1082C000092805D16069017C200007F009F901E067
:1082D0008120400010BDF8B588B0070000242500BB
:1082E00078690190387E022842D13800FFF7E8FE15
:1082F0000400002800D0B2E0BD680221280006F08A
:10830000DCFB0400002800D0A9E00221280006F0D0
:10831000D4FB0400002800D0A1E00921280006F0C9
:10832000CCFB0400002800D099E02900062008F0CA
:10833000DCFD0400002800D091E00198006909F0FC
:1083400043F801000622280006F065FD040000281D
:1083500000D084E01221280006F0AFFB04000028C2
:108360007DD10198818A280006F034FC040076E073
:10837000387E032806D10198817D380007F0B0F8D7
:1083800004006CE0387E042867D13800FFF798FEBF
:108390000390002801D0039862E0B86800900121A2
:1083A000009806F08AFB050000280DD1009901987D
:1083B000C08B08F09AFD0500002805D104A807F03D
:1083C00044F90500002801D0280049E02600019862
:1083D000C08B86423CD00221009806F06EFB05005F
:1083E000002806D10221009806F067FB050000284E
:1083F00000D02DE002AA3000010089B201981830A7
:108400000AF0E1F80500002822D1029904A808F03A
:1084100002FC050000281BD11B2069460874009A45
:10842000092104A807F0F5FB0500002D10D11A2042
:1084300069460874009A092104A807F0EAFB0500C0
:10844000002D05D104A807F01CF90500761CBEE735
:1084500004A807F016F9040001E08124640020005C
:1084600009B0F0BDF1B586B00D000121280006F07D
:1084700024FB040000280DD129000698C08808F0CC
:1084800034FD0400002805D102A807F0DEF804003E
:10849000002801D02000A0E000270698C08887426D
:1084A00000D196E00221280006F007FB0400002816
:1084B0002ED10221280006F000FB0400002827D15D
:1084C0006A463800010089B206980AF07CF8040078
:1084D00000281DD11121280006F0EFFA0400002821
:1084E00016D100980178280006F0E7FA0400002869
:1084F0000ED10121280006F0E0FA0400002807D17F
:1085000029000098408908F0F0FC0400002800D001
:108510005FE00020060000984089864257D001AAFB
:108520003000010089B20098001D0AF04CF80400E8
:10853000002849D1019902A808F0CBFB04000028CB
:1085400042D10221280006F0B8FA040000283BD1ED
:108550000321280006F0B1FA0400002834D12A00D3
:10856000092102A807F055FB040000282CD102A81D
:1085700007F087F80400002826D10921280006F01A
:108580009CFA040000281FD10621280006F095FA65
:108590000400002818D106220198406B811D280094
:1085A00006F039FC040000280ED11221280006F044
:1085B00084FA0400002807D10198018F280006F0F2
:1085C00009FB0400002800D001E0761CA3E77F1C13
:1085D00063E702A807F055F8200007B0F0BDFEB52C
:1085E00007000C00002601960121200006F065FA24
:1085F0000500002806D12100F88808F076FC050067
:10860000002801D02800ABE0F888864200D1A6E01F
:108610000221200006F051FA0500002800D09BE05E
:108620000821200006F049FA0500002800D093E058
:108630006A463000010089B2380009F0C4FF050025
:10864000002800D088E00921200006F036FA050055
:10865000002800D080E0009806F0A6F90100C9B219
:10866000200006F02AFA0500002875D1009806F0CF
:108670009BF903009BB200220099200006F0EAFB60
:108680000500002868D11121200006F016FA050027
:10869000002861D10098017B200006F00EFA050049
:1086A000002859D11121200006F007FA0500002802
:1086B00052D10098417B200006F0FFF90500002808
:1086C0004AD11121200006F0F8F90500002843D115
:1086D0000098817B200006F0F0F9050000283BD1CE
:1086E0001121200006F0E9F90500002834D1009896
:1086F000C17B200006F0E1F9050000282CD11121F2
:10870000200006F0DAF90500002825D10098017C48
:10871000200006F0D2F9050000281DD1112120000B
:1087200006F0CBF90500002816D10098417C200006
:1087300006F0C3F9050000280ED11121200006F033
:10874000BCF90500002807D10098817C200006F0C4
:10875000B4F90500002800D001E0761C54E7280099
:10876000FEBDF8B586B007000E0000250195012179
:10877000300006F0A2F9040000280CD13100F8887E
:1087800008F0B3FB0400002805D102A806F05DFF45
:108790000400002801D020007AE0F888854273D0D8
:1087A0000221300006F089F90400002869D1032174
:1087B000300006F082F90400002862D16A462800E1
:1087C000010089B2380009F0FEFE0400002858D1EB
:1087D0000921300006F071F90400002851D10098F9
:1087E00006F0E2F80100C9B2300006F066F90400B4
:1087F000002846D1009806F0D7F803009BB200226B
:108800000099300006F026FB0400002839D10098BA
:1088100001000C3102A808F0FEF90400002830D154
:108820003200092102A807F0F4F90400002828D139
:1088300002A806F026FF0400002822D109213000FA
:1088400006F03BF9040000281BD10098403006F0E8
:10885000ABF80100C9B2300006F02FF9040000287F
:108860000FD10098403006F09FF803009BB2002221
:10887000009801004031300006F0ECFA04000028B6
:1088800000D001E06D1C88E702A806F0FAFE200087
:1088900007B0F0BD70B505000C000921200006F0FE
:1088A0000CF9060000280ED12100E88808F01DFB15
:1088B0000600002807D1EA882968200006F0ABFAF4
:1088C0000600002801D0300000E0300070BDF8B58F
:1088D00004002000FFF7F4FB0700002801D0380057
:1088E00054E0A6686569207E022805D13100280081
:1088F0001030FFF7CFFF49E0207E032805D131007B
:1089000028002830FFF72DFF40E0207E042805D105
:10891000310028003430FFF762FE37E0207E052862
:1089200005D1310028004030FFF79CFD2EE0207E6D
:10893000062805D1310028001C30FFF7ABFF25E0E9
:10894000207E072805D1310028004C30FFF709FFB1
:108950001CE0207E082805D1310028006430FFF794
:108960003EFE13E0207E092805D131002800583052
:10897000FFF778FD0AE0207E0A2805D12900703132
:1089800030000AF0EDF901E081204000F2BDF3B5BE
:1089900083B014000221200006F08FF805000028A3
:1089A0000DD10221200006F088F80500002806D12C
:1089B0000121200006F081F80500002801D02800E0
:1089C000A9E0049809F021FA694608702100684678
:1089D000007808F08AFA01263000C0B269460978AA
:1089E000491C88423ED03200D2B2049903980FF05D
:1089F00051FA694648700221200006F05EF8050031
:108A000000282BD10321200006F057F8050000288C
:108A100024D10F21200006F050F8050000281DD1B8
:108A20003100C9B2200006F048F80500002815D131
:108A30001621200006F041F8050000280ED16846F6
:108A40004178200006F039F80500002806D1002101
:108A5000200006F032F80500002801D028005AE076
:108A6000761CB9E70121200006F027F801900028C4
:108A700001D001984FE0049809F0D2FA69460870D5
:108A800021006846007808F030FA0700002801D07D
:108A9000380040E001252800C0B269460978491C29
:108AA000884237D02A00D2B2049903980FF098FF79
:108AB000694648700221200005F0FFFF07000028EA
:108AC00024D10221200005F0F8FF070000281DD165
:108AD0000F21200005F0F1FF0700002816D1290022
:108AE000C9B2200005F0E9FF070000280ED11621C9
:108AF000200005F0E2FF0700002807D16846417812
:108B0000200005F0DAFF0700002801D0380002E05D
:108B10006D1CC0E7002005B0F0BDF1B588B00F00B6
:108B200015007869039000206946087005A8A649D9
:108B30000CC90CC00839083808985221415A28003D
:108B400005F044FF0400002801D020003AE148204D
:108B5000385A002800D09BE00398468B0398408B3E
:108B60007864002069464880684640880399498BAC
:108B7000884226D001AA684641880398143010F034
:108B800024FB0400002C01D020001BE10198008888
:108B90000F2810D106220198811D05A810F08CFB2A
:108BA000002803D101206946087004E00198796922
:108BB000884200D0761E68464088401C694648803E
:108BC000D2E768460078002800D1761C01212800F1
:108BD00005F073FF0400002807D12900300080B29F
:108BE00008F083F90400002801D02000EAE068467C
:108BF000007800284CD10221280005F05EFF029089
:108C0000002839D10421280005F057FF02900028E0
:108C100032D11221280005F050FF029000282BD1FC
:108C20000F21280005F0D6FF0290002824D1112141
:108C3000280005F042FF029000281DD1039881789A
:108C4000280005F03AFF0290002815D109212800DC
:108C500005F033FF029000280ED10621280005F010
:108C60002CFF0290002807D1062205A9280006F053
:108C7000D2F80290002801D00298A3E02A000399BC
:108C80000898FFF784FE0400002C01D0200099E032
:108C90003E6C30000399498B80B2884200D187E056
:108CA00001AA310089B20398143010F08EFA040042
:108CB000002C01D0200085E0019800880F280FD1FA
:108CC0000198796988420BD006220198811D05A878
:108CD00010F0F2FA002803D0386C401C386465E0CC
:108CE000E888694608820221280005F0E6FE0400B3
:108CF00000283BD10421280005F0DFFE04000028F5
:108D000034D11221280005F0D8FE040000282DD10E
:108D100001980188280005F05DFF0400002825D196
:108D20001121280005F0C9FE040000281ED1019879
:108D30008178280005F0C1FE0400002816D1092121
:108D4000280005F0BAFE040000280FD106212800F3
:108D500005F0B3FE0400002808D106220198811D09
:108D6000280006F058F80400002800D020E02A006F
:108D700001990898FFF70BFE0400002C18D1089801
:108D80005821405C00280ED03C20385C00280AD1D5
:108D900000222900089814F006FE002803D0822043
:108DA0004000040004E0386C401C3864761C70E716
:108DB00082204000844204D16846008AE880002076
:108DC0000400200009B0F0BDF44C0400F1B586B0F9
:108DD0000F00140000206946488078690190386CC3
:108DE000002815D101986621405A7864012120009D
:108DF00005F063FE0500002808D1210001986622D5
:108E0000805A08F072F80500002801D028005AE0C6
:108E10003E6C300001996622895A80B2884251D254
:108E200003AA310089B20198603009F0CCFB05003B
:108E3000002847D103980078049003984068029076
:108E4000029814F0DDFD694608700221200005F04B
:108E500034FE050000282ED10221200005F02DFE51
:108E60000500002827D11121200005F026FE05006D
:108E7000002820D10499C9B2200005F01EFE05008B
:108E8000002818D10A21200005F017FE050000284F
:108E900011D121006846007808F027F80500002865
:108EA00009D16846027892B20299200005F0B3FF1A
:108EB0000500002801D0280005E0386C401C38640B
:108EC000761CA6E7002007B0F0BDF1B588B00D0014
:108ED00000276E69287E02280FD12800FFF7F0F8DE
:108EE0000190002801D001983AE2AF683A002900C9
:108EF0000898FFF712FE040031E2287E032837D1DC
:108F00002800FFF7DDF80190002801D0019827E242
:108F1000AF680221380005F0D0FD0400002825D1FB
:108F20000221380005F0C9FD040000281ED10F21E0
:108F3000380005F0C2FD0400002817D1307F010081
:108F4000C9B2380005F0B9FD040000280ED1122185
:108F5000380005F0B2FD0400002807D1F18B38007D
:108F600005F038FE0400002800D1F8E12000F7E108
:108F7000287E042851D12800FFF7A2F8019000288C
:108F800001D00198ECE1AF680921380005F095FDAA
:108F9000040000283FD10721380005F08EFD0400B1
:108FA000002838D12620315C380005F086FD040009
:108FB000002830D12720315C380005F07EFD040008
:108FC000002828D1318DC9B2380005F076FD0400A3
:108FD000002820D12A20315C380005F06EFD040005
:108FE000002818D12B20315C380005F066FD040004
:108FF000002810D12C20315C380005F05EFD040003
:10900000002808D12D20315C380005F056FD040001
:10901000002800D1A3E12000A2E1287E052800D08D
:109020009AE02800FFF74CF80190002801D0019841
:1090300096E1AF680423002203A904A805F050FFBD
:109040000221380005F039FD0400002800D081E03D
:109050000621380005F031FD040000287AD1316B7B
:1090600004A805F0D0FD0400002873D104213800C5
:1090700005F023FD040000286CD13900182007F00A
:1090800034FF0400002865D103220498411C3800F5
:1090900005F0C1FE040000285CD104A805F03DFFE6
:1090A0000400002856D11221380005F006FD040006
:1090B00000284FD1B18E380005F08CFD0400002847
:1090C00048D11221380005F0F8FC0400002841D1F5
:1090D000F18E380005F07EFD040000283AD1112100
:1090E000380005F0EAFC0400002833D13820315C58
:1090F000380005F0E2FC040000282BD10F213800D5
:1091000005F0DBFC0400002824D13920305C01008C
:10911000C9B2380005F0D1FC040000281AD1092199
:10912000380005F0CAFC0400002813D139004220A1
:10913000305A07F0DAFE040000280BD14220335ADF
:10914000002231003C31380005F084FE0400002884
:1091500000D104E1200003E1287E062851D1280037
:10916000FEF7AEFF0400002800D0F8E0AF68092148
:10917000380005F0A2FC0400002840D10721380087
:1091800005F09BFC0400002839D14820315C3800F0
:1091900005F093FC0400002831D14920315C3800EF
:1091A00005F08BFC0400002829D14A20315AC9B2AD
:1091B000380005F082FC0400002820D14C20315CEE
:1091C000380005F07AFC0400002818D14D20315CED
:1091D000380005F072FC0400002810D14E20315CEC
:1091E000380005F06AFC0400002808D14F20315CEB
:1091F000380005F062FC0400002800D1AFE0200038
:10920000AEE0287E07280DD12800FEF759FF0400A4
:10921000002800D0A3E031005031A86809F0D0FD4B
:1092200004009CE0287E082805D1317C280006F047
:1092300057F9040093E0287E092810D12800FEF792
:109240003FFF0400002800D089E0F06D08F0BCF872
:1092500006220100A86809F0DCFD04007FE0287EFA
:109260000A280CD12800FEF72BFF0400002876D135
:10927000AA6829000898FFF7A9FD04006FE0287E7E
:109280000B286AD12800FEF71BFF0400002801D03C
:10929000200065E0AF680221380005F00EFC019067
:1092A000002806D10221380005F007FC01900028B3
:1092B00001D0019854E0306F00281DD111213800F1
:1092C00005F0FBFB0400002814D10021380005F054
:1092D000F4FB040000280DD10A21380005F0EDFB55
:1092E0000400002806D10021380005F0E6FB040048
:1092F000002834D0200033E0306F0290029814F040
:109300007FFB694608701121380005F0D6FB040088
:10931000002820D16C20315C380005F0CEFB040021
:10932000002818D10A21380005F0C7FB04000028E6
:1093300011D139006846007807F0D7FD04000028F5
:1093400009D16846027892B20299380005F063FDAF
:109350000400002803D0200002E0812464002000E3
:1093600009B0F0BDF3B583B0140004984069103023
:10937000029000273E0003985221415A200005F038
:1093800025FB0500002801D028009FE00498482113
:10939000405A002811D10298C088049948640121DC
:1093A000200005F08AFB21000298C08807F09DFD8F
:1093B0000500002801D0280088E00498066C3000E1
:1093C0000299C98880B2884277D0E088694688804F
:1093D0006A46310089B202980FF0F7FE05000028B6
:1093E00053D10221200005F068FB050000284CD174
:1093F0000421200005F061FB0500002845D1102163
:10940000200005F05AFB050000283ED10098808816
:10941000010009B2200005F0EBFC0500002834D162
:109420001221200005F049FB050000282DD10098ED
:109430000188200005F0CEFB0500002825D1112170
:10944000200005F03AFB050000281ED10098817825
:10945000200005F032FB0500002816D1092120006C
:1094600005F02BFB050000280FD10621200005F098
:1094700024FB0500002808D106220098811D200049
:1094800005F0C9FC0500002800D016E0039858211B
:10949000405C00280AD000222100039814F083FACF
:1094A000002803D082204000050006E00498006CEC
:1094B000401C04990864761C81E7822040008542A4
:1094C00003D168468088E0803D00280005B0F0BDEB
:1094D000F3B581B014000221200005F0EEFA05007A
:1094E00000281CD10321200005F0E7FA0500002820
:1094F00015D11221200005F0E0FA050000280ED158
:1095000002988188200005F065FB0500002806D13F
:109510000121200005F0D1FA0500002801D0280023
:109520009FE0029808F071FC6946087021006846C7
:10953000007807F0DAFC012637003800C0B269462F
:109540000978491C88423ED03A00D2B2029901986B
:109550000EF0A0FC694648700221200005F0ADFA2B
:10956000050000282BD10321200005F0A6FA0500F4
:10957000002824D10F21200005F09FFA05000028C3
:109580001DD13900C9B2200005F029FC05000028D2
:1095900015D11621200005F090FA050000280ED103
:1095A00068464178200005F01AFC0500002806D125
:1095B0000021200005F081FA0500002801D02800D4
:1095C0004FE07F1CB9E7029808F02AFD6946087051
:1095D0000121200005F071FA21006846007807F0AB
:1095E00084FC3000C0B269460978491C884237D0F3
:1095F0003200D2B2029901980FF0F2F96946487030
:109600000221200005F059FA0500002824D1032189
:10961000200005F052FA050000281DD10F2120007E
:1096200005F04BFA0500002816D13100C9B2200020
:1096300005F0D5FB050000280ED11621200005F00D
:109640003CFA0500002807D168464178200005F063
:10965000C6FB0500002801D0280002E0761CC0E708
:109660000020FEBDF1B584B00F00002634003800A4
:10967000FEF726FD0390002801D003984CE078699E
:109680000190B8680090387E022806D1009A39000F
:109690000498FFF767FE04003DE0387E03282AD1D6
:1096A0000121009805F009FA0400002833D100993F
:1096B0000198C08A07F019FC040000282BD135005E
:1096C00028000199C98A80B2884224D002AA2900C0
:1096D00089B2019810300FF078FD0400002807D1FE
:1096E000009A02990498FFF7F3FE0400002800D0C6
:1096F00011E06D1CE4E7387E04280AD101988069E6
:1097000007F062FE06220100B86809F082FB04003F
:1097100001E081246400200005B0F0BDF8B58EB0F2
:1097200006000027019770690090307E022805D15D
:109730000098817C300005F0D3FE31E1307E0328B3
:1097400000D082E03000FEF7BBFC0190002801D081
:10975000019825E1B06802900121029805F0ADF969
:109760000400002813D102990098408B07F0BDFB3C
:10977000040000280BD104A805F067FF04000028AE
:1097800005D10AA805F061FF0400002801D02000DF
:1097900006E13D000098408B854200D1FFE00221A8
:1097A000029805F08AF90400002806D102210298E7
:1097B00005F083F90400002806D004A805F061FF35
:1097C0000AA805F05EFFEAE003AA2800010089B2BA
:1097D0000098143008F0F7FE040000280FD1039819
:1097E000016804A807F017FA0400002807D10398BD
:1097F00041680AA807F00FFA0400002806D004A860
:1098000005F03FFF0AA805F03CFFC8E0029A0921D5
:1098100004A806F0FEF90400002807D1029A0921E5
:109820000AA806F0F6F90400002806D004A805F0FE
:1098300028FF0AA805F025FFB1E004A805F021FFE4
:109840000AA805F01EFF6D1CA4E7307E042807D18E
:1098500000982021415C300005F042FE04009EE0AB
:10986000307E052807D100982121415C300005F0A9
:1098700042FE040093E0307E062836D13000FEF729
:109880001FFC0190002801D0019889E0B7680221EF
:10989000380005F012F90400002824D10221380014
:1098A00005F00BF9040000281DD11121380005F046
:1098B00004F90400002816D10098017C380005F056
:1098C000FCF8040000280ED11121380005F0F5F84D
:1098D0000400002807D10098417C380005F0EDF81D
:1098E000040000285BD020005AE0307E072853D1C6
:1098F0003000FEF7E5FB0190002801D001984FE011
:10990000B06802900121029805F0D7F80400002801
:109910000DD102990098408D07F0E7FA0400002865
:1099200005D104A805F091FE0400002801D0200014
:1099300036E03D000098408D854230D004A805F007
:10994000A0FE08AA2800010089B20098243008F07F
:109950003AFE040000280AD1089904A807F06BF821
:10996000002801D0012400E03C00002C03D004A812
:1099700005F087FE13E0029A022104A806F049F9D7
:109980000400002803D004A805F07BFE07E004A82B
:1099900005F077FE6D1CCDE78120400000E020003F
:1099A0000FB0F0BDF8B58EB00700002602967869BA
:1099B0000090387E022806D10098017C380005F01E
:1099C0008FFD0400D9E0387E032807D100982E21AE
:1099D000415C380005F08FFD0400CEE0387E04289D
:1099E00006D10098818D380005F090FD0400C4E098
:1099F000387E052875D13800FEF762FB02900028FA
:109A000001D00298BAE0B86801900121019805F0F0
:109A100054F80400002813D101990098408B07F0F6
:109A200064FA040000280BD10AA805F00EFE040019
:109A3000002805D106A805F008FE0400002801D082
:109A400020009BE035000098408B854200D194E0D7
:109A50000221019805F031F80400002806D1022106
:109A6000019805F02AF80400002800D085E004AA37
:109A70002800010089B20098143008F0A4FD040009
:109A800000281FD1049801680AA807F0C4F8040050
:109A9000002817D10498416806A807F0BCF8040014
:109AA00000280FD1019A09210AA806F0B2F8040093
:109AB000002807D1019A092106A806F0AAF8040097
:109AC000002806D00AA805F0DCFD06A805F0D9FD9F
:109AD00053E00AA805F0D5FD06A805F0D2FD6D1CDF
:109AE000B1E7387E062846D13800FEF7E9FA029041
:109AF000002801D0029841E0B86801900121019846
:109B000004F0DBFF0400002807D101990098C08C05
:109B100007F0EBF90400002801D020002EE035000A
:109B20000098C08C854228D00921019804F0C5FF17
:109B3000040000281CD103AA2800010089B2009863
:109B4000203008F040FD0400002811D1019903984D
:109B5000C08807F0CAF90400002809D10398C28818
:109B600003980168019805F056F90400002800D018
:109B700003E06D1CD4E78124640020000FB0F0BD29
:109B8000FEB504000020019060690090207E02284C
:109B900018D10098103007F0E4F806000F00009884
:109BA0003021405607F0D4FA02000B003000390093
:109BB00013F02DFF13F08CFF0100200005F0B1FC25
:109BC000050092E0207E032818D10098203007F08D
:109BD000C8F806000F0000983021405607F0B8FA88
:109BE00002000B003000390013F011FF13F070FF7A
:109BF0000100200005F095FC050076E0207E042899
:109C00003AD12000FEF75CFA0700002801D03800A6
:109C10006CE0A6680221300004F04FFF0500002828
:109C200028D10221300004F048FF0500002821D18E
:109C30000F21300004F041FF050000281AD10098E0
:109C40003021405C0100C9B2300005F0C8F80500C1
:109C500000280FD11621300004F02FFF0500002846
:109C600008D100983121415C300004F026FF050046
:109C700000283AD0280039E0207E052807D1009836
:109C800001003831200006F0D6FE05002DE0207ED0
:109C9000062807D1009801004831200006F0FAFF9D
:109CA000050022E0207E072807D1009801007C31C2
:109CB000200006F0EFFF050017E0207E082807D1FE
:109CC0000098B4214158200005F02BFC05000CE061
:109CD000207E092807D10098B021415A200005F0C4
:109CE00015FC050001E081256D002800FEBDF8B5DA
:109CF000040000266769207E02280CD12000FEF7B0
:109D0000DFF90500002808D139001031A06809F0FA
:109D100057F8050001E081256D002800F2BDF8B577
:109D200086B0050000266F69287E022806D139001A
:109D30001031280006F07FFE040068E0287E03282A
:109D400038D12800FEF7BCF90090002801D0009817
:109D50005EE0AE680221300004F0AFFE040000288F
:109D600026D10221300004F0A8FE040000281FD1F3
:109D70000F21300004F0A1FE0400002818D120209B
:109D8000385C0100C9B2300005F029F80400002851
:109D90000ED11621300004F090FE0400002807D1F7
:109DA0002120395C300004F088FE040000282ED009
:109DB00020002DE0287E042806D1390058312800E3
:109DC00006F039FE040022E0287E05281DD1280077
:109DD000FEF776F90090002801D0009818E0AE68F0
:109DE00002A805F032FC3900243102A806F013FF66
:109DF0000400002C05D13200092102A805F009FF5A
:109E0000040002A805F03DFC01E08124640020006C
:109E100007B0F0BD70B506000C000521200004F06D
:109E20004CFE0500002845D11121200004F045FE1C
:109E3000050000283ED13178200004F03EFE0500E8
:109E4000002837D11121200004F037FE050000283A
:109E500030D17178200004F030FE0500002829D1AF
:109E60001121200004F029FE0500002822D1B1783C
:109E7000200004F022FE050000281BD11121200043
:109E800004F01BFE0500002814D1F178200004F036
:109E900014FE050000280DD11121200004F00DFE54
:109EA0000500002806D13179200004F006FE0500E7
:109EB000002801D0280000E0002070BDF8B50400A3
:109EC0006769207E02280CD12000FEF7F9F8050012
:109ED00000284BD139001031A06808F071FF05004F
:109EE00044E0207E032805D1B98B200005F00EFB4D
:109EF00005003BE0207E042836D12000FEF7E0F884
:109F00000090002801D0009831E0A66802213000BE
:109F100004F0D3FD0500002824D10221300004F014
:109F2000CCFD050000281DD10221300004F0C5FD44
:109F30000500002816D1310038001E30FFF76AFFF7
:109F4000050000280ED10221300004F0B6FD050006
:109F5000002807D1310038002330FFF75BFF0500F0
:109F6000002803D0280002E081256D002800F2BD02
:109F7000F1B584B00498406901900498007E0228ED
:109F800006D10198017C049805F0AAFA040008E1C2
:109F90000498007E032806D10198417C049805F0BE
:109FA0009FFA0400FDE00498007E042807D1019880
:109FB00001002031049805F037FB0400F1E004981B
:109FC000007E052807D1019801001431049805F09E
:109FD0002BFB0400E5E00498007E062800D0DEE0BC
:109FE0000498FEF76DF80600002801D03000D9E093
:109FF000049885680121280004F05FFD0400002812
:10A0000007D129000198408E06F06FFF0400002858
:10A0100001D02000C6E000260198408E864200D183
:10A02000BFE06A463000010089B201982C3008F088
:10A03000CAFA040000282BD10221280004F03DFDBB
:10A040000400002824D12900062006F04EFF040059
:10A0500000281DD11621280004F02FFD040000283F
:10A0600016D100980178280004F027FD040000288C
:10A070000ED11621280004F020FD0400002807D18D
:10A0800000984178280004F018FD0400002800D052
:10A0900087E00098406813F0B3FC0700092128000E
:10A0A00004F00BFD0400002813D138000100C9B2F0
:10A0B000280004F002FD040000280AD13800020044
:10A0C00092B200984168280004F0A5FE0400002820
:10A0D00000D066E00098806813F092FC029009219D
:10A0E000280004F0EAFC0400002813D102980100C3
:10A0F000C9B2280004F0E1FC040000280AD102984B
:10A10000020092B200988168280004F084FE0400E6
:10A11000002800D045E00098C06813F071FC0700EB
:10A120000921280004F0C9FC0400002813D13800DC
:10A130000100C9B2280004F0C0FC040000280AD1C4
:10A140003800020092B20098C168280004F063FE53
:10A150000400002800D024E00098006913F050FCAF
:10A1600002900921280004F0A8FC0400002813D163
:10A1700002980100C9B2280004F09FFC04000028E6
:10A180000AD10298020092B200980169280004F0F6
:10A1900042FE0400002800D003E0761C3CE7812446
:10A1A0006400200005B0F0BD38B504006569207E6C
:10A1B00002280CD033D3042813D00DD306281AD08C
:10A1C00014D3082821D01BD3092823D027E0A97D48
:10A1D000200005F085F924E0E97D200005F08BF9E9
:10A1E0001FE0297E200005F086F91AE0A98A2000E8
:10A1F00005F08CF915E0A98B200005F087F910E037
:10A20000698B200005F082F90BE0298A200005F017
:10A210007DF906E0698A200005F078F901E08120E7
:10A22000400032BD38B504006569207E022805D1A2
:10A230003420295C200005F053F941E0207E0328FA
:10A2400005D13520295C200005F04AF938E0207E50
:10A25000042805D13620295C200005F041F92FE0C3
:10A26000207E052805D13720295C200005F038F92B
:10A2700026E0207E062805D129003831200005F08F
:10A28000D3F91DE0207E072805D1290010312000D8
:10A2900005F0CAF914E0207E082805D129001C31F8
:10A2A000200005F0C1F90BE0207E092805D1290026
:10A2B0002831200005F0B8F902E081204000FFE7D6
:10A2C00032BDF0B585B00600002703977069009095
:10A2D000307E02281AD13000FDF7F2FE040000287B
:10A2E00000D009E100980069002806D106228449BF
:10A2F000B06808F08EFD0400FEE0062200980069B8
:10A30000811DB06808F085FD0400F5E0307E03286B
:10A3100006D100984169300005F003F90400EBE034
:10A32000307E042833D13000FDF7CAFE03900028A8
:10A3300001D00398E1E0B06801900121019804F098
:10A34000BCFB0400002807D101990098C08B06F0DF
:10A35000CCFD0400002801D02000CEE03D00009894
:10A36000C08B854200D1C7E004AA290000981830AC
:10A3700005F030FF0400002806D10199049805F08B
:10A38000FFFB0400002800D0B6E06D1CE7E7307E3C
:10A3900005287CD13000FDF793FE0390002801D002
:10A3A0000398AAE0B06801900121019804F085FBB0
:10A3B0000400002807D101990098C08C06F095FD93
:10A3C0000400002801D0200097E03D000098C08CD8
:10A3D000854200D190E002AA2800010089B20098CD
:10A3E000203008F0F0F8040000284DD10221019837
:10A3F00004F063FB0400002846D10321019804F017
:10A400005CFB040000283FD11121019804F055FBAA
:10A410000400002838D102980178019804F04DFB1F
:10A420000400002830D11121019804F046FB0400FB
:10A43000002829D102984178019804F03EFB0400DD
:10A44000002821D10921019804F037FB04000028DD
:10A450001AD10298001D04F0A7FA0100C9B20198B0
:10A4600004F02BFB040000280ED10298001D04F01C
:10A470009BFA03009BB200220298011D019804F090
:10A48000E9FC0400002800D036E06D1C9EE7307E19
:10A49000062806D10098C16A300005F042F8040091
:10A4A0002AE0307E072806D10098016B300005F0C5
:10A4B00038F8040020E0307E082807D100983421C5
:10A4C000415C300006F024FC040015E0307E0928D1
:10A4D00006D10098816B300005F023F804000BE0F2
:10A4E000307E0A2806D10098C16B300005F019F8BB
:10A4F000040001E081246400200005B0F0BD0000EC
:10A500001C4D040038B504006569207E022804D182
:10A51000297C200004F0E4FF1AE0207E032804D107
:10A52000697C200004F0DCFF12E0207E042804D1C6
:10A53000A97C200004F0D4FF0AE0207E052804D185
:10A54000E97C200004F0D7FF02E081204000FFE713
:10A5500032BDFEB506000020029070690090307E8A
:10A56000022806D100980169300004F0DAFF0400E7
:10A57000E5E0307E03282AD13000FDF7A1FD05007B
:10A58000002801D02800DBE00421B06804F095FA2F
:10A590000400002807D1B1680098408B06F0A5FCA4
:10A5A0000400002801D02000CAE00098408B002859
:10A5B00000D1C4E00098408B13F0B4FA020092B2CC
:10A5C00000984169B06804F026FC0400B7E0307ED2
:10A5D000042806D10098C169300004F0A2FF0400ED
:10A5E000ADE0307E052807D100982021415C300085
:10A5F00006F08EFB0400A2E0307E062807D100980A
:10A600002121415C300004F06BFF040097E0307EB4
:10A61000072800D091E03000FDF752FD029000289D
:10A6200001D002988CE0B56800982121405C032895
:10A630000FD00121280004F040FA0400002806D1C0
:10A640000021280004F039FA0400002877D0200007
:10A6500076E00121280004F030FA0400002807D138
:10A6600029000098408D06F040FC0400002801D02D
:10A67000200065E0002007000098408D87425ED0F2
:10A6800001AA3800010089B20098243007F09BFF2E
:10A69000040000284ED10221280004F00EFA040024
:10A6A000002847D10321280004F007FA04000028FD
:10A6B00040D10621280004F000FA0400002839D116
:10A6C00001980168280004F09EFA0400002831D1A6
:10A6D0000921280004F0F1F9040000282AD12900FA
:10A6E0000198408906F001FC0400002822D101985D
:10A6F000428901984168280004F08DFB040000287D
:10A7000018D10921280004F0D8F90400002811D13B
:10A7100029000198C08A06F0E8FB0400002809D14E
:10A720000198C28A01980169280004F074FB0400B2
:10A73000002800D003E07F1C9EE7812464002000F5
:10A74000FEBDF9B583B00F001400F8881321414312
:10A75000891C89B2200004F039F90500002801D0D5
:10A760002800A3E004984821405A002812D1F88814
:10A77000049948640121200004F09FF90500002895
:10A7800006D12100F88806F0B0FB0500002801D0B2
:10A7900028008BE00498066CF88886427CD06846D6
:10A7A000E18881806A463000010089B2380007F0F4
:10A7B0000AFF0500002857D10221200004F07DF98E
:10A7C0000500002850D10421200004F076F905008E
:10A7D000002849D11221200004F06FF9050000285B
:10A7E00042D1009800680188200004F0F3F90500C8
:10A7F000002839D10921200004F05FF90500002864
:10A8000032D10621200004F058F9050000282BD190
:10A81000062200980068811D200004F0FCFA050063
:10A82000002821D10F21200004F047F9050000285D
:10A830001AD10098406800780100C9B2200004F0E5
:10A84000CEFA050000280FD11221200004F035F9BE
:10A850000500002808D1009840684188200004F0D5
:10A86000B9F90500002800D016E003985821405C93
:10A8700000280AD000222100039813F094F8002841
:10A8800003D082204000050006E00498006C401CC4
:10A8900004990864761C7FE782204000854204D139
:10A8A00068468088E08000200500280005B0F0BDE3
:10A8B000F7B586B0070000250798C08885427DD08F
:10A8C00003AA2900079805F085FC0600002808D196
:10A8D00001AA00210398806805F07CFC060000288E
:10A8E00000D06BE0019805F060FB6946488001AA42
:10A8F00001210398806805F06DFC060000285DD1F9
:10A90000019880680068059001AA02210398806878
:10A9100005F060FC0600002850D1019805F045FBC9
:10A920006946087001AA03210398806805F052FC6B
:10A930000600002842D1019805F037FB0490002062
:10A940000400F888844237D002AA2000010089B2AE
:10A95000380007F038FE0600002801D030002EE055
:10A9600002980068008800990914884222D1029850
:10A970004068002140566946097800B209B2884211
:10A9800018D10298406840880499884212D1062262
:10A99000059902980068801D0EF08EFC002809D1F0
:10A9A0000299089807F0A7FD0600002801D03000A2
:10A9B00005E001E0641CC4E76D1C7DE7002009B0E0
:10A9C000F0BDFEB584B0070000263000694648801F
:10A9D0003000694608803500069807F0CAFD01205E
:10A9E0006946888005980078022800D0A2E0684671
:10A9F000007C012818D105988068C08804287CDB79
:10AA000002AA03210598806805F0E4FB05000028F0
:10AA100006D1069A029881683800FFF749FF0500C1
:10AA200030006946888068E06846007C022864D16E
:10AA300005988068C08803280FDB02AA02210598C8
:10AA4000806805F0C7FB0500002801D0280072E0EF
:10AA5000029805F0AAFA6946488005988068C0887F
:10AA6000042810DB02AA03210598806805F0B2FBD8
:10AA70000500002801D028005DE0029805F095FA55
:10AA80006946088006E068464088012802D0F888B8
:10AA90006946088068464088012803D168460088D6
:10AAA00000282AD03000694688806846008800283F
:10AAB00005D1F88869464988401A69460880684681
:10AAC0004088401E040020006946098880B2884200
:10AAD00013D003AA210089B2380007F074FD0500E5
:10AAE000002806D10399069807F005FD0500002807
:10AAF00001D028001FE0641CE5E768468088002834
:10AB000018D034002000F98880B2884212D003AAFD
:10AB1000210089B2380007F056FD0500002806D153
:10AB20000399069807F0E7FC0500002800D001E033
:10AB3000641CE7E7280007B0F0BDFFB583B00C9FA9
:10AB400001AA0498010089B2039807F03CFD0400B3
:10AB5000002801D020005DE00221380003F0ADFFA5
:10AB60000500002801D0280054E00698C08800287D
:10AB700009D039000698C08806F0B7F90600002809
:10AB80000BD0300046E039000598C08806F0ADF9DA
:10AB90000600002801D030003CE000242500059884
:10ABA000C088844235D00698C08800280CD005980B
:10ABB00000680421614340580699096804226A43E9
:10ABC0008958884223D16D1C6A462100019805F0FE
:10ABD00001FB0290002801D002981BE00098007849
:10ABE000192809D13A000921009805F012F8060049
:10ABF00000280CD030000DE0009A00980178380051
:10AC00000EF077FC0600002801D0300002E0641C42
:10AC1000C5E7002007B0F0BDFDB586B00E000E9F61
:10AC200000254820305A002822D10121380003F0A5
:10AC300044FF0400002801D020005BE0706C002875
:10AC40000AD03900706C326C801A06F04EF905009B
:10AC500000280DD028004DE00798C08870643900A6
:10AC6000706C06F042F90500002801D0280041E090
:10AC700002A807F0F2FBB07E02280BD102AB320033
:10AC80002032B17E0898FFF79CFE0500002801D015
:10AC900028002FE000240798C08884421DD0F8883F
:10ACA00069468880009702AB089A21000798FFF751
:10ACB00044FF0500002810D106985221405A46381A
:10ACC000F98880B2884203D282204000050004E067
:10ACD000306C401C3064641CDDE702A807F049FCBE
:10ACE00082204000854204D168468088F880002098
:10ACF0000500280009B0F0BDF9B5ABB00F00140095
:10AD0000A07E002806D02020205C002802D0606CA5
